{"contracts/GameHubV2.sol":{"GameHubV2":{"abi":[{"inputs":[],"stateMutability":"nonpayable","type":"constructor"},{"inputs":[{"internalType":"address","name":"target","type":"address"}],"name":"AddressEmptyCode","type":"error"},{"inputs":[{"internalType":"address","name":"implementation","type":"address"}],"name":"ERC1967InvalidImplementation","type":"error"},{"inputs":[],"name":"ERC1967NonPayable","type":"error"},{"inputs":[],"name":"FailedCall","type":"error"},{"inputs":[],"name":"InvalidInitialization","type":"error"},{"inputs":[],"name":"NotInitializing","type":"error"},{"inputs":[{"internalType":"address","name":"owner","type":"address"}],"name":"OwnableInvalidOwner","type":"error"},{"inputs":[{"internalType":"address","name":"account","type":"address"}],"name":"OwnableUnauthorizedAccount","type":"error"},{"inputs":[],"name":"UUPSUnauthorizedCallContext","type":"error"},{"inputs":[{"internalType":"bytes32","name":"slot","type":"bytes32"}],"name":"UUPSUnsupportedProxiableUUID","type":"error"},{"anonymous":false,"inputs":[{"indexed":true,"internalType":"uint256","name":"battleId","type":"uint256"},{"indexed":false,"internalType":"address","name":"winner","type":"address"},{"indexed":false,"internalType":"uint256","name":"prize","type":"uint256"},{"indexed":false,"internalType":"uint256","name":"randomSeed","type":"uint256"}],"name":"BattleRoyaleCompleted","type":"event"},{"anonymous":false,"inputs":[{"indexed":true,"internalType":"uint256","name":"battleId","type":"uint256"},{"indexed":false,"internalType":"enum GameHubV2.GameMode","name":"mode","type":"uint8"},{"indexed":false,"internalType":"uint256","name":"playersCount","type":"uint256"},{"indexed":false,"internalType":"uint256","name":"betAmount","type":"uint256"}],"name":"BattleRoyaleStarted","type":"event"},{"anonymous":false,"inputs":[{"indexed":true,"internalType":"uint256","name":"duelId","type":"uint256"},{"indexed":false,"internalType":"address","name":"winner","type":"address"},{"indexed":false,"internalType":"uint256","name":"prize","type":"uint256"},{"indexed":false,"internalType":"uint256","name":"randomSeed","type":"uint256"}],"name":"DuelCompleted","type":"event"},{"anonymous":false,"inputs":[{"indexed":true,"internalType":"uint256","name":"duelId","type":"uint256"},{"indexed":false,"internalType":"address","name":"player1","type":"address"},{"indexed":false,"internalType":"address","name":"player2","type":"address"},{"indexed":false,"internalType":"uint256","name":"betAmount","type":"uint256"}],"name":"DuelStarted","type":"event"},{"anonymous":false,"inputs":[{"indexed":false,"internalType":"uint64","name":"version","type":"uint64"}],"name":"Initialized","type":"event"},{"anonymous":false,"inputs":[{"indexed":true,"internalType":"address","name":"previousOwner","type":"address"},{"indexed":true,"internalType":"address","name":"newOwner","type":"address"}],"name":"OwnershipTransferred","type":"event"},{"anonymous":false,"inputs":[{"indexed":false,"internalType":"address","name":"to","type":"address"},{"indexed":false,"internalType":"uint256","name":"amount","type":"uint256"}],"name":"PaymentSent","type":"event"},{"anonymous":false,"inputs":[{"indexed":true,"internalType":"uint256","name":"waitingId","type":"uint256"},{"indexed":false,"internalType":"address","name":"player","type":"address"},{"indexed":false,"internalType":"uint256","name":"betAmount","type":"uint256"},{"indexed":false,"internalType":"enum GameHubV2.GameMode","name":"mode","type":"uint8"}],"name":"PlayerWaiting","type":"event"},{"anonymous":false,"inputs":[{"indexed":true,"internalType":"address","name":"implementation","type":"address"}],"name":"Upgraded","type":"event"},{"inputs":[],"name":"OWNER_FEE_PERCENT","outputs":[{"internalType":"uint256","name":"","type":"uint256"}],"stateMutability":"view","type":"function"},{"inputs":[],"name":"UPGRADE_INTERFACE_VERSION","outputs":[{"internalType":"string","name":"","type":"string"}],"stateMutability":"view","type":"function"},{"inputs":[{"internalType":"uint256","name":"","type":"uint256"}],"name":"allowedBets","outputs":[{"internalType":"uint256","name":"","type":"uint256"}],"stateMutability":"view","type":"function"},{"inputs":[{"internalType":"uint256","name":"","type":"uint256"}],"name":"battleRoyales","outputs":[{"internalType":"uint256","name":"id","type":"uint256"},{"internalType":"enum GameHubV2.GameMode","name":"mode","type":"uint8"},{"internalType":"uint256","name":"betAmount","type":"uint256"},{"internalType":"uint256","name":"startTime","type":"uint256"},{"internalType":"address","name":"winner","type":"address"},{"internalType":"bool","name":"completed","type":"bool"},{"internalType":"uint256","name":"randomSeed","type":"uint256"},{"internalType":"uint256","name":"requiredPlayers","type":"uint256"}],"stateMutability":"view","type":"function"},{"inputs":[],"name":"cancelWaiting","outputs":[],"stateMutability":"nonpayable","type":"function"},{"inputs":[{"internalType":"uint256","name":"","type":"uint256"}],"name":"duels","outputs":[{"internalType":"uint256","name":"id","type":"uint256"},{"internalType":"address","name":"player1","type":"address"},{"internalType":"address","name":"player2","type":"address"},{"internalType":"uint256","name":"betAmount","type":"uint256"},{"internalType":"uint256","name":"timestamp","type":"uint256"},{"internalType":"address","name":"winner","type":"address"},{"internalType":"bool","name":"completed","type":"bool"},{"internalType":"uint256","name":"randomSeed","type":"uint256"}],"stateMutability":"view","type":"function"},{"inputs":[],"name":"emergencyWithdraw","outputs":[],"stateMutability":"nonpayable","type":"function"},{"inputs":[],"name":"getAllowedBets","outputs":[{"internalType":"uint256[]","name":"","type":"uint256[]"}],"stateMutability":"view","type":"function"},{"inputs":[{"internalType":"uint256","name":"battleId","type":"uint256"}],"name":"getBattleRoyale","outputs":[{"components":[{"internalType":"uint256","name":"id","type":"uint256"},{"internalType":"enum GameHubV2.GameMode","name":"mode","type":"uint8"},{"internalType":"address[]","name":"players","type":"address[]"},{"internalType":"uint256","name":"betAmount","type":"uint256"},{"internalType":"uint256","name":"startTime","type":"uint256"},{"internalType":"address","name":"winner","type":"address"},{"internalType":"bool","name":"completed","type":"bool"},{"internalType":"uint256","name":"randomSeed","type":"uint256"},{"internalType":"uint256","name":"requiredPlayers","type":"uint256"}],"internalType":"struct GameHubV2.BattleRoyale","name":"","type":"tuple"}],"stateMutability":"view","type":"function"},{"inputs":[{"internalType":"uint256","name":"duelId","type":"uint256"}],"name":"getDuel","outputs":[{"components":[{"internalType":"uint256","name":"id","type":"uint256"},{"internalType":"address","name":"player1","type":"address"},{"internalType":"address","name":"player2","type":"address"},{"internalType":"uint256","name":"betAmount","type":"uint256"},{"internalType":"uint256","name":"timestamp","type":"uint256"},{"internalType":"address","name":"winner","type":"address"},{"internalType":"bool","name":"completed","type":"bool"},{"internalType":"uint256","name":"randomSeed","type":"uint256"}],"internalType":"struct GameHubV2.Duel","name":"","type":"tuple"}],"stateMutability":"view","type":"function"},{"inputs":[{"internalType":"enum GameHubV2.GameMode","name":"mode","type":"uint8"}],"name":"getMultiplier","outputs":[{"internalType":"uint256","name":"","type":"uint256"}],"stateMutability":"pure","type":"function"},{"inputs":[{"internalType":"address","name":"player","type":"address"}],"name":"getPlayerStats","outputs":[{"internalType":"uint256","name":"totalGames","type":"uint256"},{"internalType":"uint256","name":"wins","type":"uint256"},{"internalType":"uint256","name":"totalWinnings","type":"uint256"}],"stateMutability":"view","type":"function"},{"inputs":[{"internalType":"enum GameHubV2.GameMode","name":"mode","type":"uint8"}],"name":"getRequiredPlayers","outputs":[{"internalType":"uint256","name":"","type":"uint256"}],"stateMutability":"pure","type":"function"},{"inputs":[{"internalType":"enum GameHubV2.GameMode","name":"mode","type":"uint8"},{"internalType":"uint256","name":"betAmount","type":"uint256"}],"name":"getWaitingPlayersCount","outputs":[{"internalType":"uint256","name":"","type":"uint256"}],"stateMutability":"view","type":"function"},{"inputs":[],"name":"initialize","outputs":[],"stateMutability":"nonpayable","type":"function"},{"inputs":[{"internalType":"uint256","name":"amount","type":"uint256"}],"name":"isValidBet","outputs":[{"internalType":"bool","name":"","type":"bool"}],"stateMutability":"view","type":"function"},{"inputs":[{"internalType":"enum GameHubV2.GameMode","name":"mode","type":"uint8"}],"name":"joinGame","outputs":[],"stateMutability":"payable","type":"function"},{"inputs":[],"name":"nextBattleRoyaleId","outputs":[{"internalType":"uint256","name":"","type":"uint256"}],"stateMutability":"view","type":"function"},{"inputs":[],"name":"nextDuelId","outputs":[{"internalType":"uint256","name":"","type":"uint256"}],"stateMutability":"view","type":"function"},{"inputs":[],"name":"nextWaitingId","outputs":[{"internalType":"uint256","name":"","type":"uint256"}],"stateMutability":"view","type":"function"},{"inputs":[],"name":"owner","outputs":[{"internalType":"address","name":"","type":"address"}],"stateMutability":"view","type":"function"},{"inputs":[],"name":"proxiableUUID","outputs":[{"internalType":"bytes32","name":"","type":"bytes32"}],"stateMutability":"view","type":"function"},{"inputs":[],"name":"randomNonce","outputs":[{"internalType":"uint256","name":"","type":"uint256"}],"stateMutability":"view","type":"function"},{"inputs":[],"name":"renounceOwnership","outputs":[],"stateMutability":"nonpayable","type":"function"},{"inputs":[],"name":"totalBattleRoyales","outputs":[{"internalType":"uint256","name":"","type":"uint256"}],"stateMutability":"view","type":"function"},{"inputs":[],"name":"totalDuels","outputs":[{"internalType":"uint256","name":"","type":"uint256"}],"stateMutability":"view","type":"function"},{"inputs":[{"internalType":"address","name":"newOwner","type":"address"}],"name":"transferOwnership","outputs":[],"stateMutability":"nonpayable","type":"function"},{"inputs":[{"internalType":"address","name":"newImplementation","type":"address"},{"internalType":"bytes","name":"data","type":"bytes"}],"name":"upgradeToAndCall","outputs":[],"stateMutability":"payable","type":"function"},{"inputs":[{"internalType":"enum GameHubV2.GameMode","name":"","type":"uint8"},{"internalType":"uint256","name":"","type":"uint256"},{"internalType":"uint256","name":"","type":"uint256"}],"name":"waitingByModeAndBet","outputs":[{"internalType":"uint256","name":"","type":"uint256"}],"stateMutability":"view","type":"function"},{"inputs":[{"internalType":"uint256","name":"","type":"uint256"}],"name":"waitingPlayers","outputs":[{"internalType":"address","name":"player","type":"address"},{"internalType":"uint256","name":"betAmount","type":"uint256"},{"internalType":"enum GameHubV2.GameMode","name":"mode","type":"uint8"},{"internalType":"uint256","name":"joinTime","type":"uint256"},{"internalType":"bool","name":"active","type":"bool"}],"stateMutability":"view","type":"function"}],"evm":{"bytecode":{"linkReferences":{},"object":"60a0604052306080523480156200001557600080fd5b506200002062000026565b620000da565b7ff0c57e16840df040f15088dc2f81fe391c3923bec73e23a9662efc9c229c6a00805468010000000000000000900460ff1615620000775760405163f92ee8a960e01b815260040160405180910390fd5b80546001600160401b0390811614620000d75780546001600160401b0319166001600160401b0390811782556040519081527fc7f505b2f371ae2175ee4913f4499e1f2633a7b5936321eed1cdaeb6115181d29060200160405180910390a15b50565b608051612b3d62000104600039600081816112d70152818161130001526114460152612b3d6000f3fe6080604052600436106101cd5760003560e01c8063809a6c28116100f7578063a8a3221e11610095578063eea9413c11610064578063eea9413c1461075a578063f19e774e14610787578063f2fde38b146107b7578063f8725424146107d757600080fd5b8063a8a3221e146106df578063ad3cb1cc146106f4578063d0ae92fb14610732578063db2e21bc1461074557600080fd5b80638da5cb5b116100d15780638da5cb5b1461065a5780638f94514614610687578063a235c4ab146106a7578063a31b8bfd146106c957600080fd5b8063809a6c28146105175780638129fc1c14610581578063859a62d01461059657600080fd5b80634f1ef2861161016f578063565e614f1161013e578063565e614f1461038657806357d628d7146104d75780635b34981a146104ed578063715018a61461050257600080fd5b80634f1ef2861461030b5780634fd66eae1461032057806352d1902d1461035b578063549ec6141461037057600080fd5b80631db62761116101ab5780631db62761146102a95780631eccb38b146102bf57806339988a55146102d557806343963a91146102eb57600080fd5b80630b072b8d146101d25780630c02b1ed14610205578063125907fc14610289575b600080fd5b3480156101de57600080fd5b506101f26101ed366004612598565b6107f7565b6040519081526020015b60405180910390f35b34801561021157600080fd5b506102756102203660046125b3565b60046020819052600091825260409091208054600182015460038301549383015460058401546006850154600790950154939560ff93841695909492936001600160a01b03831693600160a01b909304169188565b6040516101fc989796959493929190612604565b34801561029557600080fd5b506101f26102a4366004612653565b610888565b3480156102b557600080fd5b506101f260095481565b3480156102cb57600080fd5b506101f260085481565b3480156102e157600080fd5b506101f260025481565b3480156102f757600080fd5b506101f2610306366004612598565b6108c6565b61031e6103193660046126b3565b61094c565b005b34801561032c57600080fd5b5061034061033b366004612775565b61096b565b604080519384526020840192909252908201526060016101fc565b34801561036757600080fd5b506101f2610b72565b34801561037c57600080fd5b506101f260075481565b34801561039257600080fd5b506104646103a13660046125b3565b6040805161010081018252600080825260208201819052918101829052606081018290526080810182905260a0810182905260c0810182905260e0810191909152506000908152600360208181526040928390208351610100810185528154815260018201546001600160a01b0390811693820193909352600282015483169481019490945291820154606084015260048201546080840152600582015490811660a0840152600160a01b900460ff16151560c08301526006015460e082015290565b6040516101fc919060006101008201905082518252602083015160018060a01b03808216602085015280604086015116604085015260608501516060850152608085015160808501528060a08601511660a0850152505060c0830151151560c083015260e083015160e083015292915050565b3480156104e357600080fd5b506101f260005481565b3480156104f957600080fd5b5061031e610b8f565b34801561050e57600080fd5b5061031e610ca2565b34801561052357600080fd5b506105706105323660046125b3565b600560205260009081526040902080546001820154600283015460038401546004909401546001600160a01b0390931693919260ff91821692911685565b6040516101fc959493929190612790565b34801561058d57600080fd5b5061031e610cb6565b3480156105a257600080fd5b5061060b6105b13660046125b3565b6003602081905260009182526040909120805460018201546002830154938301546004840154600585015460069095015493956001600160a01b0393841695908416949293919291811691600160a01b90910460ff169088565b604080519889526001600160a01b0397881660208a0152958716958801959095526060870193909352608086019190915290921660a084015290151560c083015260e0820152610100016101fc565b34801561066657600080fd5b5061066f610e16565b6040516001600160a01b0390911681526020016101fc565b34801561069357600080fd5b506101f26106a23660046125b3565b610e44565b3480156106b357600080fd5b506106bc610e65565b6040516101fc91906127cc565b3480156106d557600080fd5b506101f260015481565b3480156106eb57600080fd5b506101f2600a81565b34801561070057600080fd5b50610725604051806040016040528060058152602001640352e302e360dc1b81525081565b6040516101fc9190612834565b61031e610740366004612598565b610ebd565b34801561075157600080fd5b5061031e610fe3565b34801561076657600080fd5b5061077a6107753660046125b3565b61102b565b6040516101fc91906128ac565b34801561079357600080fd5b506107a76107a23660046125b3565b61118f565b60405190151581526020016101fc565b3480156107c357600080fd5b5061031e6107d2366004612775565b6111db565b3480156107e357600080fd5b506101f26107f2366004612947565b611216565b60008082600381111561080c5761080c6125cc565b03610819575060b4919050565b600182600381111561082d5761082d6125cc565b0361083b57506101c2919050565b600282600381111561084f5761084f6125cc565b0361085d5750612328919050565b6003826003811115610871576108716125cc565b03610880575062015f90919050565b506000919050565b600660205282600052604060002060205281600052604060002081815481106108b057600080fd5b9060005260206000200160009250925050505481565b6000808260038111156108db576108db6125cc565b036108e857506002919050565b60018260038111156108fc576108fc6125cc565b0361090957506005919050565b600282600381111561091d5761091d6125cc565b0361092a57506064919050565b600382600381111561093e5761093e6125cc565b0361088057506103e8919050565b6109546112cc565b61095d82611371565b6109678282611379565b5050565b6000808060015b600754811015610a65576000818152600360205260409020600101546001600160a01b03868116911614806109c357506000818152600360205260409020600201546001600160a01b038681169116145b15610a5d57836109d281612987565b6000838152600360205260409020600501549095506001600160a01b038088169116039050610a5d5782610a0581612987565b6000838152600360208190526040822001549195509150610a279060026129a0565b905060006064610a38600a846129a0565b610a4291906129cd565b9050610a4e81836129e1565b610a5890856129f4565b935050505b600101610972565b5060015b600854811015610b6a57600081815260046020526040812090805b6002830154811015610ada57876001600160a01b0316836002018281548110610aaf57610aaf612a07565b6000918252602090912001546001600160a01b031603610ad25760019150610ada565b600101610a84565b508015610b605785610aeb81612987565b60058401549097506001600160a01b03808a169116039050610b605784610b1181612987565b955050600082600701548360030154610b2a91906129a0565b905060006064610b3b600a846129a0565b610b4591906129cd565b9050610b5181836129e1565b610b5b90876129f4565b955050505b5050600101610a69565b509193909250565b6000610b7c61143b565b50600080516020612ae883398151915290565b60015b600954811015610c54576000818152600560205260409020546001600160a01b031633148015610bd3575060008181526005602052604090206004015460ff165b15610c4c5760008181526005602052604080822060048101805460ff19169055600101549051339282156108fc02929190818181858888f19350505050158015610c21573d6000803e3d6000fd5b5060008181526005602052604090206002810154600190910154610c499160ff169083611484565b50565b600101610b92565b5060405162461bcd60e51b815260206004820152601760248201527f4e6f206163746976652077616974696e6720666f756e6400000000000000000060448201526064015b60405180910390fd5b610caa61157b565b610cb460006115ad565b565b6000610cc061161e565b805490915060ff600160401b820416159067ffffffffffffffff16600081158015610ce85750825b905060008267ffffffffffffffff166001148015610d055750303b155b905081158015610d13575080155b15610d315760405163f92ee8a960e01b815260040160405180910390fd5b845467ffffffffffffffff191660011785558315610d5b57845460ff60401b1916600160401b1785555b610d6433611647565b610d6c611658565b60016007819055600881905560095542600255604080516080810182526509184e72a0008152655af3107a4000602082015266038d7ea4c6800091810191909152662386f26fc100006060820152610dc890600a9060046124a6565b508315610e0f57845460ff60401b19168555604051600181527fc7f505b2f371ae2175ee4913f4499e1f2633a7b5936321eed1cdaeb6115181d29060200160405180910390a15b5050505050565b7f9016d09d72d40fdae2fd8ceac6b6234c7706214fd39c1cd1e609a0528c199300546001600160a01b031690565b600a8181548110610e5457600080fd5b600091825260209091200154905081565b6060600a805480602002602001604051908101604052809291908181526020018280548015610eb357602002820191906000526020600020905b815481526020019060010190808311610e9f575b5050505050905090565b610ec63461118f565b610f075760405162461bcd60e51b8152602060048201526012602482015271125b9d985b1a590818995d08185b5bdd5b9d60721b6044820152606401610c99565b60003411610f475760405162461bcd60e51b815260206004820152600d60248201526c09aeae6e840e6cadcc8408aa89609b1b6044820152606401610c99565b6000816003811115610f5b57610f5b6125cc565b141580610f7957506000816003811115610f7757610f776125cc565b145b610fb95760405162461bcd60e51b8152602060048201526011602482015270496e76616c69642067616d65206d6f646560781b6044820152606401610c99565b6000816003811115610fcd57610fcd6125cc565b03610fda57610c49611660565b610c49816116bc565b610feb61157b565b610ff3610e16565b6001600160a01b03166108fc479081150290604051600060405180830381858888f19350505050158015610c49573d6000803e3d6000fd5b61108660408051610120810190915260008082526020820190815260200160608152602001600081526020016000815260200160006001600160a01b0316815260200160001515815260200160008152602001600081525090565b60008281526004602090815260409182902082516101208101909352805483526001810154909183019060ff1660038111156110c4576110c46125cc565b60038111156110d5576110d56125cc565b81526020016002820180548060200260200160405190810160405280929190818152602001828054801561113257602002820191906000526020600020905b81546001600160a01b03168152600190910190602001808311611114575b5050509183525050600382015460208201526004820154604082015260058201546001600160a01b0381166060830152600160a01b900460ff1615156080820152600682015460a082015260079091015460c09091015292915050565b6000805b600a548110156111d25782600a82815481106111b1576111b1612a07565b9060005260206000200154036111ca5750600192915050565b600101611193565b50600092915050565b6111e361157b565b6001600160a01b03811661120d57604051631e4fbdf760e01b815260006004820152602401610c99565b610c49816115ad565b6000808060068186600381111561122f5761122f6125cc565b6003811115611240576112406125cc565b81526020019081526020016000206000858152602001908152602001600020905060005b81548110156112c0576005600083838154811061128357611283612a07565b6000918252602080832090910154835282019290925260400190206004015460ff16156112b857826112b481612987565b9350505b600101611264565b50909150505b92915050565b306001600160a01b037f000000000000000000000000000000000000000000000000000000000000000016148061135357507f00000000000000000000000000000000000000000000000000000000000000006001600160a01b0316611347600080516020612ae8833981519152546001600160a01b031690565b6001600160a01b031614155b15610cb45760405163703e46dd60e11b815260040160405180910390fd5b610c4961157b565b816001600160a01b03166352d1902d6040518163ffffffff1660e01b8152600401602060405180830381865afa9250505080156113d3575060408051601f3d908101601f191682019092526113d091810190612a1d565b60015b6113fb57604051634c9c8ce360e01b81526001600160a01b0383166004820152602401610c99565b600080516020612ae8833981519152811461142c57604051632a87526960e21b815260048101829052602401610c99565b61143683836116fc565b505050565b306001600160a01b037f00000000000000000000000000000000000000000000000000000000000000001614610cb45760405163703e46dd60e11b815260040160405180910390fd5b60006006600085600381111561149c5761149c6125cc565b60038111156114ad576114ad6125cc565b81526020019081526020016000206000848152602001908152602001600020905060005b8154811015610e0f57828282815481106114ed576114ed612a07565b906000526020600020015403611573578154829061150d906001906129e1565b8154811061151d5761151d612a07565b906000526020600020015482828154811061153a5761153a612a07565b90600052602060002001819055508180548061155857611558612a36565b60019003818190600052602060002001600090559055610e0f565b6001016114d1565b33611584610e16565b6001600160a01b031614610cb45760405163118cdaa760e01b8152336004820152602401610c99565b7f9016d09d72d40fdae2fd8ceac6b6234c7706214fd39c1cd1e609a0528c19930080546001600160a01b031981166001600160a01b03848116918217845560405192169182907f8be0079c531659141344cd1fd0a4f28419497f9722a3daafe3b4186f6b6457e090600090a3505050565b6000807ff0c57e16840df040f15088dc2f81fe391c3923bec73e23a9662efc9c229c6a006112c6565b61164f611752565b610c4981611777565b610cb4611752565b600061166d60003461177f565b905080156116b15760008181526005602052604090208054611699906001600160a01b03163334611855565b60048101805460ff1916905561096760003484611484565b610c49600034611bc1565b60006116c7826108c6565b905060006116d58334611216565b9050816116e38260016129f4565b106116f2576114368334611d44565b6114368334611bc1565b6117058261228d565b6040516001600160a01b038316907fbc7cd75a20ee27fd9adebab32041f755214dbc6bffa90cc0225b39da2e5c2d3b90600090a280511561174a5761143682826122f2565b610967612368565b61175a612387565b610cb457604051631afcd79f60e31b815260040160405180910390fd5b6111e3611752565b60008060066000856003811115611798576117986125cc565b60038111156117a9576117a96125cc565b81526020019081526020016000206000848152602001908152602001600020905060005b815481101561184a5760008282815481106117ea576117ea612a07565b6000918252602080832090910154808352600590915260409091206004015490915060ff16801561183257506000818152600560205260409020546001600160a01b03163314155b156118415792506112c6915050565b506001016117cd565b506000949350505050565b6002805490600061186583612987565b919050555060006118746123a1565b90506000611883600283612a4c565b9050600081156118935784611895565b855b6007805491925060009190826118aa83612987565b919050559050604051806101000160405280828152602001886001600160a01b03168152602001876001600160a01b03168152602001868152602001428152602001836001600160a01b0316815260200160011515815260200185815250600360008381526020019081526020016000206000820151816000015560208201518160010160006101000a8154816001600160a01b0302191690836001600160a01b0316021790555060408201518160020160006101000a8154816001600160a01b0302191690836001600160a01b03160217905550606082015181600301556080820151816004015560a08201518160050160006101000a8154816001600160a01b0302191690836001600160a01b0316021790555060c08201518160050160146101000a81548160ff02191690831515021790555060e0820151816006015590505060008560026119fc91906129a0565b905060006064611a0d600a846129a0565b611a1791906129cd565b90506000611a2582846129e1565b6040519091506001600160a01b0386169082156108fc029083906000818181858888f19350505050158015611a5e573d6000803e3d6000fd5b50611a67610e16565b6001600160a01b03166108fc839081150290604051600060405180830381858888f19350505050158015611a9f573d6000803e3d6000fd5b50600080549080611aaf83612987565b9091555050604080516001600160a01b03808d1682528b16602082015290810189905284907f32a4a869175589db4f7700ac66e13712c68344029a4dc6411c67a3a89cc020889060600160405180910390a2604080516001600160a01b03871681526020810183905290810188905284907f82805c62658f0d4e2e9a11270a627f27493b4ae9968841f58becef279bd3f7c69060600160405180910390a2604080516001600160a01b038716815260208101839052600080516020612ac8833981519152910160405180910390a1600080516020612ac8833981519152611b94610e16565b604080516001600160a01b039092168252602082018590520160405180910390a150505050505050505050565b6009805460009182611bd283612987565b9190505590506040518060a00160405280336001600160a01b03168152602001838152602001846003811115611c0a57611c0a6125cc565b81524260208083019190915260016040928301819052600085815260058352839020845181546001600160a01b0319166001600160a01b0390911617815591840151828201559183015160028201805492939192909160ff1990911690836003811115611c7957611c796125cc565b02179055506060820151816003015560808201518160040160006101000a81548160ff02191690831515021790555090505060066000846003811115611cc157611cc16125cc565b6003811115611cd257611cd26125cc565b815260208082019290925260409081016000908120858252835281812080546001810182559082529290209091018290555181907f48162bedb16d05a3275c2737a223bed7a2d83f402091162c85fa9dc10f6951ed90611d3790339086908890612a60565b60405180910390a2505050565b6000611d4f836108c6565b9050600060066000856003811115611d6957611d696125cc565b6003811115611d7a57611d7a6125cc565b81526020019081526020016000206000848152602001908152602001600020905060008267ffffffffffffffff811115611db657611db661269d565b604051908082528060200260200182016040528015611ddf578160200160208202803683370190505b5090506000338282611df081612987565b935081518110611e0257611e02612a07565b60200260200101906001600160a01b031690816001600160a01b03168152505060005b835481108015611e3457508482105b15611ef0576000848281548110611e4d57611e4d612a07565b6000918252602080832090910154808352600590915260409091206004015490915060ff1615611edd576000818152600560205260409020546001600160a01b03168484611e9a81612987565b955081518110611eac57611eac612a07565b6001600160a01b039092166020928302919091018201526000828152600590915260409020600401805460ff191690555b5080611ee881612987565b915050611e25565b5060066000876003811115611f0757611f076125cc565b6003811115611f1857611f186125cc565b815260200190815260200160002060008681526020019081526020016000206000611f4391906124fc565b60028054906000611f5383612987565b91905055506000611f626123a1565b90506000611f708683612a4c565b90506000848281518110611f8657611f86612a07565b60200260200101519050600060086000815480929190611fa590612987565b9190505590506040518061012001604052808281526020018b6003811115611fcf57611fcf6125cc565b8152602080820189905260408083018d90524260608401526001600160a01b0386166080840152600160a0840181905260c0840189905260e09093018c9052600085815260048352208351815590830151818301805492939192909160ff1990911690836003811115612044576120446125cc565b02179055506040820151805161206491600284019160209091019061251a565b50606082015160038201556080820151600482015560a082015160058201805460c08501511515600160a01b026001600160a81b03199091166001600160a01b039093169290921791909117905560e082015160068201556101009091015160079091015560006120d5898b6129a0565b9050600060646120e6600a846129a0565b6120f091906129cd565b905060006120fe82846129e1565b6040519091506001600160a01b0386169082156108fc029083906000818181858888f19350505050158015612137573d6000803e3d6000fd5b50612140610e16565b6001600160a01b03166108fc839081150290604051600060405180830381858888f19350505050158015612178573d6000803e3d6000fd5b506001805490600061218983612987565b9190505550837f084dcac16026e0dbb3c93bde7147c1aa2f00adce854bf7cb741a44ba47c5d8338e8d8f6040516121c293929190612a8c565b60405180910390a2604080516001600160a01b03871681526020810183905290810188905284907fd8ab9be402bed58d1a51595a9324a9844053d58dbf66a86d4e191a638a65be109060600160405180910390a2604080516001600160a01b038716815260208101839052600080516020612ac8833981519152910160405180910390a1600080516020612ac883398151915261225d610e16565b604080516001600160a01b039092168252602082018590520160405180910390a150505050505050505050505050565b806001600160a01b03163b6000036122c357604051634c9c8ce360e01b81526001600160a01b0382166004820152602401610c99565b600080516020612ae883398151915280546001600160a01b0319166001600160a01b0392909216919091179055565b6060600080846001600160a01b03168460405161230f9190612aab565b600060405180830381855af49150503d806000811461234a576040519150601f19603f3d011682016040523d82523d6000602084013e61234f565b606091505b509150915061235f85838361241f565b95945050505050565b3415610cb45760405163b398979f60e01b815260040160405180910390fd5b600061239161161e565b54600160401b900460ff16919050565b6000444243336002546001436123b791906129e1565b405a6040805160208101989098528701959095526060808701949094526bffffffffffffffffffffffff199290931b919091166080850152609484015260b483015260d482015260f4016040516020818303038152906040528051906020012060001c905090565b6060826124345761242f8261247e565b612477565b815115801561244b57506001600160a01b0384163b155b1561247457604051639996b31560e01b81526001600160a01b0385166004820152602401610c99565b50805b9392505050565b80511561248d57805160208201fd5b60405163d6bda27560e01b815260040160405180910390fd5b8280548282559060005260206000209081019282156124ec579160200282015b828111156124ec578251829066ffffffffffffff169055916020019190600101906124c6565b506124f892915061256f565b5090565b5080546000825590600052602060002090810190610c49919061256f565b8280548282559060005260206000209081019282156124ec579160200282015b828111156124ec57825182546001600160a01b0319166001600160a01b0390911617825560209092019160019091019061253a565b5b808211156124f85760008155600101612570565b80356004811061259357600080fd5b919050565b6000602082840312156125aa57600080fd5b61247782612584565b6000602082840312156125c557600080fd5b5035919050565b634e487b7160e01b600052602160045260246000fd5b6004811061260057634e487b7160e01b600052602160045260246000fd5b9052565b8881526101008101612619602083018a6125e2565b604082019790975260608101959095526001600160a01b0393909316608085015290151560a084015260c083015260e09091015292915050565b60008060006060848603121561266857600080fd5b61267184612584565b95602085013595506040909401359392505050565b80356001600160a01b038116811461259357600080fd5b634e487b7160e01b600052604160045260246000fd5b600080604083850312156126c657600080fd5b6126cf83612686565b9150602083013567ffffffffffffffff808211156126ec57600080fd5b818501915085601f83011261270057600080fd5b8135818111156127125761271261269d565b604051601f8201601f19908116603f0116810190838211818310171561273a5761273a61269d565b8160405282815288602084870101111561275357600080fd5b8260208601602083013760006020848301015280955050505050509250929050565b60006020828403121561278757600080fd5b61247782612686565b6001600160a01b03861681526020810185905260a081016127b460408301866125e2565b83606083015282151560808301529695505050505050565b6020808252825182820181905260009190848201906040850190845b81811015612804578351835292840192918401916001016127e8565b50909695505050505050565b60005b8381101561282b578181015183820152602001612813565b50506000910152565b6020815260008251806020840152612853816040850160208701612810565b601f01601f19169190910160400192915050565b60008151808452602080850194506020840160005b838110156128a15781516001600160a01b03168752958201959082019060010161287c565b509495945050505050565b6020815281516020820152600060208301516128cb60408401826125e2565b5060408301516101208060608501526128e8610140850183612867565b915060608501516080850152608085015160a085015260a085015161291860c08601826001600160a01b03169052565b5060c085015180151560e08601525060e085015161010085810191909152909401519390920192909252919050565b6000806040838503121561295a57600080fd5b61296383612584565b946020939093013593505050565b634e487b7160e01b600052601160045260246000fd5b60006001820161299957612999612971565b5060010190565b80820281158282048414176112c6576112c6612971565b634e487b7160e01b600052601260045260246000fd5b6000826129dc576129dc6129b7565b500490565b818103818111156112c6576112c6612971565b808201808211156112c6576112c6612971565b634e487b7160e01b600052603260045260246000fd5b600060208284031215612a2f57600080fd5b5051919050565b634e487b7160e01b600052603160045260246000fd5b600082612a5b57612a5b6129b7565b500690565b6001600160a01b03841681526020810183905260608101612a8460408301846125e2565b949350505050565b60608101612a9a82866125e2565b602082019390935260400152919050565b60008251612abd818460208701612810565b919091019291505056fe47db2abce6d5fbcd80ffd9b4ba74dcde804a746ef732bc7f8a70fabfc912c590360894a13ba1a3210667c828492db98dca3e2076cc3735a920a3ca505d382bbca2646970667358221220c2c2946940e10388c16133469b0e11f4681ad92e4b758473d39b58b44660a75a64736f6c63430008160033","opcodes":"PUSH1 0xA0 PUSH1 0x40 MSTORE ADDRESS PUSH1 0x80 MSTORE CALLVALUE DUP1 ISZERO PUSH3 0x15 JUMPI PUSH1 0x0 DUP1 REVERT JUMPDEST POP PUSH3 0x20 PUSH3 0x26 JUMP JUMPDEST PUSH3 0xDA JUMP JUMPDEST PUSH32 0xF0C57E16840DF040F15088DC2F81FE391C3923BEC73E23A9662EFC9C229C6A00 DUP1 SLOAD PUSH9 0x10000000000000000 SWAP1 DIV PUSH1 0xFF AND ISZERO PUSH3 0x77 JUMPI PUSH1 0x40 MLOAD PUSH4 0xF92EE8A9 PUSH1 0xE0 SHL DUP2 MSTORE PUSH1 0x4 ADD PUSH1 0x40 MLOAD DUP1 SWAP2 SUB SWAP1 REVERT JUMPDEST DUP1 SLOAD PUSH1 0x1 PUSH1 0x1 PUSH1 0x40 SHL SUB SWAP1 DUP2 AND EQ PUSH3 0xD7 JUMPI DUP1 SLOAD PUSH1 0x1 PUSH1 0x1 PUSH1 0x40 SHL SUB NOT AND PUSH1 0x1 PUSH1 0x1 PUSH1 0x40 SHL SUB SWAP1 DUP2 OR DUP3 SSTORE PUSH1 0x40 MLOAD SWAP1 DUP2 MSTORE PUSH32 0xC7F505B2F371AE2175EE4913F4499E1F2633A7B5936321EED1CDAEB6115181D2 SWAP1 PUSH1 0x20 ADD PUSH1 0x40 MLOAD DUP1 SWAP2 SUB SWAP1 LOG1 JUMPDEST POP JUMP JUMPDEST PUSH1 0x80 MLOAD PUSH2 0x2B3D PUSH3 0x104 PUSH1 0x0 CODECOPY PUSH1 0x0 DUP2 DUP2 PUSH2 0x12D7 ADD MSTORE DUP2 DUP2 PUSH2 0x1300 ADD MSTORE PUSH2 0x1446 ADD MSTORE PUSH2 0x2B3D PUSH1 0x0 RETURN INVALID PUSH1 0x80 PUSH1 0x40 MSTORE PUSH1 0x4 CALLDATASIZE LT PUSH2 0x1CD JUMPI PUSH1 0x0 CALLDATALOAD PUSH1 0xE0 SHR DUP1 PUSH4 0x809A6C28 GT PUSH2 0xF7 JUMPI DUP1 PUSH4 0xA8A3221E GT PUSH2 0x95 JUMPI DUP1 PUSH4 0xEEA9413C GT PUSH2 0x64 JUMPI DUP1 PUSH4 0xEEA9413C EQ PUSH2 0x75A JUMPI DUP1 PUSH4 0xF19E774E EQ PUSH2 0x787 JUMPI DUP1 PUSH4 0xF2FDE38B EQ PUSH2 0x7B7 JUMPI DUP1 PUSH4 0xF8725424 EQ PUSH2 0x7D7 JUMPI PUSH1 0x0 DUP1 REVERT JUMPDEST DUP1 PUSH4 0xA8A3221E EQ PUSH2 0x6DF JUMPI DUP1 PUSH4 0xAD3CB1CC EQ PUSH2 0x6F4 JUMPI DUP1 PUSH4 0xD0AE92FB EQ PUSH2 0x732 JUMPI DUP1 PUSH4 0xDB2E21BC EQ PUSH2 0x745 JUMPI PUSH1 0x0 DUP1 REVERT JUMPDEST DUP1 PUSH4 0x8DA5CB5B GT PUSH2 0xD1 JUMPI DUP1 PUSH4 0x8DA5CB5B EQ PUSH2 0x65A JUMPI DUP1 PUSH4 0x8F945146 EQ PUSH2 0x687 JUMPI DUP1 PUSH4 0xA235C4AB EQ PUSH2 0x6A7 JUMPI DUP1 PUSH4 0xA31B8BFD EQ PUSH2 0x6C9 JUMPI PUSH1 0x0 DUP1 REVERT JUMPDEST DUP1 PUSH4 0x809A6C28 EQ PUSH2 0x517 JUMPI DUP1 PUSH4 0x8129FC1C EQ PUSH2 0x581 JUMPI DUP1 PUSH4 0x859A62D0 EQ PUSH2 0x596 JUMPI PUSH1 0x0 DUP1 REVERT JUMPDEST DUP1 PUSH4 0x4F1EF286 GT PUSH2 0x16F JUMPI DUP1 PUSH4 0x565E614F GT PUSH2 0x13E JUMPI DUP1 PUSH4 0x565E614F EQ PUSH2 0x386 JUMPI DUP1 PUSH4 0x57D628D7 EQ PUSH2 0x4D7 JUMPI DUP1 PUSH4 0x5B34981A EQ PUSH2 0x4ED JUMPI DUP1 PUSH4 0x715018A6 EQ PUSH2 0x502 JUMPI PUSH1 0x0 DUP1 REVERT JUMPDEST DUP1 PUSH4 0x4F1EF286 EQ PUSH2 0x30B JUMPI DUP1 PUSH4 0x4FD66EAE EQ PUSH2 0x320 JUMPI DUP1 PUSH4 0x52D1902D EQ PUSH2 0x35B JUMPI DUP1 PUSH4 0x549EC614 EQ PUSH2 0x370 JUMPI PUSH1 0x0 DUP1 REVERT JUMPDEST DUP1 PUSH4 0x1DB62761 GT PUSH2 0x1AB JUMPI DUP1 PUSH4 0x1DB62761 EQ PUSH2 0x2A9 JUMPI DUP1 PUSH4 0x1ECCB38B EQ PUSH2 0x2BF JUMPI DUP1 PUSH4 0x39988A55 EQ PUSH2 0x2D5 JUMPI DUP1 PUSH4 0x43963A91 EQ PUSH2 0x2EB JUMPI PUSH1 0x0 DUP1 REVERT JUMPDEST DUP1 PUSH4 0xB072B8D EQ PUSH2 0x1D2 JUMPI DUP1 PUSH4 0xC02B1ED EQ PUSH2 0x205 JUMPI DUP1 PUSH4 0x125907FC EQ PUSH2 0x289 JUMPI JUMPDEST PUSH1 0x0 DUP1 REVERT JUMPDEST CALLVALUE DUP1 ISZERO PUSH2 0x1DE JUMPI PUSH1 0x0 DUP1 REVERT JUMPDEST POP PUSH2 0x1F2 PUSH2 0x1ED CALLDATASIZE PUSH1 0x4 PUSH2 0x2598 JUMP JUMPDEST PUSH2 0x7F7 JUMP JUMPDEST PUSH1 0x40 MLOAD SWAP1 DUP2 MSTORE PUSH1 0x20 ADD JUMPDEST PUSH1 0x40 MLOAD DUP1 SWAP2 SUB SWAP1 RETURN JUMPDEST CALLVALUE DUP1 ISZERO PUSH2 0x211 JUMPI PUSH1 0x0 DUP1 REVERT JUMPDEST POP PUSH2 0x275 PUSH2 0x220 CALLDATASIZE PUSH1 0x4 PUSH2 0x25B3 JUMP JUMPDEST PUSH1 0x4 PUSH1 0x20 DUP2 SWAP1 MSTORE PUSH1 0x0 SWAP2 DUP3 MSTORE PUSH1 0x40 SWAP1 SWAP2 KECCAK256 DUP1 SLOAD PUSH1 0x1 DUP3 ADD SLOAD PUSH1 0x3 DUP4 ADD SLOAD SWAP4 DUP4 ADD SLOAD PUSH1 0x5 DUP5 ADD SLOAD PUSH1 0x6 DUP6 ADD SLOAD PUSH1 0x7 SWAP1 SWAP6 ADD SLOAD SWAP4 SWAP6 PUSH1 0xFF SWAP4 DUP5 AND SWAP6 SWAP1 SWAP5 SWAP3 SWAP4 PUSH1 0x1 PUSH1 0x1 PUSH1 0xA0 SHL SUB DUP4 AND SWAP4 PUSH1 0x1 PUSH1 0xA0 SHL SWAP1 SWAP4 DIV AND SWAP2 DUP9 JUMP JUMPDEST PUSH1 0x40 MLOAD PUSH2 0x1FC SWAP9 SWAP8 SWAP7 SWAP6 SWAP5 SWAP4 SWAP3 SWAP2 SWAP1 PUSH2 0x2604 JUMP JUMPDEST CALLVALUE DUP1 ISZERO PUSH2 0x295 JUMPI PUSH1 0x0 DUP1 REVERT JUMPDEST POP PUSH2 0x1F2 PUSH2 0x2A4 CALLDATASIZE PUSH1 0x4 PUSH2 0x2653 JUMP JUMPDEST PUSH2 0x888 JUMP JUMPDEST CALLVALUE DUP1 ISZERO PUSH2 0x2B5 JUMPI PUSH1 0x0 DUP1 REVERT JUMPDEST POP PUSH2 0x1F2 PUSH1 0x9 SLOAD DUP2 JUMP JUMPDEST CALLVALUE DUP1 ISZERO PUSH2 0x2CB JUMPI PUSH1 0x0 DUP1 REVERT JUMPDEST POP PUSH2 0x1F2 PUSH1 0x8 SLOAD DUP2 JUMP JUMPDEST CALLVALUE DUP1 ISZERO PUSH2 0x2E1 JUMPI PUSH1 0x0 DUP1 REVERT JUMPDEST POP PUSH2 0x1F2 PUSH1 0x2 SLOAD DUP2 JUMP JUMPDEST CALLVALUE DUP1 ISZERO PUSH2 0x2F7 JUMPI PUSH1 0x0 DUP1 REVERT JUMPDEST POP PUSH2 0x1F2 PUSH2 0x306 CALLDATASIZE PUSH1 0x4 PUSH2 0x2598 JUMP JUMPDEST PUSH2 0x8C6 JUMP JUMPDEST PUSH2 0x31E PUSH2 0x319 CALLDATASIZE PUSH1 0x4 PUSH2 0x26B3 JUMP JUMPDEST PUSH2 0x94C JUMP JUMPDEST STOP JUMPDEST CALLVALUE DUP1 ISZERO PUSH2 0x32C JUMPI PUSH1 0x0 DUP1 REVERT JUMPDEST POP PUSH2 0x340 PUSH2 0x33B CALLDATASIZE PUSH1 0x4 PUSH2 0x2775 JUMP JUMPDEST PUSH2 0x96B JUMP JUMPDEST PUSH1 0x40 DUP1 MLOAD SWAP4 DUP5 MSTORE PUSH1 0x20 DUP5 ADD SWAP3 SWAP1 SWAP3 MSTORE SWAP1 DUP3 ADD MSTORE PUSH1 0x60 ADD PUSH2 0x1FC JUMP JUMPDEST CALLVALUE DUP1 ISZERO PUSH2 0x367 JUMPI PUSH1 0x0 DUP1 REVERT JUMPDEST POP PUSH2 0x1F2 PUSH2 0xB72 JUMP JUMPDEST CALLVALUE DUP1 ISZERO PUSH2 0x37C JUMPI PUSH1 0x0 DUP1 REVERT JUMPDEST POP PUSH2 0x1F2 PUSH1 0x7 SLOAD DUP2 JUMP JUMPDEST CALLVALUE DUP1 ISZERO PUSH2 0x392 JUMPI PUSH1 0x0 DUP1 REVERT JUMPDEST POP PUSH2 0x464 PUSH2 0x3A1 CALLDATASIZE PUSH1 0x4 PUSH2 0x25B3 JUMP JUMPDEST PUSH1 0x40 DUP1 MLOAD PUSH2 0x100 DUP2 ADD DUP3 MSTORE PUSH1 0x0 DUP1 DUP3 MSTORE PUSH1 0x20 DUP3 ADD DUP2 SWAP1 MSTORE SWAP2 DUP2 ADD DUP3 SWAP1 MSTORE PUSH1 0x60 DUP2 ADD DUP3 SWAP1 MSTORE PUSH1 0x80 DUP2 ADD DUP3 SWAP1 MSTORE PUSH1 0xA0 DUP2 ADD DUP3 SWAP1 MSTORE PUSH1 0xC0 DUP2 ADD DUP3 SWAP1 MSTORE PUSH1 0xE0 DUP2 ADD SWAP2 SWAP1 SWAP2 MSTORE POP PUSH1 0x0 SWAP1 DUP2 MSTORE PUSH1 0x3 PUSH1 0x20 DUP2 DUP2 MSTORE PUSH1 0x40 SWAP3 DUP4 SWAP1 KECCAK256 DUP4 MLOAD PUSH2 0x100 DUP2 ADD DUP6 MSTORE DUP2 SLOAD DUP2 MSTORE PUSH1 0x1 DUP3 ADD SLOAD PUSH1 0x1 PUSH1 0x1 PUSH1 0xA0 SHL SUB SWAP1 DUP2 AND SWAP4 DUP3 ADD SWAP4 SWAP1 SWAP4 MSTORE PUSH1 0x2 DUP3 ADD SLOAD DUP4 AND SWAP5 DUP2 ADD SWAP5 SWAP1 SWAP5 MSTORE SWAP2 DUP3 ADD SLOAD PUSH1 0x60 DUP5 ADD MSTORE PUSH1 0x4 DUP3 ADD SLOAD PUSH1 0x80 DUP5 ADD MSTORE PUSH1 0x5 DUP3 ADD SLOAD SWAP1 DUP2 AND PUSH1 0xA0 DUP5 ADD MSTORE PUSH1 0x1 PUSH1 0xA0 SHL SWAP1 DIV PUSH1 0xFF AND ISZERO ISZERO PUSH1 0xC0 DUP4 ADD MSTORE PUSH1 0x6 ADD SLOAD PUSH1 0xE0 DUP3 ADD MSTORE SWAP1 JUMP JUMPDEST PUSH1 0x40 MLOAD PUSH2 0x1FC SWAP2 SWAP1 PUSH1 0x0 PUSH2 0x100 DUP3 ADD SWAP1 POP DUP3 MLOAD DUP3 MSTORE PUSH1 0x20 DUP4 ADD MLOAD PUSH1 0x1 DUP1 PUSH1 0xA0 SHL SUB DUP1 DUP3 AND PUSH1 0x20 DUP6 ADD MSTORE DUP1 PUSH1 0x40 DUP7 ADD MLOAD AND PUSH1 0x40 DUP6 ADD MSTORE PUSH1 0x60 DUP6 ADD MLOAD PUSH1 0x60 DUP6 ADD MSTORE PUSH1 0x80 DUP6 ADD MLOAD PUSH1 0x80 DUP6 ADD MSTORE DUP1 PUSH1 0xA0 DUP7 ADD MLOAD AND PUSH1 0xA0 DUP6 ADD MSTORE POP POP PUSH1 0xC0 DUP4 ADD MLOAD ISZERO ISZERO PUSH1 0xC0 DUP4 ADD MSTORE PUSH1 0xE0 DUP4 ADD MLOAD PUSH1 0xE0 DUP4 ADD MSTORE SWAP3 SWAP2 POP POP JUMP JUMPDEST CALLVALUE DUP1 ISZERO PUSH2 0x4E3 JUMPI PUSH1 0x0 DUP1 REVERT JUMPDEST POP PUSH2 0x1F2 PUSH1 0x0 SLOAD DUP2 JUMP JUMPDEST CALLVALUE DUP1 ISZERO PUSH2 0x4F9 JUMPI PUSH1 0x0 DUP1 REVERT JUMPDEST POP PUSH2 0x31E PUSH2 0xB8F JUMP JUMPDEST CALLVALUE DUP1 ISZERO PUSH2 0x50E JUMPI PUSH1 0x0 DUP1 REVERT JUMPDEST POP PUSH2 0x31E PUSH2 0xCA2 JUMP JUMPDEST CALLVALUE DUP1 ISZERO PUSH2 0x523 JUMPI PUSH1 0x0 DUP1 REVERT JUMPDEST POP PUSH2 0x570 PUSH2 0x532 CALLDATASIZE PUSH1 0x4 PUSH2 0x25B3 JUMP JUMPDEST PUSH1 0x5 PUSH1 0x20 MSTORE PUSH1 0x0 SWAP1 DUP2 MSTORE PUSH1 0x40 SWAP1 KECCAK256 DUP1 SLOAD PUSH1 0x1 DUP3 ADD SLOAD PUSH1 0x2 DUP4 ADD SLOAD PUSH1 0x3 DUP5 ADD SLOAD PUSH1 0x4 SWAP1 SWAP5 ADD SLOAD PUSH1 0x1 PUSH1 0x1 PUSH1 0xA0 SHL SUB SWAP1 SWAP4 AND SWAP4 SWAP2 SWAP3 PUSH1 0xFF SWAP2 DUP3 AND SWAP3 SWAP2 AND DUP6 JUMP JUMPDEST PUSH1 0x40 MLOAD PUSH2 0x1FC SWAP6 SWAP5 SWAP4 SWAP3 SWAP2 SWAP1 PUSH2 0x2790 JUMP JUMPDEST CALLVALUE DUP1 ISZERO PUSH2 0x58D JUMPI PUSH1 0x0 DUP1 REVERT JUMPDEST POP PUSH2 0x31E PUSH2 0xCB6 JUMP JUMPDEST CALLVALUE DUP1 ISZERO PUSH2 0x5A2 JUMPI PUSH1 0x0 DUP1 REVERT JUMPDEST POP PUSH2 0x60B PUSH2 0x5B1 CALLDATASIZE PUSH1 0x4 PUSH2 0x25B3 JUMP JUMPDEST PUSH1 0x3 PUSH1 0x20 DUP2 SWAP1 MSTORE PUSH1 0x0 SWAP2 DUP3 MSTORE PUSH1 0x40 SWAP1 SWAP2 KECCAK256 DUP1 SLOAD PUSH1 0x1 DUP3 ADD SLOAD PUSH1 0x2 DUP4 ADD SLOAD SWAP4 DUP4 ADD SLOAD PUSH1 0x4 DUP5 ADD SLOAD PUSH1 0x5 DUP6 ADD SLOAD PUSH1 0x6 SWAP1 SWAP6 ADD SLOAD SWAP4 SWAP6 PUSH1 0x1 PUSH1 0x1 PUSH1 0xA0 SHL SUB SWAP4 DUP5 AND SWAP6 SWAP1 DUP5 AND SWAP5 SWAP3 SWAP4 SWAP2 SWAP3 SWAP2 DUP2 AND SWAP2 PUSH1 0x1 PUSH1 0xA0 SHL SWAP1 SWAP2 DIV PUSH1 0xFF AND SWAP1 DUP9 JUMP JUMPDEST PUSH1 0x40 DUP1 MLOAD SWAP9 DUP10 MSTORE PUSH1 0x1 PUSH1 0x1 PUSH1 0xA0 SHL SUB SWAP8 DUP9 AND PUSH1 0x20 DUP11 ADD MSTORE SWAP6 DUP8 AND SWAP6 DUP9 ADD SWAP6 SWAP1 SWAP6 MSTORE PUSH1 0x60 DUP8 ADD SWAP4 SWAP1 SWAP4 MSTORE PUSH1 0x80 DUP7 ADD SWAP2 SWAP1 SWAP2 MSTORE SWAP1 SWAP3 AND PUSH1 0xA0 DUP5 ADD MSTORE SWAP1 ISZERO ISZERO PUSH1 0xC0 DUP4 ADD MSTORE PUSH1 0xE0 DUP3 ADD MSTORE PUSH2 0x100 ADD PUSH2 0x1FC JUMP JUMPDEST CALLVALUE DUP1 ISZERO PUSH2 0x666 JUMPI PUSH1 0x0 DUP1 REVERT JUMPDEST POP PUSH2 0x66F PUSH2 0xE16 JUMP JUMPDEST PUSH1 0x40 MLOAD PUSH1 0x1 PUSH1 0x1 PUSH1 0xA0 SHL SUB SWAP1 SWAP2 AND DUP2 MSTORE PUSH1 0x20 ADD PUSH2 0x1FC JUMP JUMPDEST CALLVALUE DUP1 ISZERO PUSH2 0x693 JUMPI PUSH1 0x0 DUP1 REVERT JUMPDEST POP PUSH2 0x1F2 PUSH2 0x6A2 CALLDATASIZE PUSH1 0x4 PUSH2 0x25B3 JUMP JUMPDEST PUSH2 0xE44 JUMP JUMPDEST CALLVALUE DUP1 ISZERO PUSH2 0x6B3 JUMPI PUSH1 0x0 DUP1 REVERT JUMPDEST POP PUSH2 0x6BC PUSH2 0xE65 JUMP JUMPDEST PUSH1 0x40 MLOAD PUSH2 0x1FC SWAP2 SWAP1 PUSH2 0x27CC JUMP JUMPDEST CALLVALUE DUP1 ISZERO PUSH2 0x6D5 JUMPI PUSH1 0x0 DUP1 REVERT JUMPDEST POP PUSH2 0x1F2 PUSH1 0x1 SLOAD DUP2 JUMP JUMPDEST CALLVALUE DUP1 ISZERO PUSH2 0x6EB JUMPI PUSH1 0x0 DUP1 REVERT JUMPDEST POP PUSH2 0x1F2 PUSH1 0xA DUP2 JUMP JUMPDEST CALLVALUE DUP1 ISZERO PUSH2 0x700 JUMPI PUSH1 0x0 DUP1 REVERT JUMPDEST POP PUSH2 0x725 PUSH1 0x40 MLOAD DUP1 PUSH1 0x40 ADD PUSH1 0x40 MSTORE DUP1 PUSH1 0x5 DUP2 MSTORE PUSH1 0x20 ADD PUSH5 0x352E302E3 PUSH1 0xDC SHL DUP2 MSTORE POP DUP2 JUMP JUMPDEST PUSH1 0x40 MLOAD PUSH2 0x1FC SWAP2 SWAP1 PUSH2 0x2834 JUMP JUMPDEST PUSH2 0x31E PUSH2 0x740 CALLDATASIZE PUSH1 0x4 PUSH2 0x2598 JUMP JUMPDEST PUSH2 0xEBD JUMP JUMPDEST CALLVALUE DUP1 ISZERO PUSH2 0x751 JUMPI PUSH1 0x0 DUP1 REVERT JUMPDEST POP PUSH2 0x31E PUSH2 0xFE3 JUMP JUMPDEST CALLVALUE DUP1 ISZERO PUSH2 0x766 JUMPI PUSH1 0x0 DUP1 REVERT JUMPDEST POP PUSH2 0x77A PUSH2 0x775 CALLDATASIZE PUSH1 0x4 PUSH2 0x25B3 JUMP JUMPDEST PUSH2 0x102B JUMP JUMPDEST PUSH1 0x40 MLOAD PUSH2 0x1FC SWAP2 SWAP1 PUSH2 0x28AC JUMP JUMPDEST CALLVALUE DUP1 ISZERO PUSH2 0x793 JUMPI PUSH1 0x0 DUP1 REVERT JUMPDEST POP PUSH2 0x7A7 PUSH2 0x7A2 CALLDATASIZE PUSH1 0x4 PUSH2 0x25B3 JUMP JUMPDEST PUSH2 0x118F JUMP JUMPDEST PUSH1 0x40 MLOAD SWAP1 ISZERO ISZERO DUP2 MSTORE PUSH1 0x20 ADD PUSH2 0x1FC JUMP JUMPDEST CALLVALUE DUP1 ISZERO PUSH2 0x7C3 JUMPI PUSH1 0x0 DUP1 REVERT JUMPDEST POP PUSH2 0x31E PUSH2 0x7D2 CALLDATASIZE PUSH1 0x4 PUSH2 0x2775 JUMP JUMPDEST PUSH2 0x11DB JUMP JUMPDEST CALLVALUE DUP1 ISZERO PUSH2 0x7E3 JUMPI PUSH1 0x0 DUP1 REVERT JUMPDEST POP PUSH2 0x1F2 PUSH2 0x7F2 CALLDATASIZE PUSH1 0x4 PUSH2 0x2947 JUMP JUMPDEST PUSH2 0x1216 JUMP JUMPDEST PUSH1 0x0 DUP1 DUP3 PUSH1 0x3 DUP2 GT ISZERO PUSH2 0x80C JUMPI PUSH2 0x80C PUSH2 0x25CC JUMP JUMPDEST SUB PUSH2 0x819 JUMPI POP PUSH1 0xB4 SWAP2 SWAP1 POP JUMP JUMPDEST PUSH1 0x1 DUP3 PUSH1 0x3 DUP2 GT ISZERO PUSH2 0x82D JUMPI PUSH2 0x82D PUSH2 0x25CC JUMP JUMPDEST SUB PUSH2 0x83B JUMPI POP PUSH2 0x1C2 SWAP2 SWAP1 POP JUMP JUMPDEST PUSH1 0x2 DUP3 PUSH1 0x3 DUP2 GT ISZERO PUSH2 0x84F JUMPI PUSH2 0x84F PUSH2 0x25CC JUMP JUMPDEST SUB PUSH2 0x85D JUMPI POP PUSH2 0x2328 SWAP2 SWAP1 POP JUMP JUMPDEST PUSH1 0x3 DUP3 PUSH1 0x3 DUP2 GT ISZERO PUSH2 0x871 JUMPI PUSH2 0x871 PUSH2 0x25CC JUMP JUMPDEST SUB PUSH2 0x880 JUMPI POP PUSH3 0x15F90 SWAP2 SWAP1 POP JUMP JUMPDEST POP PUSH1 0x0 SWAP2 SWAP1 POP JUMP JUMPDEST PUSH1 0x6 PUSH1 0x20 MSTORE DUP3 PUSH1 0x0 MSTORE PUSH1 0x40 PUSH1 0x0 KECCAK256 PUSH1 0x20 MSTORE DUP2 PUSH1 0x0 MSTORE PUSH1 0x40 PUSH1 0x0 KECCAK256 DUP2 DUP2 SLOAD DUP2 LT PUSH2 0x8B0 JUMPI PUSH1 0x0 DUP1 REVERT JUMPDEST SWAP1 PUSH1 0x0 MSTORE PUSH1 0x20 PUSH1 0x0 KECCAK256 ADD PUSH1 0x0 SWAP3 POP SWAP3 POP POP POP SLOAD DUP2 JUMP JUMPDEST PUSH1 0x0 DUP1 DUP3 PUSH1 0x3 DUP2 GT ISZERO PUSH2 0x8DB JUMPI PUSH2 0x8DB PUSH2 0x25CC JUMP JUMPDEST SUB PUSH2 0x8E8 JUMPI POP PUSH1 0x2 SWAP2 SWAP1 POP JUMP JUMPDEST PUSH1 0x1 DUP3 PUSH1 0x3 DUP2 GT ISZERO PUSH2 0x8FC JUMPI PUSH2 0x8FC PUSH2 0x25CC JUMP JUMPDEST SUB PUSH2 0x909 JUMPI POP PUSH1 0x5 SWAP2 SWAP1 POP JUMP JUMPDEST PUSH1 0x2 DUP3 PUSH1 0x3 DUP2 GT ISZERO PUSH2 0x91D JUMPI PUSH2 0x91D PUSH2 0x25CC JUMP JUMPDEST SUB PUSH2 0x92A JUMPI POP PUSH1 0x64 SWAP2 SWAP1 POP JUMP JUMPDEST PUSH1 0x3 DUP3 PUSH1 0x3 DUP2 GT ISZERO PUSH2 0x93E JUMPI PUSH2 0x93E PUSH2 0x25CC JUMP JUMPDEST SUB PUSH2 0x880 JUMPI POP PUSH2 0x3E8 SWAP2 SWAP1 POP JUMP JUMPDEST PUSH2 0x954 PUSH2 0x12CC JUMP JUMPDEST PUSH2 0x95D DUP3 PUSH2 0x1371 JUMP JUMPDEST PUSH2 0x967 DUP3 DUP3 PUSH2 0x1379 JUMP JUMPDEST POP POP JUMP JUMPDEST PUSH1 0x0 DUP1 DUP1 PUSH1 0x1 JUMPDEST PUSH1 0x7 SLOAD DUP2 LT ISZERO PUSH2 0xA65 JUMPI PUSH1 0x0 DUP2 DUP2 MSTORE PUSH1 0x3 PUSH1 0x20 MSTORE PUSH1 0x40 SWAP1 KECCAK256 PUSH1 0x1 ADD SLOAD PUSH1 0x1 PUSH1 0x1 PUSH1 0xA0 SHL SUB DUP7 DUP2 AND SWAP2 AND EQ DUP1 PUSH2 0x9C3 JUMPI POP PUSH1 0x0 DUP2 DUP2 MSTORE PUSH1 0x3 PUSH1 0x20 MSTORE PUSH1 0x40 SWAP1 KECCAK256 PUSH1 0x2 ADD SLOAD PUSH1 0x1 PUSH1 0x1 PUSH1 0xA0 SHL SUB DUP7 DUP2 AND SWAP2 AND EQ JUMPDEST ISZERO PUSH2 0xA5D JUMPI DUP4 PUSH2 0x9D2 DUP2 PUSH2 0x2987 JUMP JUMPDEST PUSH1 0x0 DUP4 DUP2 MSTORE PUSH1 0x3 PUSH1 0x20 MSTORE PUSH1 0x40 SWAP1 KECCAK256 PUSH1 0x5 ADD SLOAD SWAP1 SWAP6 POP PUSH1 0x1 PUSH1 0x1 PUSH1 0xA0 SHL SUB DUP1 DUP9 AND SWAP2 AND SUB SWAP1 POP PUSH2 0xA5D JUMPI DUP3 PUSH2 0xA05 DUP2 PUSH2 0x2987 JUMP JUMPDEST PUSH1 0x0 DUP4 DUP2 MSTORE PUSH1 0x3 PUSH1 0x20 DUP2 SWAP1 MSTORE PUSH1 0x40 DUP3 KECCAK256 ADD SLOAD SWAP2 SWAP6 POP SWAP2 POP PUSH2 0xA27 SWAP1 PUSH1 0x2 PUSH2 0x29A0 JUMP JUMPDEST SWAP1 POP PUSH1 0x0 PUSH1 0x64 PUSH2 0xA38 PUSH1 0xA DUP5 PUSH2 0x29A0 JUMP JUMPDEST PUSH2 0xA42 SWAP2 SWAP1 PUSH2 0x29CD JUMP JUMPDEST SWAP1 POP PUSH2 0xA4E DUP2 DUP4 PUSH2 0x29E1 JUMP JUMPDEST PUSH2 0xA58 SWAP1 DUP6 PUSH2 0x29F4 JUMP JUMPDEST SWAP4 POP POP POP JUMPDEST PUSH1 0x1 ADD PUSH2 0x972 JUMP JUMPDEST POP PUSH1 0x1 JUMPDEST PUSH1 0x8 SLOAD DUP2 LT ISZERO PUSH2 0xB6A JUMPI PUSH1 0x0 DUP2 DUP2 MSTORE PUSH1 0x4 PUSH1 0x20 MSTORE PUSH1 0x40 DUP2 KECCAK256 SWAP1 DUP1 JUMPDEST PUSH1 0x2 DUP4 ADD SLOAD DUP2 LT ISZERO PUSH2 0xADA JUMPI DUP8 PUSH1 0x1 PUSH1 0x1 PUSH1 0xA0 SHL SUB AND DUP4 PUSH1 0x2 ADD DUP3 DUP2 SLOAD DUP2 LT PUSH2 0xAAF JUMPI PUSH2 0xAAF PUSH2 0x2A07 JUMP JUMPDEST PUSH1 0x0 SWAP2 DUP3 MSTORE PUSH1 0x20 SWAP1 SWAP2 KECCAK256 ADD SLOAD PUSH1 0x1 PUSH1 0x1 PUSH1 0xA0 SHL SUB AND SUB PUSH2 0xAD2 JUMPI PUSH1 0x1 SWAP2 POP PUSH2 0xADA JUMP JUMPDEST PUSH1 0x1 ADD PUSH2 0xA84 JUMP JUMPDEST POP DUP1 ISZERO PUSH2 0xB60 JUMPI DUP6 PUSH2 0xAEB DUP2 PUSH2 0x2987 JUMP JUMPDEST PUSH1 0x5 DUP5 ADD SLOAD SWAP1 SWAP8 POP PUSH1 0x1 PUSH1 0x1 PUSH1 0xA0 SHL SUB DUP1 DUP11 AND SWAP2 AND SUB SWAP1 POP PUSH2 0xB60 JUMPI DUP5 PUSH2 0xB11 DUP2 PUSH2 0x2987 JUMP JUMPDEST SWAP6 POP POP PUSH1 0x0 DUP3 PUSH1 0x7 ADD SLOAD DUP4 PUSH1 0x3 ADD SLOAD PUSH2 0xB2A SWAP2 SWAP1 PUSH2 0x29A0 JUMP JUMPDEST SWAP1 POP PUSH1 0x0 PUSH1 0x64 PUSH2 0xB3B PUSH1 0xA DUP5 PUSH2 0x29A0 JUMP JUMPDEST PUSH2 0xB45 SWAP2 SWAP1 PUSH2 0x29CD JUMP JUMPDEST SWAP1 POP PUSH2 0xB51 DUP2 DUP4 PUSH2 0x29E1 JUMP JUMPDEST PUSH2 0xB5B SWAP1 DUP8 PUSH2 0x29F4 JUMP JUMPDEST SWAP6 POP POP POP JUMPDEST POP POP PUSH1 0x1 ADD PUSH2 0xA69 JUMP JUMPDEST POP SWAP2 SWAP4 SWAP1 SWAP3 POP JUMP JUMPDEST PUSH1 0x0 PUSH2 0xB7C PUSH2 0x143B JUMP JUMPDEST POP PUSH1 0x0 DUP1 MLOAD PUSH1 0x20 PUSH2 0x2AE8 DUP4 CODECOPY DUP2 MLOAD SWAP2 MSTORE SWAP1 JUMP JUMPDEST PUSH1 0x1 JUMPDEST PUSH1 0x9 SLOAD DUP2 LT ISZERO PUSH2 0xC54 JUMPI PUSH1 0x0 DUP2 DUP2 MSTORE PUSH1 0x5 PUSH1 0x20 MSTORE PUSH1 0x40 SWAP1 KECCAK256 SLOAD PUSH1 0x1 PUSH1 0x1 PUSH1 0xA0 SHL SUB AND CALLER EQ DUP1 ISZERO PUSH2 0xBD3 JUMPI POP PUSH1 0x0 DUP2 DUP2 MSTORE PUSH1 0x5 PUSH1 0x20 MSTORE PUSH1 0x40 SWAP1 KECCAK256 PUSH1 0x4 ADD SLOAD PUSH1 0xFF AND JUMPDEST ISZERO PUSH2 0xC4C JUMPI PUSH1 0x0 DUP2 DUP2 MSTORE PUSH1 0x5 PUSH1 0x20 MSTORE PUSH1 0x40 DUP1 DUP3 KECCAK256 PUSH1 0x4 DUP2 ADD DUP1 SLOAD PUSH1 0xFF NOT AND SWAP1 SSTORE PUSH1 0x1 ADD SLOAD SWAP1 MLOAD CALLER SWAP3 DUP3 ISZERO PUSH2 0x8FC MUL SWAP3 SWAP2 SWAP1 DUP2 DUP2 DUP2 DUP6 DUP9 DUP9 CALL SWAP4 POP POP POP POP ISZERO DUP1 ISZERO PUSH2 0xC21 JUMPI RETURNDATASIZE PUSH1 0x0 DUP1 RETURNDATACOPY RETURNDATASIZE PUSH1 0x0 REVERT JUMPDEST POP PUSH1 0x0 DUP2 DUP2 MSTORE PUSH1 0x5 PUSH1 0x20 MSTORE PUSH1 0x40 SWAP1 KECCAK256 PUSH1 0x2 DUP2 ADD SLOAD PUSH1 0x1 SWAP1 SWAP2 ADD SLOAD PUSH2 0xC49 SWAP2 PUSH1 0xFF AND SWAP1 DUP4 PUSH2 0x1484 JUMP JUMPDEST POP JUMP JUMPDEST PUSH1 0x1 ADD PUSH2 0xB92 JUMP JUMPDEST POP PUSH1 0x40 MLOAD PUSH3 0x461BCD PUSH1 0xE5 SHL DUP2 MSTORE PUSH1 0x20 PUSH1 0x4 DUP3 ADD MSTORE PUSH1 0x17 PUSH1 0x24 DUP3 ADD MSTORE PUSH32 0x4E6F206163746976652077616974696E6720666F756E64000000000000000000 PUSH1 0x44 DUP3 ADD MSTORE PUSH1 0x64 ADD JUMPDEST PUSH1 0x40 MLOAD DUP1 SWAP2 SUB SWAP1 REVERT JUMPDEST PUSH2 0xCAA PUSH2 0x157B JUMP JUMPDEST PUSH2 0xCB4 PUSH1 0x0 PUSH2 0x15AD JUMP JUMPDEST JUMP JUMPDEST PUSH1 0x0 PUSH2 0xCC0 PUSH2 0x161E JUMP JUMPDEST DUP1 SLOAD SWAP1 SWAP2 POP PUSH1 0xFF PUSH1 0x1 PUSH1 0x40 SHL DUP3 DIV AND ISZERO SWAP1 PUSH8 0xFFFFFFFFFFFFFFFF AND PUSH1 0x0 DUP2 ISZERO DUP1 ISZERO PUSH2 0xCE8 JUMPI POP DUP3 JUMPDEST SWAP1 POP PUSH1 0x0 DUP3 PUSH8 0xFFFFFFFFFFFFFFFF AND PUSH1 0x1 EQ DUP1 ISZERO PUSH2 0xD05 JUMPI POP ADDRESS EXTCODESIZE ISZERO JUMPDEST SWAP1 POP DUP2 ISZERO DUP1 ISZERO PUSH2 0xD13 JUMPI POP DUP1 ISZERO JUMPDEST ISZERO PUSH2 0xD31 JUMPI PUSH1 0x40 MLOAD PUSH4 0xF92EE8A9 PUSH1 0xE0 SHL DUP2 MSTORE PUSH1 0x4 ADD PUSH1 0x40 MLOAD DUP1 SWAP2 SUB SWAP1 REVERT JUMPDEST DUP5 SLOAD PUSH8 0xFFFFFFFFFFFFFFFF NOT AND PUSH1 0x1 OR DUP6 SSTORE DUP4 ISZERO PUSH2 0xD5B JUMPI DUP5 SLOAD PUSH1 0xFF PUSH1 0x40 SHL NOT AND PUSH1 0x1 PUSH1 0x40 SHL OR DUP6 SSTORE JUMPDEST PUSH2 0xD64 CALLER PUSH2 0x1647 JUMP JUMPDEST PUSH2 0xD6C PUSH2 0x1658 JUMP JUMPDEST PUSH1 0x1 PUSH1 0x7 DUP2 SWAP1 SSTORE PUSH1 0x8 DUP2 SWAP1 SSTORE PUSH1 0x9 SSTORE TIMESTAMP PUSH1 0x2 SSTORE PUSH1 0x40 DUP1 MLOAD PUSH1 0x80 DUP2 ADD DUP3 MSTORE PUSH6 0x9184E72A000 DUP2 MSTORE PUSH6 0x5AF3107A4000 PUSH1 0x20 DUP3 ADD MSTORE PUSH7 0x38D7EA4C68000 SWAP2 DUP2 ADD SWAP2 SWAP1 SWAP2 MSTORE PUSH7 0x2386F26FC10000 PUSH1 0x60 DUP3 ADD MSTORE PUSH2 0xDC8 SWAP1 PUSH1 0xA SWAP1 PUSH1 0x4 PUSH2 0x24A6 JUMP JUMPDEST POP DUP4 ISZERO PUSH2 0xE0F JUMPI DUP5 SLOAD PUSH1 0xFF PUSH1 0x40 SHL NOT AND DUP6 SSTORE PUSH1 0x40 MLOAD PUSH1 0x1 DUP2 MSTORE PUSH32 0xC7F505B2F371AE2175EE4913F4499E1F2633A7B5936321EED1CDAEB6115181D2 SWAP1 PUSH1 0x20 ADD PUSH1 0x40 MLOAD DUP1 SWAP2 SUB SWAP1 LOG1 JUMPDEST POP POP POP POP POP JUMP JUMPDEST PUSH32 0x9016D09D72D40FDAE2FD8CEAC6B6234C7706214FD39C1CD1E609A0528C199300 SLOAD PUSH1 0x1 PUSH1 0x1 PUSH1 0xA0 SHL SUB AND SWAP1 JUMP JUMPDEST PUSH1 0xA DUP2 DUP2 SLOAD DUP2 LT PUSH2 0xE54 JUMPI PUSH1 0x0 DUP1 REVERT JUMPDEST PUSH1 0x0 SWAP2 DUP3 MSTORE PUSH1 0x20 SWAP1 SWAP2 KECCAK256 ADD SLOAD SWAP1 POP DUP2 JUMP JUMPDEST PUSH1 0x60 PUSH1 0xA DUP1 SLOAD DUP1 PUSH1 0x20 MUL PUSH1 0x20 ADD PUSH1 0x40 MLOAD SWAP1 DUP2 ADD PUSH1 0x40 MSTORE DUP1 SWAP3 SWAP2 SWAP1 DUP2 DUP2 MSTORE PUSH1 0x20 ADD DUP3 DUP1 SLOAD DUP1 ISZERO PUSH2 0xEB3 JUMPI PUSH1 0x20 MUL DUP3 ADD SWAP2 SWAP1 PUSH1 0x0 MSTORE PUSH1 0x20 PUSH1 0x0 KECCAK256 SWAP1 JUMPDEST DUP2 SLOAD DUP2 MSTORE PUSH1 0x20 ADD SWAP1 PUSH1 0x1 ADD SWAP1 DUP1 DUP4 GT PUSH2 0xE9F JUMPI JUMPDEST POP POP POP POP POP SWAP1 POP SWAP1 JUMP JUMPDEST PUSH2 0xEC6 CALLVALUE PUSH2 0x118F JUMP JUMPDEST PUSH2 0xF07 JUMPI PUSH1 0x40 MLOAD PUSH3 0x461BCD PUSH1 0xE5 SHL DUP2 MSTORE PUSH1 0x20 PUSH1 0x4 DUP3 ADD MSTORE PUSH1 0x12 PUSH1 0x24 DUP3 ADD MSTORE PUSH18 0x125B9D985B1A590818995D08185B5BDD5B9D PUSH1 0x72 SHL PUSH1 0x44 DUP3 ADD MSTORE PUSH1 0x64 ADD PUSH2 0xC99 JUMP JUMPDEST PUSH1 0x0 CALLVALUE GT PUSH2 0xF47 JUMPI PUSH1 0x40 MLOAD PUSH3 0x461BCD PUSH1 0xE5 SHL DUP2 MSTORE PUSH1 0x20 PUSH1 0x4 DUP3 ADD MSTORE PUSH1 0xD PUSH1 0x24 DUP3 ADD MSTORE PUSH13 0x9AEAE6E840E6CADCC8408AA89 PUSH1 0x9B SHL PUSH1 0x44 DUP3 ADD MSTORE PUSH1 0x64 ADD PUSH2 0xC99 JUMP JUMPDEST PUSH1 0x0 DUP2 PUSH1 0x3 DUP2 GT ISZERO PUSH2 0xF5B JUMPI PUSH2 0xF5B PUSH2 0x25CC JUMP JUMPDEST EQ ISZERO DUP1 PUSH2 0xF79 JUMPI POP PUSH1 0x0 DUP2 PUSH1 0x3 DUP2 GT ISZERO PUSH2 0xF77 JUMPI PUSH2 0xF77 PUSH2 0x25CC JUMP JUMPDEST EQ JUMPDEST PUSH2 0xFB9 JUMPI PUSH1 0x40 MLOAD PUSH3 0x461BCD PUSH1 0xE5 SHL DUP2 MSTORE PUSH1 0x20 PUSH1 0x4 DUP3 ADD MSTORE PUSH1 0x11 PUSH1 0x24 DUP3 ADD MSTORE PUSH17 0x496E76616C69642067616D65206D6F6465 PUSH1 0x78 SHL PUSH1 0x44 DUP3 ADD MSTORE PUSH1 0x64 ADD PUSH2 0xC99 JUMP JUMPDEST PUSH1 0x0 DUP2 PUSH1 0x3 DUP2 GT ISZERO PUSH2 0xFCD JUMPI PUSH2 0xFCD PUSH2 0x25CC JUMP JUMPDEST SUB PUSH2 0xFDA JUMPI PUSH2 0xC49 PUSH2 0x1660 JUMP JUMPDEST PUSH2 0xC49 DUP2 PUSH2 0x16BC JUMP JUMPDEST PUSH2 0xFEB PUSH2 0x157B JUMP JUMPDEST PUSH2 0xFF3 PUSH2 0xE16 JUMP JUMPDEST PUSH1 0x1 PUSH1 0x1 PUSH1 0xA0 SHL SUB AND PUSH2 0x8FC SELFBALANCE SWAP1 DUP2 ISZERO MUL SWAP1 PUSH1 0x40 MLOAD PUSH1 0x0 PUSH1 0x40 MLOAD DUP1 DUP4 SUB DUP2 DUP6 DUP9 DUP9 CALL SWAP4 POP POP POP POP ISZERO DUP1 ISZERO PUSH2 0xC49 JUMPI RETURNDATASIZE PUSH1 0x0 DUP1 RETURNDATACOPY RETURNDATASIZE PUSH1 0x0 REVERT JUMPDEST PUSH2 0x1086 PUSH1 0x40 DUP1 MLOAD PUSH2 0x120 DUP2 ADD SWAP1 SWAP2 MSTORE PUSH1 0x0 DUP1 DUP3 MSTORE PUSH1 0x20 DUP3 ADD SWAP1 DUP2 MSTORE PUSH1 0x20 ADD PUSH1 0x60 DUP2 MSTORE PUSH1 0x20 ADD PUSH1 0x0 DUP2 MSTORE PUSH1 0x20 ADD PUSH1 0x0 DUP2 MSTORE PUSH1 0x20 ADD PUSH1 0x0 PUSH1 0x1 PUSH1 0x1 PUSH1 0xA0 SHL SUB AND DUP2 MSTORE PUSH1 0x20 ADD PUSH1 0x0 ISZERO ISZERO DUP2 MSTORE PUSH1 0x20 ADD PUSH1 0x0 DUP2 MSTORE PUSH1 0x20 ADD PUSH1 0x0 DUP2 MSTORE POP SWAP1 JUMP JUMPDEST PUSH1 0x0 DUP3 DUP2 MSTORE PUSH1 0x4 PUSH1 0x20 SWAP1 DUP2 MSTORE PUSH1 0x40 SWAP2 DUP3 SWAP1 KECCAK256 DUP3 MLOAD PUSH2 0x120 DUP2 ADD SWAP1 SWAP4 MSTORE DUP1 SLOAD DUP4 MSTORE PUSH1 0x1 DUP2 ADD SLOAD SWAP1 SWAP2 DUP4 ADD SWAP1 PUSH1 0xFF AND PUSH1 0x3 DUP2 GT ISZERO PUSH2 0x10C4 JUMPI PUSH2 0x10C4 PUSH2 0x25CC JUMP JUMPDEST PUSH1 0x3 DUP2 GT ISZERO PUSH2 0x10D5 JUMPI PUSH2 0x10D5 PUSH2 0x25CC JUMP JUMPDEST DUP2 MSTORE PUSH1 0x20 ADD PUSH1 0x2 DUP3 ADD DUP1 SLOAD DUP1 PUSH1 0x20 MUL PUSH1 0x20 ADD PUSH1 0x40 MLOAD SWAP1 DUP2 ADD PUSH1 0x40 MSTORE DUP1 SWAP3 SWAP2 SWAP1 DUP2 DUP2 MSTORE PUSH1 0x20 ADD DUP3 DUP1 SLOAD DUP1 ISZERO PUSH2 0x1132 JUMPI PUSH1 0x20 MUL DUP3 ADD SWAP2 SWAP1 PUSH1 0x0 MSTORE PUSH1 0x20 PUSH1 0x0 KECCAK256 SWAP1 JUMPDEST DUP2 SLOAD PUSH1 0x1 PUSH1 0x1 PUSH1 0xA0 SHL SUB AND DUP2 MSTORE PUSH1 0x1 SWAP1 SWAP2 ADD SWAP1 PUSH1 0x20 ADD DUP1 DUP4 GT PUSH2 0x1114 JUMPI JUMPDEST POP POP POP SWAP2 DUP4 MSTORE POP POP PUSH1 0x3 DUP3 ADD SLOAD PUSH1 0x20 DUP3 ADD MSTORE PUSH1 0x4 DUP3 ADD SLOAD PUSH1 0x40 DUP3 ADD MSTORE PUSH1 0x5 DUP3 ADD SLOAD PUSH1 0x1 PUSH1 0x1 PUSH1 0xA0 SHL SUB DUP2 AND PUSH1 0x60 DUP4 ADD MSTORE PUSH1 0x1 PUSH1 0xA0 SHL SWAP1 DIV PUSH1 0xFF AND ISZERO ISZERO PUSH1 0x80 DUP3 ADD MSTORE PUSH1 0x6 DUP3 ADD SLOAD PUSH1 0xA0 DUP3 ADD MSTORE PUSH1 0x7 SWAP1 SWAP2 ADD SLOAD PUSH1 0xC0 SWAP1 SWAP2 ADD MSTORE SWAP3 SWAP2 POP POP JUMP JUMPDEST PUSH1 0x0 DUP1 JUMPDEST PUSH1 0xA SLOAD DUP2 LT ISZERO PUSH2 0x11D2 JUMPI DUP3 PUSH1 0xA DUP3 DUP2 SLOAD DUP2 LT PUSH2 0x11B1 JUMPI PUSH2 0x11B1 PUSH2 0x2A07 JUMP JUMPDEST SWAP1 PUSH1 0x0 MSTORE PUSH1 0x20 PUSH1 0x0 KECCAK256 ADD SLOAD SUB PUSH2 0x11CA JUMPI POP PUSH1 0x1 SWAP3 SWAP2 POP POP JUMP JUMPDEST PUSH1 0x1 ADD PUSH2 0x1193 JUMP JUMPDEST POP PUSH1 0x0 SWAP3 SWAP2 POP POP JUMP JUMPDEST PUSH2 0x11E3 PUSH2 0x157B JUMP JUMPDEST PUSH1 0x1 PUSH1 0x1 PUSH1 0xA0 SHL SUB DUP2 AND PUSH2 0x120D JUMPI PUSH1 0x40 MLOAD PUSH4 0x1E4FBDF7 PUSH1 0xE0 SHL DUP2 MSTORE PUSH1 0x0 PUSH1 0x4 DUP3 ADD MSTORE PUSH1 0x24 ADD PUSH2 0xC99 JUMP JUMPDEST PUSH2 0xC49 DUP2 PUSH2 0x15AD JUMP JUMPDEST PUSH1 0x0 DUP1 DUP1 PUSH1 0x6 DUP2 DUP7 PUSH1 0x3 DUP2 GT ISZERO PUSH2 0x122F JUMPI PUSH2 0x122F PUSH2 0x25CC JUMP JUMPDEST PUSH1 0x3 DUP2 GT ISZERO PUSH2 0x1240 JUMPI PUSH2 0x1240 PUSH2 0x25CC JUMP JUMPDEST DUP2 MSTORE PUSH1 0x20 ADD SWAP1 DUP2 MSTORE PUSH1 0x20 ADD PUSH1 0x0 KECCAK256 PUSH1 0x0 DUP6 DUP2 MSTORE PUSH1 0x20 ADD SWAP1 DUP2 MSTORE PUSH1 0x20 ADD PUSH1 0x0 KECCAK256 SWAP1 POP PUSH1 0x0 JUMPDEST DUP2 SLOAD DUP2 LT ISZERO PUSH2 0x12C0 JUMPI PUSH1 0x5 PUSH1 0x0 DUP4 DUP4 DUP2 SLOAD DUP2 LT PUSH2 0x1283 JUMPI PUSH2 0x1283 PUSH2 0x2A07 JUMP JUMPDEST PUSH1 0x0 SWAP2 DUP3 MSTORE PUSH1 0x20 DUP1 DUP4 KECCAK256 SWAP1 SWAP2 ADD SLOAD DUP4 MSTORE DUP3 ADD SWAP3 SWAP1 SWAP3 MSTORE PUSH1 0x40 ADD SWAP1 KECCAK256 PUSH1 0x4 ADD SLOAD PUSH1 0xFF AND ISZERO PUSH2 0x12B8 JUMPI DUP3 PUSH2 0x12B4 DUP2 PUSH2 0x2987 JUMP JUMPDEST SWAP4 POP POP JUMPDEST PUSH1 0x1 ADD PUSH2 0x1264 JUMP JUMPDEST POP SWAP1 SWAP2 POP POP JUMPDEST SWAP3 SWAP2 POP POP JUMP JUMPDEST ADDRESS PUSH1 0x1 PUSH1 0x1 PUSH1 0xA0 SHL SUB PUSH32 0x0 AND EQ DUP1 PUSH2 0x1353 JUMPI POP PUSH32 0x0 PUSH1 0x1 PUSH1 0x1 PUSH1 0xA0 SHL SUB AND PUSH2 0x1347 PUSH1 0x0 DUP1 MLOAD PUSH1 0x20 PUSH2 0x2AE8 DUP4 CODECOPY DUP2 MLOAD SWAP2 MSTORE SLOAD PUSH1 0x1 PUSH1 0x1 PUSH1 0xA0 SHL SUB AND SWAP1 JUMP JUMPDEST PUSH1 0x1 PUSH1 0x1 PUSH1 0xA0 SHL SUB AND EQ ISZERO JUMPDEST ISZERO PUSH2 0xCB4 JUMPI PUSH1 0x40 MLOAD PUSH4 0x703E46DD PUSH1 0xE1 SHL DUP2 MSTORE PUSH1 0x4 ADD PUSH1 0x40 MLOAD DUP1 SWAP2 SUB SWAP1 REVERT JUMPDEST PUSH2 0xC49 PUSH2 0x157B JUMP JUMPDEST DUP2 PUSH1 0x1 PUSH1 0x1 PUSH1 0xA0 SHL SUB AND PUSH4 0x52D1902D PUSH1 0x40 MLOAD DUP2 PUSH4 0xFFFFFFFF AND PUSH1 0xE0 SHL DUP2 MSTORE PUSH1 0x4 ADD PUSH1 0x20 PUSH1 0x40 MLOAD DUP1 DUP4 SUB DUP2 DUP7 GAS STATICCALL SWAP3 POP POP POP DUP1 ISZERO PUSH2 0x13D3 JUMPI POP PUSH1 0x40 DUP1 MLOAD PUSH1 0x1F RETURNDATASIZE SWAP1 DUP2 ADD PUSH1 0x1F NOT AND DUP3 ADD SWAP1 SWAP3 MSTORE PUSH2 0x13D0 SWAP2 DUP2 ADD SWAP1 PUSH2 0x2A1D JUMP JUMPDEST PUSH1 0x1 JUMPDEST PUSH2 0x13FB JUMPI PUSH1 0x40 MLOAD PUSH4 0x4C9C8CE3 PUSH1 0xE0 SHL DUP2 MSTORE PUSH1 0x1 PUSH1 0x1 PUSH1 0xA0 SHL SUB DUP4 AND PUSH1 0x4 DUP3 ADD MSTORE PUSH1 0x24 ADD PUSH2 0xC99 JUMP JUMPDEST PUSH1 0x0 DUP1 MLOAD PUSH1 0x20 PUSH2 0x2AE8 DUP4 CODECOPY DUP2 MLOAD SWAP2 MSTORE DUP2 EQ PUSH2 0x142C JUMPI PUSH1 0x40 MLOAD PUSH4 0x2A875269 PUSH1 0xE2 SHL DUP2 MSTORE PUSH1 0x4 DUP2 ADD DUP3 SWAP1 MSTORE PUSH1 0x24 ADD PUSH2 0xC99 JUMP JUMPDEST PUSH2 0x1436 DUP4 DUP4 PUSH2 0x16FC JUMP JUMPDEST POP POP POP JUMP JUMPDEST ADDRESS PUSH1 0x1 PUSH1 0x1 PUSH1 0xA0 SHL SUB PUSH32 0x0 AND EQ PUSH2 0xCB4 JUMPI PUSH1 0x40 MLOAD PUSH4 0x703E46DD PUSH1 0xE1 SHL DUP2 MSTORE PUSH1 0x4 ADD PUSH1 0x40 MLOAD DUP1 SWAP2 SUB SWAP1 REVERT JUMPDEST PUSH1 0x0 PUSH1 0x6 PUSH1 0x0 DUP6 PUSH1 0x3 DUP2 GT ISZERO PUSH2 0x149C JUMPI PUSH2 0x149C PUSH2 0x25CC JUMP JUMPDEST PUSH1 0x3 DUP2 GT ISZERO PUSH2 0x14AD JUMPI PUSH2 0x14AD PUSH2 0x25CC JUMP JUMPDEST DUP2 MSTORE PUSH1 0x20 ADD SWAP1 DUP2 MSTORE PUSH1 0x20 ADD PUSH1 0x0 KECCAK256 PUSH1 0x0 DUP5 DUP2 MSTORE PUSH1 0x20 ADD SWAP1 DUP2 MSTORE PUSH1 0x20 ADD PUSH1 0x0 KECCAK256 SWAP1 POP PUSH1 0x0 JUMPDEST DUP2 SLOAD DUP2 LT ISZERO PUSH2 0xE0F JUMPI DUP3 DUP3 DUP3 DUP2 SLOAD DUP2 LT PUSH2 0x14ED JUMPI PUSH2 0x14ED PUSH2 0x2A07 JUMP JUMPDEST SWAP1 PUSH1 0x0 MSTORE PUSH1 0x20 PUSH1 0x0 KECCAK256 ADD SLOAD SUB PUSH2 0x1573 JUMPI DUP2 SLOAD DUP3 SWAP1 PUSH2 0x150D SWAP1 PUSH1 0x1 SWAP1 PUSH2 0x29E1 JUMP JUMPDEST DUP2 SLOAD DUP2 LT PUSH2 0x151D JUMPI PUSH2 0x151D PUSH2 0x2A07 JUMP JUMPDEST SWAP1 PUSH1 0x0 MSTORE PUSH1 0x20 PUSH1 0x0 KECCAK256 ADD SLOAD DUP3 DUP3 DUP2 SLOAD DUP2 LT PUSH2 0x153A JUMPI PUSH2 0x153A PUSH2 0x2A07 JUMP JUMPDEST SWAP1 PUSH1 0x0 MSTORE PUSH1 0x20 PUSH1 0x0 KECCAK256 ADD DUP2 SWAP1 SSTORE POP DUP2 DUP1 SLOAD DUP1 PUSH2 0x1558 JUMPI PUSH2 0x1558 PUSH2 0x2A36 JUMP JUMPDEST PUSH1 0x1 SWAP1 SUB DUP2 DUP2 SWAP1 PUSH1 0x0 MSTORE PUSH1 0x20 PUSH1 0x0 KECCAK256 ADD PUSH1 0x0 SWAP1 SSTORE SWAP1 SSTORE PUSH2 0xE0F JUMP JUMPDEST PUSH1 0x1 ADD PUSH2 0x14D1 JUMP JUMPDEST CALLER PUSH2 0x1584 PUSH2 0xE16 JUMP JUMPDEST PUSH1 0x1 PUSH1 0x1 PUSH1 0xA0 SHL SUB AND EQ PUSH2 0xCB4 JUMPI PUSH1 0x40 MLOAD PUSH4 0x118CDAA7 PUSH1 0xE0 SHL DUP2 MSTORE CALLER PUSH1 0x4 DUP3 ADD MSTORE PUSH1 0x24 ADD PUSH2 0xC99 JUMP JUMPDEST PUSH32 0x9016D09D72D40FDAE2FD8CEAC6B6234C7706214FD39C1CD1E609A0528C199300 DUP1 SLOAD PUSH1 0x1 PUSH1 0x1 PUSH1 0xA0 SHL SUB NOT DUP2 AND PUSH1 0x1 PUSH1 0x1 PUSH1 0xA0 SHL SUB DUP5 DUP2 AND SWAP2 DUP3 OR DUP5 SSTORE PUSH1 0x40 MLOAD SWAP3 AND SWAP2 DUP3 SWAP1 PUSH32 0x8BE0079C531659141344CD1FD0A4F28419497F9722A3DAAFE3B4186F6B6457E0 SWAP1 PUSH1 0x0 SWAP1 LOG3 POP POP POP JUMP JUMPDEST PUSH1 0x0 DUP1 PUSH32 0xF0C57E16840DF040F15088DC2F81FE391C3923BEC73E23A9662EFC9C229C6A00 PUSH2 0x12C6 JUMP JUMPDEST PUSH2 0x164F PUSH2 0x1752 JUMP JUMPDEST PUSH2 0xC49 DUP2 PUSH2 0x1777 JUMP JUMPDEST PUSH2 0xCB4 PUSH2 0x1752 JUMP JUMPDEST PUSH1 0x0 PUSH2 0x166D PUSH1 0x0 CALLVALUE PUSH2 0x177F JUMP JUMPDEST SWAP1 POP DUP1 ISZERO PUSH2 0x16B1 JUMPI PUSH1 0x0 DUP2 DUP2 MSTORE PUSH1 0x5 PUSH1 0x20 MSTORE PUSH1 0x40 SWAP1 KECCAK256 DUP1 SLOAD PUSH2 0x1699 SWAP1 PUSH1 0x1 PUSH1 0x1 PUSH1 0xA0 SHL SUB AND CALLER CALLVALUE PUSH2 0x1855 JUMP JUMPDEST PUSH1 0x4 DUP2 ADD DUP1 SLOAD PUSH1 0xFF NOT AND SWAP1 SSTORE PUSH2 0x967 PUSH1 0x0 CALLVALUE DUP5 PUSH2 0x1484 JUMP JUMPDEST PUSH2 0xC49 PUSH1 0x0 CALLVALUE PUSH2 0x1BC1 JUMP JUMPDEST PUSH1 0x0 PUSH2 0x16C7 DUP3 PUSH2 0x8C6 JUMP JUMPDEST SWAP1 POP PUSH1 0x0 PUSH2 0x16D5 DUP4 CALLVALUE PUSH2 0x1216 JUMP JUMPDEST SWAP1 POP DUP2 PUSH2 0x16E3 DUP3 PUSH1 0x1 PUSH2 0x29F4 JUMP JUMPDEST LT PUSH2 0x16F2 JUMPI PUSH2 0x1436 DUP4 CALLVALUE PUSH2 0x1D44 JUMP JUMPDEST PUSH2 0x1436 DUP4 CALLVALUE PUSH2 0x1BC1 JUMP JUMPDEST PUSH2 0x1705 DUP3 PUSH2 0x228D JUMP JUMPDEST PUSH1 0x40 MLOAD PUSH1 0x1 PUSH1 0x1 PUSH1 0xA0 SHL SUB DUP4 AND SWAP1 PUSH32 0xBC7CD75A20EE27FD9ADEBAB32041F755214DBC6BFFA90CC0225B39DA2E5C2D3B SWAP1 PUSH1 0x0 SWAP1 LOG2 DUP1 MLOAD ISZERO PUSH2 0x174A JUMPI PUSH2 0x1436 DUP3 DUP3 PUSH2 0x22F2 JUMP JUMPDEST PUSH2 0x967 PUSH2 0x2368 JUMP JUMPDEST PUSH2 0x175A PUSH2 0x2387 JUMP JUMPDEST PUSH2 0xCB4 JUMPI PUSH1 0x40 MLOAD PUSH4 0x1AFCD79F PUSH1 0xE3 SHL DUP2 MSTORE PUSH1 0x4 ADD PUSH1 0x40 MLOAD DUP1 SWAP2 SUB SWAP1 REVERT JUMPDEST PUSH2 0x11E3 PUSH2 0x1752 JUMP JUMPDEST PUSH1 0x0 DUP1 PUSH1 0x6 PUSH1 0x0 DUP6 PUSH1 0x3 DUP2 GT ISZERO PUSH2 0x1798 JUMPI PUSH2 0x1798 PUSH2 0x25CC JUMP JUMPDEST PUSH1 0x3 DUP2 GT ISZERO PUSH2 0x17A9 JUMPI PUSH2 0x17A9 PUSH2 0x25CC JUMP JUMPDEST DUP2 MSTORE PUSH1 0x20 ADD SWAP1 DUP2 MSTORE PUSH1 0x20 ADD PUSH1 0x0 KECCAK256 PUSH1 0x0 DUP5 DUP2 MSTORE PUSH1 0x20 ADD SWAP1 DUP2 MSTORE PUSH1 0x20 ADD PUSH1 0x0 KECCAK256 SWAP1 POP PUSH1 0x0 JUMPDEST DUP2 SLOAD DUP2 LT ISZERO PUSH2 0x184A JUMPI PUSH1 0x0 DUP3 DUP3 DUP2 SLOAD DUP2 LT PUSH2 0x17EA JUMPI PUSH2 0x17EA PUSH2 0x2A07 JUMP JUMPDEST PUSH1 0x0 SWAP2 DUP3 MSTORE PUSH1 0x20 DUP1 DUP4 KECCAK256 SWAP1 SWAP2 ADD SLOAD DUP1 DUP4 MSTORE PUSH1 0x5 SWAP1 SWAP2 MSTORE PUSH1 0x40 SWAP1 SWAP2 KECCAK256 PUSH1 0x4 ADD SLOAD SWAP1 SWAP2 POP PUSH1 0xFF AND DUP1 ISZERO PUSH2 0x1832 JUMPI POP PUSH1 0x0 DUP2 DUP2 MSTORE PUSH1 0x5 PUSH1 0x20 MSTORE PUSH1 0x40 SWAP1 KECCAK256 SLOAD PUSH1 0x1 PUSH1 0x1 PUSH1 0xA0 SHL SUB AND CALLER EQ ISZERO JUMPDEST ISZERO PUSH2 0x1841 JUMPI SWAP3 POP PUSH2 0x12C6 SWAP2 POP POP JUMP JUMPDEST POP PUSH1 0x1 ADD PUSH2 0x17CD JUMP JUMPDEST POP PUSH1 0x0 SWAP5 SWAP4 POP POP POP POP JUMP JUMPDEST PUSH1 0x2 DUP1 SLOAD SWAP1 PUSH1 0x0 PUSH2 0x1865 DUP4 PUSH2 0x2987 JUMP JUMPDEST SWAP2 SWAP1 POP SSTORE POP PUSH1 0x0 PUSH2 0x1874 PUSH2 0x23A1 JUMP JUMPDEST SWAP1 POP PUSH1 0x0 PUSH2 0x1883 PUSH1 0x2 DUP4 PUSH2 0x2A4C JUMP JUMPDEST SWAP1 POP PUSH1 0x0 DUP2 ISZERO PUSH2 0x1893 JUMPI DUP5 PUSH2 0x1895 JUMP JUMPDEST DUP6 JUMPDEST PUSH1 0x7 DUP1 SLOAD SWAP2 SWAP3 POP PUSH1 0x0 SWAP2 SWAP1 DUP3 PUSH2 0x18AA DUP4 PUSH2 0x2987 JUMP JUMPDEST SWAP2 SWAP1 POP SSTORE SWAP1 POP PUSH1 0x40 MLOAD DUP1 PUSH2 0x100 ADD PUSH1 0x40 MSTORE DUP1 DUP3 DUP2 MSTORE PUSH1 0x20 ADD DUP9 PUSH1 0x1 PUSH1 0x1 PUSH1 0xA0 SHL SUB AND DUP2 MSTORE PUSH1 0x20 ADD DUP8 PUSH1 0x1 PUSH1 0x1 PUSH1 0xA0 SHL SUB AND DUP2 MSTORE PUSH1 0x20 ADD DUP7 DUP2 MSTORE PUSH1 0x20 ADD TIMESTAMP DUP2 MSTORE PUSH1 0x20 ADD DUP4 PUSH1 0x1 PUSH1 0x1 PUSH1 0xA0 SHL SUB AND DUP2 MSTORE PUSH1 0x20 ADD PUSH1 0x1 ISZERO ISZERO DUP2 MSTORE PUSH1 0x20 ADD DUP6 DUP2 MSTORE POP PUSH1 0x3 PUSH1 0x0 DUP4 DUP2 MSTORE PUSH1 0x20 ADD SWAP1 DUP2 MSTORE PUSH1 0x20 ADD PUSH1 0x0 KECCAK256 PUSH1 0x0 DUP3 ADD MLOAD DUP2 PUSH1 0x0 ADD SSTORE PUSH1 0x20 DUP3 ADD MLOAD DUP2 PUSH1 0x1 ADD PUSH1 0x0 PUSH2 0x100 EXP DUP2 SLOAD DUP2 PUSH1 0x1 PUSH1 0x1 PUSH1 0xA0 SHL SUB MUL NOT AND SWAP1 DUP4 PUSH1 0x1 PUSH1 0x1 PUSH1 0xA0 SHL SUB AND MUL OR SWAP1 SSTORE POP PUSH1 0x40 DUP3 ADD MLOAD DUP2 PUSH1 0x2 ADD PUSH1 0x0 PUSH2 0x100 EXP DUP2 SLOAD DUP2 PUSH1 0x1 PUSH1 0x1 PUSH1 0xA0 SHL SUB MUL NOT AND SWAP1 DUP4 PUSH1 0x1 PUSH1 0x1 PUSH1 0xA0 SHL SUB AND MUL OR SWAP1 SSTORE POP PUSH1 0x60 DUP3 ADD MLOAD DUP2 PUSH1 0x3 ADD SSTORE PUSH1 0x80 DUP3 ADD MLOAD DUP2 PUSH1 0x4 ADD SSTORE PUSH1 0xA0 DUP3 ADD MLOAD DUP2 PUSH1 0x5 ADD PUSH1 0x0 PUSH2 0x100 EXP DUP2 SLOAD DUP2 PUSH1 0x1 PUSH1 0x1 PUSH1 0xA0 SHL SUB MUL NOT AND SWAP1 DUP4 PUSH1 0x1 PUSH1 0x1 PUSH1 0xA0 SHL SUB AND MUL OR SWAP1 SSTORE POP PUSH1 0xC0 DUP3 ADD MLOAD DUP2 PUSH1 0x5 ADD PUSH1 0x14 PUSH2 0x100 EXP DUP2 SLOAD DUP2 PUSH1 0xFF MUL NOT AND SWAP1 DUP4 ISZERO ISZERO MUL OR SWAP1 SSTORE POP PUSH1 0xE0 DUP3 ADD MLOAD DUP2 PUSH1 0x6 ADD SSTORE SWAP1 POP POP PUSH1 0x0 DUP6 PUSH1 0x2 PUSH2 0x19FC SWAP2 SWAP1 PUSH2 0x29A0 JUMP JUMPDEST SWAP1 POP PUSH1 0x0 PUSH1 0x64 PUSH2 0x1A0D PUSH1 0xA DUP5 PUSH2 0x29A0 JUMP JUMPDEST PUSH2 0x1A17 SWAP2 SWAP1 PUSH2 0x29CD JUMP JUMPDEST SWAP1 POP PUSH1 0x0 PUSH2 0x1A25 DUP3 DUP5 PUSH2 0x29E1 JUMP JUMPDEST PUSH1 0x40 MLOAD SWAP1 SWAP2 POP PUSH1 0x1 PUSH1 0x1 PUSH1 0xA0 SHL SUB DUP7 AND SWAP1 DUP3 ISZERO PUSH2 0x8FC MUL SWAP1 DUP4 SWAP1 PUSH1 0x0 DUP2 DUP2 DUP2 DUP6 DUP9 DUP9 CALL SWAP4 POP POP POP POP ISZERO DUP1 ISZERO PUSH2 0x1A5E JUMPI RETURNDATASIZE PUSH1 0x0 DUP1 RETURNDATACOPY RETURNDATASIZE PUSH1 0x0 REVERT JUMPDEST POP PUSH2 0x1A67 PUSH2 0xE16 JUMP JUMPDEST PUSH1 0x1 PUSH1 0x1 PUSH1 0xA0 SHL SUB AND PUSH2 0x8FC DUP4 SWAP1 DUP2 ISZERO MUL SWAP1 PUSH1 0x40 MLOAD PUSH1 0x0 PUSH1 0x40 MLOAD DUP1 DUP4 SUB DUP2 DUP6 DUP9 DUP9 CALL SWAP4 POP POP POP POP ISZERO DUP1 ISZERO PUSH2 0x1A9F JUMPI RETURNDATASIZE PUSH1 0x0 DUP1 RETURNDATACOPY RETURNDATASIZE PUSH1 0x0 REVERT JUMPDEST POP PUSH1 0x0 DUP1 SLOAD SWAP1 DUP1 PUSH2 0x1AAF DUP4 PUSH2 0x2987 JUMP JUMPDEST SWAP1 SWAP2 SSTORE POP POP PUSH1 0x40 DUP1 MLOAD PUSH1 0x1 PUSH1 0x1 PUSH1 0xA0 SHL SUB DUP1 DUP14 AND DUP3 MSTORE DUP12 AND PUSH1 0x20 DUP3 ADD MSTORE SWAP1 DUP2 ADD DUP10 SWAP1 MSTORE DUP5 SWAP1 PUSH32 0x32A4A869175589DB4F7700AC66E13712C68344029A4DC6411C67A3A89CC02088 SWAP1 PUSH1 0x60 ADD PUSH1 0x40 MLOAD DUP1 SWAP2 SUB SWAP1 LOG2 PUSH1 0x40 DUP1 MLOAD PUSH1 0x1 PUSH1 0x1 PUSH1 0xA0 SHL SUB DUP8 AND DUP2 MSTORE PUSH1 0x20 DUP2 ADD DUP4 SWAP1 MSTORE SWAP1 DUP2 ADD DUP9 SWAP1 MSTORE DUP5 SWAP1 PUSH32 0x82805C62658F0D4E2E9A11270A627F27493B4AE9968841F58BECEF279BD3F7C6 SWAP1 PUSH1 0x60 ADD PUSH1 0x40 MLOAD DUP1 SWAP2 SUB SWAP1 LOG2 PUSH1 0x40 DUP1 MLOAD PUSH1 0x1 PUSH1 0x1 PUSH1 0xA0 SHL SUB DUP8 AND DUP2 MSTORE PUSH1 0x20 DUP2 ADD DUP4 SWAP1 MSTORE PUSH1 0x0 DUP1 MLOAD PUSH1 0x20 PUSH2 0x2AC8 DUP4 CODECOPY DUP2 MLOAD SWAP2 MSTORE SWAP2 ADD PUSH1 0x40 MLOAD DUP1 SWAP2 SUB SWAP1 LOG1 PUSH1 0x0 DUP1 MLOAD PUSH1 0x20 PUSH2 0x2AC8 DUP4 CODECOPY DUP2 MLOAD SWAP2 MSTORE PUSH2 0x1B94 PUSH2 0xE16 JUMP JUMPDEST PUSH1 0x40 DUP1 MLOAD PUSH1 0x1 PUSH1 0x1 PUSH1 0xA0 SHL SUB SWAP1 SWAP3 AND DUP3 MSTORE PUSH1 0x20 DUP3 ADD DUP6 SWAP1 MSTORE ADD PUSH1 0x40 MLOAD DUP1 SWAP2 SUB SWAP1 LOG1 POP POP POP POP POP POP POP POP POP POP JUMP JUMPDEST PUSH1 0x9 DUP1 SLOAD PUSH1 0x0 SWAP2 DUP3 PUSH2 0x1BD2 DUP4 PUSH2 0x2987 JUMP JUMPDEST SWAP2 SWAP1 POP SSTORE SWAP1 POP PUSH1 0x40 MLOAD DUP1 PUSH1 0xA0 ADD PUSH1 0x40 MSTORE DUP1 CALLER PUSH1 0x1 PUSH1 0x1 PUSH1 0xA0 SHL SUB AND DUP2 MSTORE PUSH1 0x20 ADD DUP4 DUP2 MSTORE PUSH1 0x20 ADD DUP5 PUSH1 0x3 DUP2 GT ISZERO PUSH2 0x1C0A JUMPI PUSH2 0x1C0A PUSH2 0x25CC JUMP JUMPDEST DUP2 MSTORE TIMESTAMP PUSH1 0x20 DUP1 DUP4 ADD SWAP2 SWAP1 SWAP2 MSTORE PUSH1 0x1 PUSH1 0x40 SWAP3 DUP4 ADD DUP2 SWAP1 MSTORE PUSH1 0x0 DUP6 DUP2 MSTORE PUSH1 0x5 DUP4 MSTORE DUP4 SWAP1 KECCAK256 DUP5 MLOAD DUP2 SLOAD PUSH1 0x1 PUSH1 0x1 PUSH1 0xA0 SHL SUB NOT AND PUSH1 0x1 PUSH1 0x1 PUSH1 0xA0 SHL SUB SWAP1 SWAP2 AND OR DUP2 SSTORE SWAP2 DUP5 ADD MLOAD DUP3 DUP3 ADD SSTORE SWAP2 DUP4 ADD MLOAD PUSH1 0x2 DUP3 ADD DUP1 SLOAD SWAP3 SWAP4 SWAP2 SWAP3 SWAP1 SWAP2 PUSH1 0xFF NOT SWAP1 SWAP2 AND SWAP1 DUP4 PUSH1 0x3 DUP2 GT ISZERO PUSH2 0x1C79 JUMPI PUSH2 0x1C79 PUSH2 0x25CC JUMP JUMPDEST MUL OR SWAP1 SSTORE POP PUSH1 0x60 DUP3 ADD MLOAD DUP2 PUSH1 0x3 ADD SSTORE PUSH1 0x80 DUP3 ADD MLOAD DUP2 PUSH1 0x4 ADD PUSH1 0x0 PUSH2 0x100 EXP DUP2 SLOAD DUP2 PUSH1 0xFF MUL NOT AND SWAP1 DUP4 ISZERO ISZERO MUL OR SWAP1 SSTORE POP SWAP1 POP POP PUSH1 0x6 PUSH1 0x0 DUP5 PUSH1 0x3 DUP2 GT ISZERO PUSH2 0x1CC1 JUMPI PUSH2 0x1CC1 PUSH2 0x25CC JUMP JUMPDEST PUSH1 0x3 DUP2 GT ISZERO PUSH2 0x1CD2 JUMPI PUSH2 0x1CD2 PUSH2 0x25CC JUMP JUMPDEST DUP2 MSTORE PUSH1 0x20 DUP1 DUP3 ADD SWAP3 SWAP1 SWAP3 MSTORE PUSH1 0x40 SWAP1 DUP2 ADD PUSH1 0x0 SWAP1 DUP2 KECCAK256 DUP6 DUP3 MSTORE DUP4 MSTORE DUP2 DUP2 KECCAK256 DUP1 SLOAD PUSH1 0x1 DUP2 ADD DUP3 SSTORE SWAP1 DUP3 MSTORE SWAP3 SWAP1 KECCAK256 SWAP1 SWAP2 ADD DUP3 SWAP1 SSTORE MLOAD DUP2 SWAP1 PUSH32 0x48162BEDB16D05A3275C2737A223BED7A2D83F402091162C85FA9DC10F6951ED SWAP1 PUSH2 0x1D37 SWAP1 CALLER SWAP1 DUP7 SWAP1 DUP9 SWAP1 PUSH2 0x2A60 JUMP JUMPDEST PUSH1 0x40 MLOAD DUP1 SWAP2 SUB SWAP1 LOG2 POP POP POP JUMP JUMPDEST PUSH1 0x0 PUSH2 0x1D4F DUP4 PUSH2 0x8C6 JUMP JUMPDEST SWAP1 POP PUSH1 0x0 PUSH1 0x6 PUSH1 0x0 DUP6 PUSH1 0x3 DUP2 GT ISZERO PUSH2 0x1D69 JUMPI PUSH2 0x1D69 PUSH2 0x25CC JUMP JUMPDEST PUSH1 0x3 DUP2 GT ISZERO PUSH2 0x1D7A JUMPI PUSH2 0x1D7A PUSH2 0x25CC JUMP JUMPDEST DUP2 MSTORE PUSH1 0x20 ADD SWAP1 DUP2 MSTORE PUSH1 0x20 ADD PUSH1 0x0 KECCAK256 PUSH1 0x0 DUP5 DUP2 MSTORE PUSH1 0x20 ADD SWAP1 DUP2 MSTORE PUSH1 0x20 ADD PUSH1 0x0 KECCAK256 SWAP1 POP PUSH1 0x0 DUP3 PUSH8 0xFFFFFFFFFFFFFFFF DUP2 GT ISZERO PUSH2 0x1DB6 JUMPI PUSH2 0x1DB6 PUSH2 0x269D JUMP JUMPDEST PUSH1 0x40 MLOAD SWAP1 DUP1 DUP3 MSTORE DUP1 PUSH1 0x20 MUL PUSH1 0x20 ADD DUP3 ADD PUSH1 0x40 MSTORE DUP1 ISZERO PUSH2 0x1DDF JUMPI DUP2 PUSH1 0x20 ADD PUSH1 0x20 DUP3 MUL DUP1 CALLDATASIZE DUP4 CALLDATACOPY ADD SWAP1 POP JUMPDEST POP SWAP1 POP PUSH1 0x0 CALLER DUP3 DUP3 PUSH2 0x1DF0 DUP2 PUSH2 0x2987 JUMP JUMPDEST SWAP4 POP DUP2 MLOAD DUP2 LT PUSH2 0x1E02 JUMPI PUSH2 0x1E02 PUSH2 0x2A07 JUMP JUMPDEST PUSH1 0x20 MUL PUSH1 0x20 ADD ADD SWAP1 PUSH1 0x1 PUSH1 0x1 PUSH1 0xA0 SHL SUB AND SWAP1 DUP2 PUSH1 0x1 PUSH1 0x1 PUSH1 0xA0 SHL SUB AND DUP2 MSTORE POP POP PUSH1 0x0 JUMPDEST DUP4 SLOAD DUP2 LT DUP1 ISZERO PUSH2 0x1E34 JUMPI POP DUP5 DUP3 LT JUMPDEST ISZERO PUSH2 0x1EF0 JUMPI PUSH1 0x0 DUP5 DUP3 DUP2 SLOAD DUP2 LT PUSH2 0x1E4D JUMPI PUSH2 0x1E4D PUSH2 0x2A07 JUMP JUMPDEST PUSH1 0x0 SWAP2 DUP3 MSTORE PUSH1 0x20 DUP1 DUP4 KECCAK256 SWAP1 SWAP2 ADD SLOAD DUP1 DUP4 MSTORE PUSH1 0x5 SWAP1 SWAP2 MSTORE PUSH1 0x40 SWAP1 SWAP2 KECCAK256 PUSH1 0x4 ADD SLOAD SWAP1 SWAP2 POP PUSH1 0xFF AND ISZERO PUSH2 0x1EDD JUMPI PUSH1 0x0 DUP2 DUP2 MSTORE PUSH1 0x5 PUSH1 0x20 MSTORE PUSH1 0x40 SWAP1 KECCAK256 SLOAD PUSH1 0x1 PUSH1 0x1 PUSH1 0xA0 SHL SUB AND DUP5 DUP5 PUSH2 0x1E9A DUP2 PUSH2 0x2987 JUMP JUMPDEST SWAP6 POP DUP2 MLOAD DUP2 LT PUSH2 0x1EAC JUMPI PUSH2 0x1EAC PUSH2 0x2A07 JUMP JUMPDEST PUSH1 0x1 PUSH1 0x1 PUSH1 0xA0 SHL SUB SWAP1 SWAP3 AND PUSH1 0x20 SWAP3 DUP4 MUL SWAP2 SWAP1 SWAP2 ADD DUP3 ADD MSTORE PUSH1 0x0 DUP3 DUP2 MSTORE PUSH1 0x5 SWAP1 SWAP2 MSTORE PUSH1 0x40 SWAP1 KECCAK256 PUSH1 0x4 ADD DUP1 SLOAD PUSH1 0xFF NOT AND SWAP1 SSTORE JUMPDEST POP DUP1 PUSH2 0x1EE8 DUP2 PUSH2 0x2987 JUMP JUMPDEST SWAP2 POP POP PUSH2 0x1E25 JUMP JUMPDEST POP PUSH1 0x6 PUSH1 0x0 DUP8 PUSH1 0x3 DUP2 GT ISZERO PUSH2 0x1F07 JUMPI PUSH2 0x1F07 PUSH2 0x25CC JUMP JUMPDEST PUSH1 0x3 DUP2 GT ISZERO PUSH2 0x1F18 JUMPI PUSH2 0x1F18 PUSH2 0x25CC JUMP JUMPDEST DUP2 MSTORE PUSH1 0x20 ADD SWAP1 DUP2 MSTORE PUSH1 0x20 ADD PUSH1 0x0 KECCAK256 PUSH1 0x0 DUP7 DUP2 MSTORE PUSH1 0x20 ADD SWAP1 DUP2 MSTORE PUSH1 0x20 ADD PUSH1 0x0 KECCAK256 PUSH1 0x0 PUSH2 0x1F43 SWAP2 SWAP1 PUSH2 0x24FC JUMP JUMPDEST PUSH1 0x2 DUP1 SLOAD SWAP1 PUSH1 0x0 PUSH2 0x1F53 DUP4 PUSH2 0x2987 JUMP JUMPDEST SWAP2 SWAP1 POP SSTORE POP PUSH1 0x0 PUSH2 0x1F62 PUSH2 0x23A1 JUMP JUMPDEST SWAP1 POP PUSH1 0x0 PUSH2 0x1F70 DUP7 DUP4 PUSH2 0x2A4C JUMP JUMPDEST SWAP1 POP PUSH1 0x0 DUP5 DUP3 DUP2 MLOAD DUP2 LT PUSH2 0x1F86 JUMPI PUSH2 0x1F86 PUSH2 0x2A07 JUMP JUMPDEST PUSH1 0x20 MUL PUSH1 0x20 ADD ADD MLOAD SWAP1 POP PUSH1 0x0 PUSH1 0x8 PUSH1 0x0 DUP2 SLOAD DUP1 SWAP3 SWAP2 SWAP1 PUSH2 0x1FA5 SWAP1 PUSH2 0x2987 JUMP JUMPDEST SWAP2 SWAP1 POP SSTORE SWAP1 POP PUSH1 0x40 MLOAD DUP1 PUSH2 0x120 ADD PUSH1 0x40 MSTORE DUP1 DUP3 DUP2 MSTORE PUSH1 0x20 ADD DUP12 PUSH1 0x3 DUP2 GT ISZERO PUSH2 0x1FCF JUMPI PUSH2 0x1FCF PUSH2 0x25CC JUMP JUMPDEST DUP2 MSTORE PUSH1 0x20 DUP1 DUP3 ADD DUP10 SWAP1 MSTORE PUSH1 0x40 DUP1 DUP4 ADD DUP14 SWAP1 MSTORE TIMESTAMP PUSH1 0x60 DUP5 ADD MSTORE PUSH1 0x1 PUSH1 0x1 PUSH1 0xA0 SHL SUB DUP7 AND PUSH1 0x80 DUP5 ADD MSTORE PUSH1 0x1 PUSH1 0xA0 DUP5 ADD DUP2 SWAP1 MSTORE PUSH1 0xC0 DUP5 ADD DUP10 SWAP1 MSTORE PUSH1 0xE0 SWAP1 SWAP4 ADD DUP13 SWAP1 MSTORE PUSH1 0x0 DUP6 DUP2 MSTORE PUSH1 0x4 DUP4 MSTORE KECCAK256 DUP4 MLOAD DUP2 SSTORE SWAP1 DUP4 ADD MLOAD DUP2 DUP4 ADD DUP1 SLOAD SWAP3 SWAP4 SWAP2 SWAP3 SWAP1 SWAP2 PUSH1 0xFF NOT SWAP1 SWAP2 AND SWAP1 DUP4 PUSH1 0x3 DUP2 GT ISZERO PUSH2 0x2044 JUMPI PUSH2 0x2044 PUSH2 0x25CC JUMP JUMPDEST MUL OR SWAP1 SSTORE POP PUSH1 0x40 DUP3 ADD MLOAD DUP1 MLOAD PUSH2 0x2064 SWAP2 PUSH1 0x2 DUP5 ADD SWAP2 PUSH1 0x20 SWAP1 SWAP2 ADD SWAP1 PUSH2 0x251A JUMP JUMPDEST POP PUSH1 0x60 DUP3 ADD MLOAD PUSH1 0x3 DUP3 ADD SSTORE PUSH1 0x80 DUP3 ADD MLOAD PUSH1 0x4 DUP3 ADD SSTORE PUSH1 0xA0 DUP3 ADD MLOAD PUSH1 0x5 DUP3 ADD DUP1 SLOAD PUSH1 0xC0 DUP6 ADD MLOAD ISZERO ISZERO PUSH1 0x1 PUSH1 0xA0 SHL MUL PUSH1 0x1 PUSH1 0x1 PUSH1 0xA8 SHL SUB NOT SWAP1 SWAP2 AND PUSH1 0x1 PUSH1 0x1 PUSH1 0xA0 SHL SUB SWAP1 SWAP4 AND SWAP3 SWAP1 SWAP3 OR SWAP2 SWAP1 SWAP2 OR SWAP1 SSTORE PUSH1 0xE0 DUP3 ADD MLOAD PUSH1 0x6 DUP3 ADD SSTORE PUSH2 0x100 SWAP1 SWAP2 ADD MLOAD PUSH1 0x7 SWAP1 SWAP2 ADD SSTORE PUSH1 0x0 PUSH2 0x20D5 DUP10 DUP12 PUSH2 0x29A0 JUMP JUMPDEST SWAP1 POP PUSH1 0x0 PUSH1 0x64 PUSH2 0x20E6 PUSH1 0xA DUP5 PUSH2 0x29A0 JUMP JUMPDEST PUSH2 0x20F0 SWAP2 SWAP1 PUSH2 0x29CD JUMP JUMPDEST SWAP1 POP PUSH1 0x0 PUSH2 0x20FE DUP3 DUP5 PUSH2 0x29E1 JUMP JUMPDEST PUSH1 0x40 MLOAD SWAP1 SWAP2 POP PUSH1 0x1 PUSH1 0x1 PUSH1 0xA0 SHL SUB DUP7 AND SWAP1 DUP3 ISZERO PUSH2 0x8FC MUL SWAP1 DUP4 SWAP1 PUSH1 0x0 DUP2 DUP2 DUP2 DUP6 DUP9 DUP9 CALL SWAP4 POP POP POP POP ISZERO DUP1 ISZERO PUSH2 0x2137 JUMPI RETURNDATASIZE PUSH1 0x0 DUP1 RETURNDATACOPY RETURNDATASIZE PUSH1 0x0 REVERT JUMPDEST POP PUSH2 0x2140 PUSH2 0xE16 JUMP JUMPDEST PUSH1 0x1 PUSH1 0x1 PUSH1 0xA0 SHL SUB AND PUSH2 0x8FC DUP4 SWAP1 DUP2 ISZERO MUL SWAP1 PUSH1 0x40 MLOAD PUSH1 0x0 PUSH1 0x40 MLOAD DUP1 DUP4 SUB DUP2 DUP6 DUP9 DUP9 CALL SWAP4 POP POP POP POP ISZERO DUP1 ISZERO PUSH2 0x2178 JUMPI RETURNDATASIZE PUSH1 0x0 DUP1 RETURNDATACOPY RETURNDATASIZE PUSH1 0x0 REVERT JUMPDEST POP PUSH1 0x1 DUP1 SLOAD SWAP1 PUSH1 0x0 PUSH2 0x2189 DUP4 PUSH2 0x2987 JUMP JUMPDEST SWAP2 SWAP1 POP SSTORE POP DUP4 PUSH32 0x84DCAC16026E0DBB3C93BDE7147C1AA2F00ADCE854BF7CB741A44BA47C5D833 DUP15 DUP14 DUP16 PUSH1 0x40 MLOAD PUSH2 0x21C2 SWAP4 SWAP3 SWAP2 SWAP1 PUSH2 0x2A8C JUMP JUMPDEST PUSH1 0x40 MLOAD DUP1 SWAP2 SUB SWAP1 LOG2 PUSH1 0x40 DUP1 MLOAD PUSH1 0x1 PUSH1 0x1 PUSH1 0xA0 SHL SUB DUP8 AND DUP2 MSTORE PUSH1 0x20 DUP2 ADD DUP4 SWAP1 MSTORE SWAP1 DUP2 ADD DUP9 SWAP1 MSTORE DUP5 SWAP1 PUSH32 0xD8AB9BE402BED58D1A51595A9324A9844053D58DBF66A86D4E191A638A65BE10 SWAP1 PUSH1 0x60 ADD PUSH1 0x40 MLOAD DUP1 SWAP2 SUB SWAP1 LOG2 PUSH1 0x40 DUP1 MLOAD PUSH1 0x1 PUSH1 0x1 PUSH1 0xA0 SHL SUB DUP8 AND DUP2 MSTORE PUSH1 0x20 DUP2 ADD DUP4 SWAP1 MSTORE PUSH1 0x0 DUP1 MLOAD PUSH1 0x20 PUSH2 0x2AC8 DUP4 CODECOPY DUP2 MLOAD SWAP2 MSTORE SWAP2 ADD PUSH1 0x40 MLOAD DUP1 SWAP2 SUB SWAP1 LOG1 PUSH1 0x0 DUP1 MLOAD PUSH1 0x20 PUSH2 0x2AC8 DUP4 CODECOPY DUP2 MLOAD SWAP2 MSTORE PUSH2 0x225D PUSH2 0xE16 JUMP JUMPDEST PUSH1 0x40 DUP1 MLOAD PUSH1 0x1 PUSH1 0x1 PUSH1 0xA0 SHL SUB SWAP1 SWAP3 AND DUP3 MSTORE PUSH1 0x20 DUP3 ADD DUP6 SWAP1 MSTORE ADD PUSH1 0x40 MLOAD DUP1 SWAP2 SUB SWAP1 LOG1 POP POP POP POP POP POP POP POP POP POP POP POP POP JUMP JUMPDEST DUP1 PUSH1 0x1 PUSH1 0x1 PUSH1 0xA0 SHL SUB AND EXTCODESIZE PUSH1 0x0 SUB PUSH2 0x22C3 JUMPI PUSH1 0x40 MLOAD PUSH4 0x4C9C8CE3 PUSH1 0xE0 SHL DUP2 MSTORE PUSH1 0x1 PUSH1 0x1 PUSH1 0xA0 SHL SUB DUP3 AND PUSH1 0x4 DUP3 ADD MSTORE PUSH1 0x24 ADD PUSH2 0xC99 JUMP JUMPDEST PUSH1 0x0 DUP1 MLOAD PUSH1 0x20 PUSH2 0x2AE8 DUP4 CODECOPY DUP2 MLOAD SWAP2 MSTORE DUP1 SLOAD PUSH1 0x1 PUSH1 0x1 PUSH1 0xA0 SHL SUB NOT AND PUSH1 0x1 PUSH1 0x1 PUSH1 0xA0 SHL SUB SWAP3 SWAP1 SWAP3 AND SWAP2 SWAP1 SWAP2 OR SWAP1 SSTORE JUMP JUMPDEST PUSH1 0x60 PUSH1 0x0 DUP1 DUP5 PUSH1 0x1 PUSH1 0x1 PUSH1 0xA0 SHL SUB AND DUP5 PUSH1 0x40 MLOAD PUSH2 0x230F SWAP2 SWAP1 PUSH2 0x2AAB JUMP JUMPDEST PUSH1 0x0 PUSH1 0x40 MLOAD DUP1 DUP4 SUB DUP2 DUP6 GAS DELEGATECALL SWAP2 POP POP RETURNDATASIZE DUP1 PUSH1 0x0 DUP2 EQ PUSH2 0x234A JUMPI PUSH1 0x40 MLOAD SWAP2 POP PUSH1 0x1F NOT PUSH1 0x3F RETURNDATASIZE ADD AND DUP3 ADD PUSH1 0x40 MSTORE RETURNDATASIZE DUP3 MSTORE RETURNDATASIZE PUSH1 0x0 PUSH1 0x20 DUP5 ADD RETURNDATACOPY PUSH2 0x234F JUMP JUMPDEST PUSH1 0x60 SWAP2 POP JUMPDEST POP SWAP2 POP SWAP2 POP PUSH2 0x235F DUP6 DUP4 DUP4 PUSH2 0x241F JUMP JUMPDEST SWAP6 SWAP5 POP POP POP POP POP JUMP JUMPDEST CALLVALUE ISZERO PUSH2 0xCB4 JUMPI PUSH1 0x40 MLOAD PUSH4 0xB398979F PUSH1 0xE0 SHL DUP2 MSTORE PUSH1 0x4 ADD PUSH1 0x40 MLOAD DUP1 SWAP2 SUB SWAP1 REVERT JUMPDEST PUSH1 0x0 PUSH2 0x2391 PUSH2 0x161E JUMP JUMPDEST SLOAD PUSH1 0x1 PUSH1 0x40 SHL SWAP1 DIV PUSH1 0xFF AND SWAP2 SWAP1 POP JUMP JUMPDEST PUSH1 0x0 PREVRANDAO TIMESTAMP NUMBER CALLER PUSH1 0x2 SLOAD PUSH1 0x1 NUMBER PUSH2 0x23B7 SWAP2 SWAP1 PUSH2 0x29E1 JUMP JUMPDEST BLOCKHASH GAS PUSH1 0x40 DUP1 MLOAD PUSH1 0x20 DUP2 ADD SWAP9 SWAP1 SWAP9 MSTORE DUP8 ADD SWAP6 SWAP1 SWAP6 MSTORE PUSH1 0x60 DUP1 DUP8 ADD SWAP5 SWAP1 SWAP5 MSTORE PUSH12 0xFFFFFFFFFFFFFFFFFFFFFFFF NOT SWAP3 SWAP1 SWAP4 SHL SWAP2 SWAP1 SWAP2 AND PUSH1 0x80 DUP6 ADD MSTORE PUSH1 0x94 DUP5 ADD MSTORE PUSH1 0xB4 DUP4 ADD MSTORE PUSH1 0xD4 DUP3 ADD MSTORE PUSH1 0xF4 ADD PUSH1 0x40 MLOAD PUSH1 0x20 DUP2 DUP4 SUB SUB DUP2 MSTORE SWAP1 PUSH1 0x40 MSTORE DUP1 MLOAD SWAP1 PUSH1 0x20 ADD KECCAK256 PUSH1 0x0 SHR SWAP1 POP SWAP1 JUMP JUMPDEST PUSH1 0x60 DUP3 PUSH2 0x2434 JUMPI PUSH2 0x242F DUP3 PUSH2 0x247E JUMP JUMPDEST PUSH2 0x2477 JUMP JUMPDEST DUP2 MLOAD ISZERO DUP1 ISZERO PUSH2 0x244B JUMPI POP PUSH1 0x1 PUSH1 0x1 PUSH1 0xA0 SHL SUB DUP5 AND EXTCODESIZE ISZERO JUMPDEST ISZERO PUSH2 0x2474 JUMPI PUSH1 0x40 MLOAD PUSH4 0x9996B315 PUSH1 0xE0 SHL DUP2 MSTORE PUSH1 0x1 PUSH1 0x1 PUSH1 0xA0 SHL SUB DUP6 AND PUSH1 0x4 DUP3 ADD MSTORE PUSH1 0x24 ADD PUSH2 0xC99 JUMP JUMPDEST POP DUP1 JUMPDEST SWAP4 SWAP3 POP POP POP JUMP JUMPDEST DUP1 MLOAD ISZERO PUSH2 0x248D JUMPI DUP1 MLOAD PUSH1 0x20 DUP3 ADD REVERT JUMPDEST PUSH1 0x40 MLOAD PUSH4 0xD6BDA275 PUSH1 0xE0 SHL DUP2 MSTORE PUSH1 0x4 ADD PUSH1 0x40 MLOAD DUP1 SWAP2 SUB SWAP1 REVERT JUMPDEST DUP3 DUP1 SLOAD DUP3 DUP3 SSTORE SWAP1 PUSH1 0x0 MSTORE PUSH1 0x20 PUSH1 0x0 KECCAK256 SWAP1 DUP2 ADD SWAP3 DUP3 ISZERO PUSH2 0x24EC JUMPI SWAP2 PUSH1 0x20 MUL DUP3 ADD JUMPDEST DUP3 DUP2 GT ISZERO PUSH2 0x24EC JUMPI DUP3 MLOAD DUP3 SWAP1 PUSH7 0xFFFFFFFFFFFFFF AND SWAP1 SSTORE SWAP2 PUSH1 0x20 ADD SWAP2 SWAP1 PUSH1 0x1 ADD SWAP1 PUSH2 0x24C6 JUMP JUMPDEST POP PUSH2 0x24F8 SWAP3 SWAP2 POP PUSH2 0x256F JUMP JUMPDEST POP SWAP1 JUMP JUMPDEST POP DUP1 SLOAD PUSH1 0x0 DUP3 SSTORE SWAP1 PUSH1 0x0 MSTORE PUSH1 0x20 PUSH1 0x0 KECCAK256 SWAP1 DUP2 ADD SWAP1 PUSH2 0xC49 SWAP2 SWAP1 PUSH2 0x256F JUMP JUMPDEST DUP3 DUP1 SLOAD DUP3 DUP3 SSTORE SWAP1 PUSH1 0x0 MSTORE PUSH1 0x20 PUSH1 0x0 KECCAK256 SWAP1 DUP2 ADD SWAP3 DUP3 ISZERO PUSH2 0x24EC JUMPI SWAP2 PUSH1 0x20 MUL DUP3 ADD JUMPDEST DUP3 DUP2 GT ISZERO PUSH2 0x24EC JUMPI DUP3 MLOAD DUP3 SLOAD PUSH1 0x1 PUSH1 0x1 PUSH1 0xA0 SHL SUB NOT AND PUSH1 0x1 PUSH1 0x1 PUSH1 0xA0 SHL SUB SWAP1 SWAP2 AND OR DUP3 SSTORE PUSH1 0x20 SWAP1 SWAP3 ADD SWAP2 PUSH1 0x1 SWAP1 SWAP2 ADD SWAP1 PUSH2 0x253A JUMP JUMPDEST JUMPDEST DUP1 DUP3 GT ISZERO PUSH2 0x24F8 JUMPI PUSH1 0x0 DUP2 SSTORE PUSH1 0x1 ADD PUSH2 0x2570 JUMP JUMPDEST DUP1 CALLDATALOAD PUSH1 0x4 DUP2 LT PUSH2 0x2593 JUMPI PUSH1 0x0 DUP1 REVERT JUMPDEST SWAP2 SWAP1 POP JUMP JUMPDEST PUSH1 0x0 PUSH1 0x20 DUP3 DUP5 SUB SLT ISZERO PUSH2 0x25AA JUMPI PUSH1 0x0 DUP1 REVERT JUMPDEST PUSH2 0x2477 DUP3 PUSH2 0x2584 JUMP JUMPDEST PUSH1 0x0 PUSH1 0x20 DUP3 DUP5 SUB SLT ISZERO PUSH2 0x25C5 JUMPI PUSH1 0x0 DUP1 REVERT JUMPDEST POP CALLDATALOAD SWAP2 SWAP1 POP JUMP JUMPDEST PUSH4 0x4E487B71 PUSH1 0xE0 SHL PUSH1 0x0 MSTORE PUSH1 0x21 PUSH1 0x4 MSTORE PUSH1 0x24 PUSH1 0x0 REVERT JUMPDEST PUSH1 0x4 DUP2 LT PUSH2 0x2600 JUMPI PUSH4 0x4E487B71 PUSH1 0xE0 SHL PUSH1 0x0 MSTORE PUSH1 0x21 PUSH1 0x4 MSTORE PUSH1 0x24 PUSH1 0x0 REVERT JUMPDEST SWAP1 MSTORE JUMP JUMPDEST DUP9 DUP2 MSTORE PUSH2 0x100 DUP2 ADD PUSH2 0x2619 PUSH1 0x20 DUP4 ADD DUP11 PUSH2 0x25E2 JUMP JUMPDEST PUSH1 0x40 DUP3 ADD SWAP8 SWAP1 SWAP8 MSTORE PUSH1 0x60 DUP2 ADD SWAP6 SWAP1 SWAP6 MSTORE PUSH1 0x1 PUSH1 0x1 PUSH1 0xA0 SHL SUB SWAP4 SWAP1 SWAP4 AND PUSH1 0x80 DUP6 ADD MSTORE SWAP1 ISZERO ISZERO PUSH1 0xA0 DUP5 ADD MSTORE PUSH1 0xC0 DUP4 ADD MSTORE PUSH1 0xE0 SWAP1 SWAP2 ADD MSTORE SWAP3 SWAP2 POP POP JUMP JUMPDEST PUSH1 0x0 DUP1 PUSH1 0x0 PUSH1 0x60 DUP5 DUP7 SUB SLT ISZERO PUSH2 0x2668 JUMPI PUSH1 0x0 DUP1 REVERT JUMPDEST PUSH2 0x2671 DUP5 PUSH2 0x2584 JUMP JUMPDEST SWAP6 PUSH1 0x20 DUP6 ADD CALLDATALOAD SWAP6 POP PUSH1 0x40 SWAP1 SWAP5 ADD CALLDATALOAD SWAP4 SWAP3 POP POP POP JUMP JUMPDEST DUP1 CALLDATALOAD PUSH1 0x1 PUSH1 0x1 PUSH1 0xA0 SHL SUB DUP2 AND DUP2 EQ PUSH2 0x2593 JUMPI PUSH1 0x0 DUP1 REVERT JUMPDEST PUSH4 0x4E487B71 PUSH1 0xE0 SHL PUSH1 0x0 MSTORE PUSH1 0x41 PUSH1 0x4 MSTORE PUSH1 0x24 PUSH1 0x0 REVERT JUMPDEST PUSH1 0x0 DUP1 PUSH1 0x40 DUP4 DUP6 SUB SLT ISZERO PUSH2 0x26C6 JUMPI PUSH1 0x0 DUP1 REVERT JUMPDEST PUSH2 0x26CF DUP4 PUSH2 0x2686 JUMP JUMPDEST SWAP2 POP PUSH1 0x20 DUP4 ADD CALLDATALOAD PUSH8 0xFFFFFFFFFFFFFFFF DUP1 DUP3 GT ISZERO PUSH2 0x26EC JUMPI PUSH1 0x0 DUP1 REVERT JUMPDEST DUP2 DUP6 ADD SWAP2 POP DUP6 PUSH1 0x1F DUP4 ADD SLT PUSH2 0x2700 JUMPI PUSH1 0x0 DUP1 REVERT JUMPDEST DUP2 CALLDATALOAD DUP2 DUP2 GT ISZERO PUSH2 0x2712 JUMPI PUSH2 0x2712 PUSH2 0x269D JUMP JUMPDEST PUSH1 0x40 MLOAD PUSH1 0x1F DUP3 ADD PUSH1 0x1F NOT SWAP1 DUP2 AND PUSH1 0x3F ADD AND DUP2 ADD SWAP1 DUP4 DUP3 GT DUP2 DUP4 LT OR ISZERO PUSH2 0x273A JUMPI PUSH2 0x273A PUSH2 0x269D JUMP JUMPDEST DUP2 PUSH1 0x40 MSTORE DUP3 DUP2 MSTORE DUP9 PUSH1 0x20 DUP5 DUP8 ADD ADD GT ISZERO PUSH2 0x2753 JUMPI PUSH1 0x0 DUP1 REVERT JUMPDEST DUP3 PUSH1 0x20 DUP7 ADD PUSH1 0x20 DUP4 ADD CALLDATACOPY PUSH1 0x0 PUSH1 0x20 DUP5 DUP4 ADD ADD MSTORE DUP1 SWAP6 POP POP POP POP POP POP SWAP3 POP SWAP3 SWAP1 POP JUMP JUMPDEST PUSH1 0x0 PUSH1 0x20 DUP3 DUP5 SUB SLT ISZERO PUSH2 0x2787 JUMPI PUSH1 0x0 DUP1 REVERT JUMPDEST PUSH2 0x2477 DUP3 PUSH2 0x2686 JUMP JUMPDEST PUSH1 0x1 PUSH1 0x1 PUSH1 0xA0 SHL SUB DUP7 AND DUP2 MSTORE PUSH1 0x20 DUP2 ADD DUP6 SWAP1 MSTORE PUSH1 0xA0 DUP2 ADD PUSH2 0x27B4 PUSH1 0x40 DUP4 ADD DUP7 PUSH2 0x25E2 JUMP JUMPDEST DUP4 PUSH1 0x60 DUP4 ADD MSTORE DUP3 ISZERO ISZERO PUSH1 0x80 DUP4 ADD MSTORE SWAP7 SWAP6 POP POP POP POP POP POP JUMP JUMPDEST PUSH1 0x20 DUP1 DUP3 MSTORE DUP3 MLOAD DUP3 DUP3 ADD DUP2 SWAP1 MSTORE PUSH1 0x0 SWAP2 SWAP1 DUP5 DUP3 ADD SWAP1 PUSH1 0x40 DUP6 ADD SWAP1 DUP5 JUMPDEST DUP2 DUP2 LT ISZERO PUSH2 0x2804 JUMPI DUP4 MLOAD DUP4 MSTORE SWAP3 DUP5 ADD SWAP3 SWAP2 DUP5 ADD SWAP2 PUSH1 0x1 ADD PUSH2 0x27E8 JUMP JUMPDEST POP SWAP1 SWAP7 SWAP6 POP POP POP POP POP POP JUMP JUMPDEST PUSH1 0x0 JUMPDEST DUP4 DUP2 LT ISZERO PUSH2 0x282B JUMPI DUP2 DUP2 ADD MLOAD DUP4 DUP3 ADD MSTORE PUSH1 0x20 ADD PUSH2 0x2813 JUMP JUMPDEST POP POP PUSH1 0x0 SWAP2 ADD MSTORE JUMP JUMPDEST PUSH1 0x20 DUP2 MSTORE PUSH1 0x0 DUP3 MLOAD DUP1 PUSH1 0x20 DUP5 ADD MSTORE PUSH2 0x2853 DUP2 PUSH1 0x40 DUP6 ADD PUSH1 0x20 DUP8 ADD PUSH2 0x2810 JUMP JUMPDEST PUSH1 0x1F ADD PUSH1 0x1F NOT AND SWAP2 SWAP1 SWAP2 ADD PUSH1 0x40 ADD SWAP3 SWAP2 POP POP JUMP JUMPDEST PUSH1 0x0 DUP2 MLOAD DUP1 DUP5 MSTORE PUSH1 0x20 DUP1 DUP6 ADD SWAP5 POP PUSH1 0x20 DUP5 ADD PUSH1 0x0 JUMPDEST DUP4 DUP2 LT ISZERO PUSH2 0x28A1 JUMPI DUP2 MLOAD PUSH1 0x1 PUSH1 0x1 PUSH1 0xA0 SHL SUB AND DUP8 MSTORE SWAP6 DUP3 ADD SWAP6 SWAP1 DUP3 ADD SWAP1 PUSH1 0x1 ADD PUSH2 0x287C JUMP JUMPDEST POP SWAP5 SWAP6 SWAP5 POP POP POP POP POP JUMP JUMPDEST PUSH1 0x20 DUP2 MSTORE DUP2 MLOAD PUSH1 0x20 DUP3 ADD MSTORE PUSH1 0x0 PUSH1 0x20 DUP4 ADD MLOAD PUSH2 0x28CB PUSH1 0x40 DUP5 ADD DUP3 PUSH2 0x25E2 JUMP JUMPDEST POP PUSH1 0x40 DUP4 ADD MLOAD PUSH2 0x120 DUP1 PUSH1 0x60 DUP6 ADD MSTORE PUSH2 0x28E8 PUSH2 0x140 DUP6 ADD DUP4 PUSH2 0x2867 JUMP JUMPDEST SWAP2 POP PUSH1 0x60 DUP6 ADD MLOAD PUSH1 0x80 DUP6 ADD MSTORE PUSH1 0x80 DUP6 ADD MLOAD PUSH1 0xA0 DUP6 ADD MSTORE PUSH1 0xA0 DUP6 ADD MLOAD PUSH2 0x2918 PUSH1 0xC0 DUP7 ADD DUP3 PUSH1 0x1 PUSH1 0x1 PUSH1 0xA0 SHL SUB AND SWAP1 MSTORE JUMP JUMPDEST POP PUSH1 0xC0 DUP6 ADD MLOAD DUP1 ISZERO ISZERO PUSH1 0xE0 DUP7 ADD MSTORE POP PUSH1 0xE0 DUP6 ADD MLOAD PUSH2 0x100 DUP6 DUP2 ADD SWAP2 SWAP1 SWAP2 MSTORE SWAP1 SWAP5 ADD MLOAD SWAP4 SWAP1 SWAP3 ADD SWAP3 SWAP1 SWAP3 MSTORE SWAP2 SWAP1 POP JUMP JUMPDEST PUSH1 0x0 DUP1 PUSH1 0x40 DUP4 DUP6 SUB SLT ISZERO PUSH2 0x295A JUMPI PUSH1 0x0 DUP1 REVERT JUMPDEST PUSH2 0x2963 DUP4 PUSH2 0x2584 JUMP JUMPDEST SWAP5 PUSH1 0x20 SWAP4 SWAP1 SWAP4 ADD CALLDATALOAD SWAP4 POP POP POP JUMP JUMPDEST PUSH4 0x4E487B71 PUSH1 0xE0 SHL PUSH1 0x0 MSTORE PUSH1 0x11 PUSH1 0x4 MSTORE PUSH1 0x24 PUSH1 0x0 REVERT JUMPDEST PUSH1 0x0 PUSH1 0x1 DUP3 ADD PUSH2 0x2999 JUMPI PUSH2 0x2999 PUSH2 0x2971 JUMP JUMPDEST POP PUSH1 0x1 ADD SWAP1 JUMP JUMPDEST DUP1 DUP3 MUL DUP2 ISZERO DUP3 DUP3 DIV DUP5 EQ OR PUSH2 0x12C6 JUMPI PUSH2 0x12C6 PUSH2 0x2971 JUMP JUMPDEST PUSH4 0x4E487B71 PUSH1 0xE0 SHL PUSH1 0x0 MSTORE PUSH1 0x12 PUSH1 0x4 MSTORE PUSH1 0x24 PUSH1 0x0 REVERT JUMPDEST PUSH1 0x0 DUP3 PUSH2 0x29DC JUMPI PUSH2 0x29DC PUSH2 0x29B7 JUMP JUMPDEST POP DIV SWAP1 JUMP JUMPDEST DUP2 DUP2 SUB DUP2 DUP2 GT ISZERO PUSH2 0x12C6 JUMPI PUSH2 0x12C6 PUSH2 0x2971 JUMP JUMPDEST DUP1 DUP3 ADD DUP1 DUP3 GT ISZERO PUSH2 0x12C6 JUMPI PUSH2 0x12C6 PUSH2 0x2971 JUMP JUMPDEST PUSH4 0x4E487B71 PUSH1 0xE0 SHL PUSH1 0x0 MSTORE PUSH1 0x32 PUSH1 0x4 MSTORE PUSH1 0x24 PUSH1 0x0 REVERT JUMPDEST PUSH1 0x0 PUSH1 0x20 DUP3 DUP5 SUB SLT ISZERO PUSH2 0x2A2F JUMPI PUSH1 0x0 DUP1 REVERT JUMPDEST POP MLOAD SWAP2 SWAP1 POP JUMP JUMPDEST PUSH4 0x4E487B71 PUSH1 0xE0 SHL PUSH1 0x0 MSTORE PUSH1 0x31 PUSH1 0x4 MSTORE PUSH1 0x24 PUSH1 0x0 REVERT JUMPDEST PUSH1 0x0 DUP3 PUSH2 0x2A5B JUMPI PUSH2 0x2A5B PUSH2 0x29B7 JUMP JUMPDEST POP MOD SWAP1 JUMP JUMPDEST PUSH1 0x1 PUSH1 0x1 PUSH1 0xA0 SHL SUB DUP5 AND DUP2 MSTORE PUSH1 0x20 DUP2 ADD DUP4 SWAP1 MSTORE PUSH1 0x60 DUP2 ADD PUSH2 0x2A84 PUSH1 0x40 DUP4 ADD DUP5 PUSH2 0x25E2 JUMP JUMPDEST SWAP5 SWAP4 POP POP POP POP JUMP JUMPDEST PUSH1 0x60 DUP2 ADD PUSH2 0x2A9A DUP3 DUP7 PUSH2 0x25E2 JUMP JUMPDEST PUSH1 0x20 DUP3 ADD SWAP4 SWAP1 SWAP4 MSTORE PUSH1 0x40 ADD MSTORE SWAP2 SWAP1 POP JUMP JUMPDEST PUSH1 0x0 DUP3 MLOAD PUSH2 0x2ABD DUP2 DUP5 PUSH1 0x20 DUP8 ADD PUSH2 0x2810 JUMP JUMPDEST SWAP2 SWAP1 SWAP2 ADD SWAP3 SWAP2 POP POP JUMP INVALID SELFBALANCE 0xDB 0x2A 0xBC 0xE6 0xD5 0xFB 0xCD DUP1 SELFDESTRUCT 0xD9 0xB4 0xBA PUSH21 0xDCDE804A746EF732BC7F8A70FABFC912C590360894 LOG1 EXTCODESIZE LOG1 LOG3 0x21 MOD PUSH8 0xC828492DB98DCA3E KECCAK256 PUSH23 0xCC3735A920A3CA505D382BBCA2646970667358221220C2 0xC2 SWAP5 PUSH10 0x40E10388C16133469B0E GT DELEGATECALL PUSH9 0x1AD92E4B758473D39B PC 0xB4 CHAINID PUSH1 0xA7 GAS PUSH5 0x736F6C6343 STOP ADDMOD AND STOP CALLER "},"methodIdentifiers":{"OWNER_FEE_PERCENT()":"a8a3221e","UPGRADE_INTERFACE_VERSION()":"ad3cb1cc","allowedBets(uint256)":"8f945146","battleRoyales(uint256)":"0c02b1ed","cancelWaiting()":"5b34981a","duels(uint256)":"859a62d0","emergencyWithdraw()":"db2e21bc","getAllowedBets()":"a235c4ab","getBattleRoyale(uint256)":"eea9413c","getDuel(uint256)":"565e614f","getMultiplier(uint8)":"0b072b8d","getPlayerStats(address)":"4fd66eae","getRequiredPlayers(uint8)":"43963a91","getWaitingPlayersCount(uint8,uint256)":"f8725424","initialize()":"8129fc1c","isValidBet(uint256)":"f19e774e","joinGame(uint8)":"d0ae92fb","nextBattleRoyaleId()":"1eccb38b","nextDuelId()":"549ec614","nextWaitingId()":"1db62761","owner()":"8da5cb5b","proxiableUUID()":"52d1902d","randomNonce()":"39988a55","renounceOwnership()":"715018a6","totalBattleRoyales()":"a31b8bfd","totalDuels()":"57d628d7","transferOwnership(address)":"f2fde38b","upgradeToAndCall(address,bytes)":"4f1ef286","waitingByModeAndBet(uint8,uint256,uint256)":"125907fc","waitingPlayers(uint256)":"809a6c28"}},"storageLayout":{"storage":[{"astId":2243,"contract":"contracts/GameHubV2.sol:GameHubV2","label":"totalDuels","offset":0,"slot":"0","type":"t_uint256"},{"astId":2245,"contract":"contracts/GameHubV2.sol:GameHubV2","label":"totalBattleRoyales","offset":0,"slot":"1","type":"t_uint256"},{"astId":2247,"contract":"contracts/GameHubV2.sol:GameHubV2","label":"randomNonce","offset":0,"slot":"2","type":"t_uint256"},{"astId":2255,"contract":"contracts/GameHubV2.sol:GameHubV2","label":"duels","offset":0,"slot":"3","type":"t_mapping(t_uint256,t_struct(Duel)2208_storage)"},{"astId":2260,"contract":"contracts/GameHubV2.sol:GameHubV2","label":"battleRoyales","offset":0,"slot":"4","type":"t_mapping(t_uint256,t_struct(BattleRoyale)2229_storage)"},{"astId":2265,"contract":"contracts/GameHubV2.sol:GameHubV2","label":"waitingPlayers","offset":0,"slot":"5","type":"t_mapping(t_uint256,t_struct(WaitingPlayer)2241_storage)"},{"astId":2273,"contract":"contracts/GameHubV2.sol:GameHubV2","label":"waitingByModeAndBet","offset":0,"slot":"6","type":"t_mapping(t_enum(GameMode)2191,t_mapping(t_uint256,t_array(t_uint256)dyn_storage))"},{"astId":2275,"contract":"contracts/GameHubV2.sol:GameHubV2","label":"nextDuelId","offset":0,"slot":"7","type":"t_uint256"},{"astId":2277,"contract":"contracts/GameHubV2.sol:GameHubV2","label":"nextBattleRoyaleId","offset":0,"slot":"8","type":"t_uint256"},{"astId":2279,"contract":"contracts/GameHubV2.sol:GameHubV2","label":"nextWaitingId","offset":0,"slot":"9","type":"t_uint256"},{"astId":2282,"contract":"contracts/GameHubV2.sol:GameHubV2","label":"allowedBets","offset":0,"slot":"10","type":"t_array(t_uint256)dyn_storage"}],"types":{"t_address":{"encoding":"inplace","label":"address","numberOfBytes":"20"},"t_array(t_address)dyn_storage":{"base":"t_address","encoding":"dynamic_array","label":"address[]","numberOfBytes":"32"},"t_array(t_uint256)dyn_storage":{"base":"t_uint256","encoding":"dynamic_array","label":"uint256[]","numberOfBytes":"32"},"t_bool":{"encoding":"inplace","label":"bool","numberOfBytes":"1"},"t_enum(GameMode)2191":{"encoding":"inplace","label":"enum GameHubV2.GameMode","numberOfBytes":"1"},"t_mapping(t_enum(GameMode)2191,t_mapping(t_uint256,t_array(t_uint256)dyn_storage))":{"encoding":"mapping","key":"t_enum(GameMode)2191","label":"mapping(enum GameHubV2.GameMode => mapping(uint256 => uint256[]))","numberOfBytes":"32","value":"t_mapping(t_uint256,t_array(t_uint256)dyn_storage)"},"t_mapping(t_uint256,t_array(t_uint256)dyn_storage)":{"encoding":"mapping","key":"t_uint256","label":"mapping(uint256 => uint256[])","numberOfBytes":"32","value":"t_array(t_uint256)dyn_storage"},"t_mapping(t_uint256,t_struct(BattleRoyale)2229_storage)":{"encoding":"mapping","key":"t_uint256","label":"mapping(uint256 => struct GameHubV2.BattleRoyale)","numberOfBytes":"32","value":"t_struct(BattleRoyale)2229_storage"},"t_mapping(t_uint256,t_struct(Duel)2208_storage)":{"encoding":"mapping","key":"t_uint256","label":"mapping(uint256 => struct GameHubV2.Duel)","numberOfBytes":"32","value":"t_struct(Duel)2208_storage"},"t_mapping(t_uint256,t_struct(WaitingPlayer)2241_storage)":{"encoding":"mapping","key":"t_uint256","label":"mapping(uint256 => struct GameHubV2.WaitingPlayer)","numberOfBytes":"32","value":"t_struct(WaitingPlayer)2241_storage"},"t_struct(BattleRoyale)2229_storage":{"encoding":"inplace","label":"struct GameHubV2.BattleRoyale","members":[{"astId":2210,"contract":"contracts/GameHubV2.sol:GameHubV2","label":"id","offset":0,"slot":"0","type":"t_uint256"},{"astId":2213,"contract":"contracts/GameHubV2.sol:GameHubV2","label":"mode","offset":0,"slot":"1","type":"t_enum(GameMode)2191"},{"astId":2216,"contract":"contracts/GameHubV2.sol:GameHubV2","label":"players","offset":0,"slot":"2","type":"t_array(t_address)dyn_storage"},{"astId":2218,"contract":"contracts/GameHubV2.sol:GameHubV2","label":"betAmount","offset":0,"slot":"3","type":"t_uint256"},{"astId":2220,"contract":"contracts/GameHubV2.sol:GameHubV2","label":"startTime","offset":0,"slot":"4","type":"t_uint256"},{"astId":2222,"contract":"contracts/GameHubV2.sol:GameHubV2","label":"winner","offset":0,"slot":"5","type":"t_address"},{"astId":2224,"contract":"contracts/GameHubV2.sol:GameHubV2","label":"completed","offset":20,"slot":"5","type":"t_bool"},{"astId":2226,"contract":"contracts/GameHubV2.sol:GameHubV2","label":"randomSeed","offset":0,"slot":"6","type":"t_uint256"},{"astId":2228,"contract":"contracts/GameHubV2.sol:GameHubV2","label":"requiredPlayers","offset":0,"slot":"7","type":"t_uint256"}],"numberOfBytes":"256"},"t_struct(Duel)2208_storage":{"encoding":"inplace","label":"struct GameHubV2.Duel","members":[{"astId":2193,"contract":"contracts/GameHubV2.sol:GameHubV2","label":"id","offset":0,"slot":"0","type":"t_uint256"},{"astId":2195,"contract":"contracts/GameHubV2.sol:GameHubV2","label":"player1","offset":0,"slot":"1","type":"t_address"},{"astId":2197,"contract":"contracts/GameHubV2.sol:GameHubV2","label":"player2","offset":0,"slot":"2","type":"t_address"},{"astId":2199,"contract":"contracts/GameHubV2.sol:GameHubV2","label":"betAmount","offset":0,"slot":"3","type":"t_uint256"},{"astId":2201,"contract":"contracts/GameHubV2.sol:GameHubV2","label":"timestamp","offset":0,"slot":"4","type":"t_uint256"},{"astId":2203,"contract":"contracts/GameHubV2.sol:GameHubV2","label":"winner","offset":0,"slot":"5","type":"t_address"},{"astId":2205,"contract":"contracts/GameHubV2.sol:GameHubV2","label":"completed","offset":20,"slot":"5","type":"t_bool"},{"astId":2207,"contract":"contracts/GameHubV2.sol:GameHubV2","label":"randomSeed","offset":0,"slot":"6","type":"t_uint256"}],"numberOfBytes":"224"},"t_struct(WaitingPlayer)2241_storage":{"encoding":"inplace","label":"struct GameHubV2.WaitingPlayer","members":[{"astId":2231,"contract":"contracts/GameHubV2.sol:GameHubV2","label":"player","offset":0,"slot":"0","type":"t_address"},{"astId":2233,"contract":"contracts/GameHubV2.sol:GameHubV2","label":"betAmount","offset":0,"slot":"1","type":"t_uint256"},{"astId":2236,"contract":"contracts/GameHubV2.sol:GameHubV2","label":"mode","offset":0,"slot":"2","type":"t_enum(GameMode)2191"},{"astId":2238,"contract":"contracts/GameHubV2.sol:GameHubV2","label":"joinTime","offset":0,"slot":"3","type":"t_uint256"},{"astId":2240,"contract":"contracts/GameHubV2.sol:GameHubV2","label":"active","offset":0,"slot":"4","type":"t_bool"}],"numberOfBytes":"160"},"t_uint256":{"encoding":"inplace","label":"uint256","numberOfBytes":"32"}}}}}}