{"contracts/DuelGame.sol":{"DuelGame":{"abi":[{"inputs":[],"stateMutability":"nonpayable","type":"constructor"},{"anonymous":false,"inputs":[{"indexed":true,"internalType":"uint256","name":"duelId","type":"uint256"},{"indexed":false,"internalType":"address","name":"winner","type":"address"},{"indexed":false,"internalType":"uint256","name":"prize","type":"uint256"},{"indexed":false,"internalType":"uint256","name":"randomSeed","type":"uint256"}],"name":"DuelCompleted","type":"event"},{"anonymous":false,"inputs":[{"indexed":true,"internalType":"uint256","name":"duelId","type":"uint256"},{"indexed":false,"internalType":"address","name":"player1","type":"address"},{"indexed":false,"internalType":"address","name":"player2","type":"address"},{"indexed":false,"internalType":"uint256","name":"betAmount","type":"uint256"}],"name":"DuelStarted","type":"event"},{"anonymous":false,"inputs":[{"indexed":false,"internalType":"address","name":"to","type":"address"},{"indexed":false,"internalType":"uint256","name":"amount","type":"uint256"}],"name":"PaymentSent","type":"event"},{"anonymous":false,"inputs":[{"indexed":true,"internalType":"uint256","name":"waitingId","type":"uint256"},{"indexed":false,"internalType":"address","name":"player","type":"address"},{"indexed":false,"internalType":"uint256","name":"betAmount","type":"uint256"}],"name":"PlayerWaiting","type":"event"},{"inputs":[],"name":"OWNER_FEE_PERCENT","outputs":[{"internalType":"uint256","name":"","type":"uint256"}],"stateMutability":"view","type":"function"},{"inputs":[{"internalType":"uint256","name":"","type":"uint256"}],"name":"allowedBets","outputs":[{"internalType":"uint256","name":"","type":"uint256"}],"stateMutability":"view","type":"function"},{"inputs":[],"name":"cancelWaiting","outputs":[],"stateMutability":"nonpayable","type":"function"},{"inputs":[{"internalType":"uint256","name":"","type":"uint256"}],"name":"duels","outputs":[{"internalType":"uint256","name":"id","type":"uint256"},{"internalType":"address","name":"player1","type":"address"},{"internalType":"address","name":"player2","type":"address"},{"internalType":"uint256","name":"betAmount","type":"uint256"},{"internalType":"uint256","name":"timestamp","type":"uint256"},{"internalType":"address","name":"winner","type":"address"},{"internalType":"bool","name":"completed","type":"bool"},{"internalType":"uint256","name":"randomSeed","type":"uint256"}],"stateMutability":"view","type":"function"},{"inputs":[],"name":"emergencyWithdraw","outputs":[],"stateMutability":"nonpayable","type":"function"},{"inputs":[],"name":"getAllowedBets","outputs":[{"internalType":"uint256[]","name":"","type":"uint256[]"}],"stateMutability":"view","type":"function"},{"inputs":[{"internalType":"uint256","name":"duelId","type":"uint256"}],"name":"getDuel","outputs":[{"components":[{"internalType":"uint256","name":"id","type":"uint256"},{"internalType":"address","name":"player1","type":"address"},{"internalType":"address","name":"player2","type":"address"},{"internalType":"uint256","name":"betAmount","type":"uint256"},{"internalType":"uint256","name":"timestamp","type":"uint256"},{"internalType":"address","name":"winner","type":"address"},{"internalType":"bool","name":"completed","type":"bool"},{"internalType":"uint256","name":"randomSeed","type":"uint256"}],"internalType":"struct DuelGame.Duel","name":"","type":"tuple"}],"stateMutability":"view","type":"function"},{"inputs":[{"internalType":"address","name":"player","type":"address"}],"name":"getPlayerStats","outputs":[{"internalType":"uint256","name":"totalGames","type":"uint256"},{"internalType":"uint256","name":"wins","type":"uint256"},{"internalType":"uint256","name":"totalWinnings","type":"uint256"}],"stateMutability":"view","type":"function"},{"inputs":[{"internalType":"uint256","name":"betAmount","type":"uint256"}],"name":"getWaitingPlayersCount","outputs":[{"internalType":"uint256","name":"","type":"uint256"}],"stateMutability":"view","type":"function"},{"inputs":[{"internalType":"uint256","name":"amount","type":"uint256"}],"name":"isValidBet","outputs":[{"internalType":"bool","name":"","type":"bool"}],"stateMutability":"view","type":"function"},{"inputs":[],"name":"joinDuel","outputs":[],"stateMutability":"payable","type":"function"},{"inputs":[],"name":"nextDuelId","outputs":[{"internalType":"uint256","name":"","type":"uint256"}],"stateMutability":"view","type":"function"},{"inputs":[],"name":"nextWaitingId","outputs":[{"internalType":"uint256","name":"","type":"uint256"}],"stateMutability":"view","type":"function"},{"inputs":[],"name":"owner","outputs":[{"internalType":"address","name":"","type":"address"}],"stateMutability":"view","type":"function"},{"inputs":[],"name":"randomNonce","outputs":[{"internalType":"uint256","name":"","type":"uint256"}],"stateMutability":"view","type":"function"},{"inputs":[],"name":"totalDuels","outputs":[{"internalType":"uint256","name":"","type":"uint256"}],"stateMutability":"view","type":"function"},{"inputs":[{"internalType":"uint256","name":"","type":"uint256"},{"internalType":"uint256","name":"","type":"uint256"}],"name":"waitingByBet","outputs":[{"internalType":"uint256","name":"","type":"uint256"}],"stateMutability":"view","type":"function"},{"inputs":[{"internalType":"uint256","name":"","type":"uint256"}],"name":"waitingPlayers","outputs":[{"internalType":"address","name":"player","type":"address"},{"internalType":"uint256","name":"betAmount","type":"uint256"},{"internalType":"uint256","name":"joinTime","type":"uint256"},{"internalType":"bool","name":"active","type":"bool"}],"stateMutability":"view","type":"function"}],"evm":{"bytecode":{"linkReferences":{},"object":"600160068190556007556101006040526509184e72a0006080908152655af3107a400060a05266038d7ea4c6800060c052662386f26fc1000060e052610049906008906004610072565b5034801561005657600080fd5b50600080546001600160a01b03191633179055426002556100dd565b8280548282559060005260206000209081019282156100b8579160200282015b828111156100b8578251829066ffffffffffffff16905591602001919060010190610092565b506100c49291506100c8565b5090565b5b808211156100c457600081556001016100c9565b611255806100ec6000396000f3fe6080604052600436106101095760003560e01c8063859a62d011610095578063a235c4ab11610064578063a235c4ab146104db578063a8a3221e146104fd578063db2e21bc14610512578063f19e774e14610527578063f3f93b921461055757600080fd5b8063859a62d0146103b75780638da5cb5b1461047b5780638f945146146104b35780639bfc4f14146104d357600080fd5b8063549ec614116100dc578063549ec614146101a8578063565e614f146101be57806357d628d71461030f5780635b34981a14610325578063809a6c281461033c57600080fd5b80631db627611461010e5780632dd5fd841461013757806339988a55146101575780634fd66eae1461016d575b600080fd5b34801561011a57600080fd5b5061012460075481565b6040519081526020015b60405180910390f35b34801561014357600080fd5b5061012461015236600461109a565b610577565b34801561016357600080fd5b5061012460025481565b34801561017957600080fd5b5061018d6101883660046110bc565b6105a8565b6040805193845260208401929092529082015260600161012e565b3480156101b457600080fd5b5061012460065481565b3480156101ca57600080fd5b5061029c6101d93660046110ec565b6040805161010081018252600080825260208201819052918101829052606081018290526080810182905260a0810182905260c0810182905260e0810191909152506000908152600360208181526040928390208351610100810185528154815260018201546001600160a01b0390811693820193909352600282015483169481019490945291820154606084015260048201546080840152600582015490811660a0840152600160a01b900460ff16151560c08301526006015460e082015290565b60405161012e919060006101008201905082518252602083015160018060a01b03808216602085015280604086015116604085015260608501516060850152608085015160808501528060a08601511660a0850152505060c0830151151560c083015260e083015160e083015292915050565b34801561031b57600080fd5b5061012460015481565b34801561033157600080fd5b5061033a6106aa565b005b34801561034857600080fd5b5061038b6103573660046110ec565b60046020526000908152604090208054600182015460028301546003909301546001600160a01b0390921692909160ff1684565b604080516001600160a01b0390951685526020850193909352918301521515606082015260800161012e565b3480156103c357600080fd5b5061042c6103d23660046110ec565b6003602081905260009182526040909120805460018201546002830154938301546004840154600585015460069095015493956001600160a01b0393841695908416949293919291811691600160a01b90910460ff169088565b604080519889526001600160a01b0397881660208a0152958716958801959095526060870193909352608086019190915290921660a084015290151560c083015260e08201526101000161012e565b34801561048757600080fd5b5060005461049b906001600160a01b031681565b6040516001600160a01b03909116815260200161012e565b3480156104bf57600080fd5b506101246104ce3660046110ec565b6107b2565b61033a6107d3565b3480156104e757600080fd5b506104f0610992565b60405161012e9190611105565b34801561050957600080fd5b50610124600a81565b34801561051e57600080fd5b5061033a6109ea565b34801561053357600080fd5b506105476105423660046110ec565b610a6b565b604051901515815260200161012e565b34801561056357600080fd5b506101246105723660046110ec565b610ab7565b6005602052816000526040600020818154811061059357600080fd5b90600052602060002001600091509150505481565b6000808060015b6006548110156106a2576000818152600360205260409020600101546001600160a01b038681169116148061060057506000818152600360205260409020600201546001600160a01b038681169116145b1561069a578361060f8161115f565b6000838152600360205260409020600501549095506001600160a01b03808816911603905061069a57826106428161115f565b6000838152600360208190526040822001549195509150610664906002611178565b905060006064610675600a84611178565b61067f91906111a5565b905061068b81836111b9565b61069590856111cc565b935050505b6001016105af565b509193909250565b60015b600754811015610764576000818152600460205260409020546001600160a01b0316331480156106ee575060008181526004602052604090206003015460ff165b1561075c5760008181526004602052604080822060038101805460ff19169055600101549051339282156108fc02929190818181858888f1935050505015801561073c573d6000803e3d6000fd5b506000818152600460205260409020600101546107599082610b2e565b50565b6001016106ad565b5060405162461bcd60e51b815260206004820152601760248201527f4e6f206163746976652077616974696e6720666f756e6400000000000000000060448201526064015b60405180910390fd5b600881815481106107c257600080fd5b600091825260209091200154905081565b6107dc34610a6b565b61081d5760405162461bcd60e51b8152602060048201526012602482015271125b9d985b1a590818995d08185b5bdd5b9d60721b60448201526064016107a9565b6000341161085d5760405162461bcd60e51b815260206004820152600d60248201526c09aeae6e840e6cadcc8408aa89609b1b60448201526064016107a9565b600061086834610bee565b905080156108ae5760008181526004602052604090208054610894906001600160a01b03163334610c83565b60038101805460ff191690556108aa3483610b2e565b5050565b60078054600091826108bf8361115f565b9091555060408051608081018252338082523460208084018281524285870190815260016060870181815260008a815260048652898120985189546001600160a01b0319166001600160a01b039091161789559351888301559151600288015590516003909601805460ff1916961515969096179095558281526005825285812080549586018155815281902090930185905583519182529181019190915291925082917f7252c9301281f4e684ab84d6af32c78060b90e08a64dccd727ed6dcab4b2755f910160405180910390a25050565b606060088054806020026020016040519081016040528092919081815260200182805480156109e057602002820191906000526020600020905b8154815260200190600101908083116109cc575b5050505050905090565b6000546001600160a01b03163314610a315760405162461bcd60e51b815260206004820152600a60248201526927b7363c9037bbb732b960b11b60448201526064016107a9565b600080546040516001600160a01b03909116914780156108fc02929091818181858888f19350505050158015610759573d6000803e3d6000fd5b6000805b600854811015610aae578260088281548110610a8d57610a8d6111df565b906000526020600020015403610aa65750600192915050565b600101610a6f565b50600092915050565b60008181526005602052604081208190815b8154811015610b255760046000838381548110610ae857610ae86111df565b6000918252602080832090910154835282019290925260400190206003015460ff1615610b1d5782610b198161115f565b9350505b600101610ac9565b50909392505050565b6000828152600560205260408120905b8154811015610be85782828281548110610b5a57610b5a6111df565b906000526020600020015403610be05781548290610b7a906001906111b9565b81548110610b8a57610b8a6111df565b9060005260206000200154828281548110610ba757610ba76111df565b906000526020600020018190555081805480610bc557610bc56111f5565b60019003818190600052602060002001600090559055610be8565b600101610b3e565b50505050565b6000818152600560205260408120815b8154811015610c79576000828281548110610c1b57610c1b6111df565b6000918252602080832090910154808352600490915260409091206003015490915060ff168015610c6357506000818152600460205260409020546001600160a01b03163314155b15610c7057949350505050565b50600101610bfe565b5060009392505050565b60028054906000610c938361115f565b91905055506000610ca4848461100b565b90506000610cb360028361120b565b905060008115610cc35784610cc5565b855b600680549192506000919082610cda8361115f565b919050559050604051806101000160405280828152602001886001600160a01b03168152602001876001600160a01b03168152602001868152602001428152602001836001600160a01b0316815260200160011515815260200185815250600360008381526020019081526020016000206000820151816000015560208201518160010160006101000a8154816001600160a01b0302191690836001600160a01b0316021790555060408201518160020160006101000a8154816001600160a01b0302191690836001600160a01b03160217905550606082015181600301556080820151816004015560a08201518160050160006101000a8154816001600160a01b0302191690836001600160a01b0316021790555060c08201518160050160146101000a81548160ff02191690831515021790555060e082015181600601559050506000856002610e2c9190611178565b905060006064610e3d600a84611178565b610e4791906111a5565b90506000610e5582846111b9565b6040519091506001600160a01b0386169082156108fc029083906000818181858888f19350505050158015610e8e573d6000803e3d6000fd5b50600080546040516001600160a01b039091169184156108fc02918591818181858888f19350505050158015610ec8573d6000803e3d6000fd5b5060018054906000610ed98361115f565b9091555050604080516001600160a01b03808d1682528b16602082015290810189905284907f32a4a869175589db4f7700ac66e13712c68344029a4dc6411c67a3a89cc020889060600160405180910390a2604080516001600160a01b03871681526020810183905290810188905284907f82805c62658f0d4e2e9a11270a627f27493b4ae9968841f58becef279bd3f7c69060600160405180910390a2604080516001600160a01b0387168152602081018390527f47db2abce6d5fbcd80ffd9b4ba74dcde804a746ef732bc7f8a70fabfc912c590910160405180910390a1600054604080516001600160a01b039092168252602082018490527f47db2abce6d5fbcd80ffd9b4ba74dcde804a746ef732bc7f8a70fabfc912c590910160405180910390a150505050505050505050565b6000444243858560025460014361102291906111b9565b405a60408051602081019990995288019690965260608088019590955292841b6bffffffffffffffffffffffff1990811660808801529190931b16609485015260a884019190915260c883015260e8820152610108016040516020818303038152906040528051906020012060001c90505b92915050565b600080604083850312156110ad57600080fd5b50508035926020909101359150565b6000602082840312156110ce57600080fd5b81356001600160a01b03811681146110e557600080fd5b9392505050565b6000602082840312156110fe57600080fd5b5035919050565b6020808252825182820181905260009190848201906040850190845b8181101561113d57835183529284019291840191600101611121565b50909695505050505050565b634e487b7160e01b600052601160045260246000fd5b60006001820161117157611171611149565b5060010190565b808202811582820484141761109457611094611149565b634e487b7160e01b600052601260045260246000fd5b6000826111b4576111b461118f565b500490565b8181038181111561109457611094611149565b8082018082111561109457611094611149565b634e487b7160e01b600052603260045260246000fd5b634e487b7160e01b600052603160045260246000fd5b60008261121a5761121a61118f565b50069056fea26469706673582212209efabbad3bf548e7e7ca303a83dc7b3d73125c05a875c5d8f124d7127cb5b69964736f6c63430008160033","opcodes":"PUSH1 0x1 PUSH1 0x6 DUP2 SWAP1 SSTORE PUSH1 0x7 SSTORE PUSH2 0x100 PUSH1 0x40 MSTORE PUSH6 0x9184E72A000 PUSH1 0x80 SWAP1 DUP2 MSTORE PUSH6 0x5AF3107A4000 PUSH1 0xA0 MSTORE PUSH7 0x38D7EA4C68000 PUSH1 0xC0 MSTORE PUSH7 0x2386F26FC10000 PUSH1 0xE0 MSTORE PUSH2 0x49 SWAP1 PUSH1 0x8 SWAP1 PUSH1 0x4 PUSH2 0x72 JUMP JUMPDEST POP CALLVALUE DUP1 ISZERO PUSH2 0x56 JUMPI PUSH1 0x0 DUP1 REVERT JUMPDEST POP PUSH1 0x0 DUP1 SLOAD PUSH1 0x1 PUSH1 0x1 PUSH1 0xA0 SHL SUB NOT AND CALLER OR SWAP1 SSTORE TIMESTAMP PUSH1 0x2 SSTORE PUSH2 0xDD JUMP JUMPDEST DUP3 DUP1 SLOAD DUP3 DUP3 SSTORE SWAP1 PUSH1 0x0 MSTORE PUSH1 0x20 PUSH1 0x0 KECCAK256 SWAP1 DUP2 ADD SWAP3 DUP3 ISZERO PUSH2 0xB8 JUMPI SWAP2 PUSH1 0x20 MUL DUP3 ADD JUMPDEST DUP3 DUP2 GT ISZERO PUSH2 0xB8 JUMPI DUP3 MLOAD DUP3 SWAP1 PUSH7 0xFFFFFFFFFFFFFF AND SWAP1 SSTORE SWAP2 PUSH1 0x20 ADD SWAP2 SWAP1 PUSH1 0x1 ADD SWAP1 PUSH2 0x92 JUMP JUMPDEST POP PUSH2 0xC4 SWAP3 SWAP2 POP PUSH2 0xC8 JUMP JUMPDEST POP SWAP1 JUMP JUMPDEST JUMPDEST DUP1 DUP3 GT ISZERO PUSH2 0xC4 JUMPI PUSH1 0x0 DUP2 SSTORE PUSH1 0x1 ADD PUSH2 0xC9 JUMP JUMPDEST PUSH2 0x1255 DUP1 PUSH2 0xEC PUSH1 0x0 CODECOPY PUSH1 0x0 RETURN INVALID PUSH1 0x80 PUSH1 0x40 MSTORE PUSH1 0x4 CALLDATASIZE LT PUSH2 0x109 JUMPI PUSH1 0x0 CALLDATALOAD PUSH1 0xE0 SHR DUP1 PUSH4 0x859A62D0 GT PUSH2 0x95 JUMPI DUP1 PUSH4 0xA235C4AB GT PUSH2 0x64 JUMPI DUP1 PUSH4 0xA235C4AB EQ PUSH2 0x4DB JUMPI DUP1 PUSH4 0xA8A3221E EQ PUSH2 0x4FD JUMPI DUP1 PUSH4 0xDB2E21BC EQ PUSH2 0x512 JUMPI DUP1 PUSH4 0xF19E774E EQ PUSH2 0x527 JUMPI DUP1 PUSH4 0xF3F93B92 EQ PUSH2 0x557 JUMPI PUSH1 0x0 DUP1 REVERT JUMPDEST DUP1 PUSH4 0x859A62D0 EQ PUSH2 0x3B7 JUMPI DUP1 PUSH4 0x8DA5CB5B EQ PUSH2 0x47B JUMPI DUP1 PUSH4 0x8F945146 EQ PUSH2 0x4B3 JUMPI DUP1 PUSH4 0x9BFC4F14 EQ PUSH2 0x4D3 JUMPI PUSH1 0x0 DUP1 REVERT JUMPDEST DUP1 PUSH4 0x549EC614 GT PUSH2 0xDC JUMPI DUP1 PUSH4 0x549EC614 EQ PUSH2 0x1A8 JUMPI DUP1 PUSH4 0x565E614F EQ PUSH2 0x1BE JUMPI DUP1 PUSH4 0x57D628D7 EQ PUSH2 0x30F JUMPI DUP1 PUSH4 0x5B34981A EQ PUSH2 0x325 JUMPI DUP1 PUSH4 0x809A6C28 EQ PUSH2 0x33C JUMPI PUSH1 0x0 DUP1 REVERT JUMPDEST DUP1 PUSH4 0x1DB62761 EQ PUSH2 0x10E JUMPI DUP1 PUSH4 0x2DD5FD84 EQ PUSH2 0x137 JUMPI DUP1 PUSH4 0x39988A55 EQ PUSH2 0x157 JUMPI DUP1 PUSH4 0x4FD66EAE EQ PUSH2 0x16D JUMPI JUMPDEST PUSH1 0x0 DUP1 REVERT JUMPDEST CALLVALUE DUP1 ISZERO PUSH2 0x11A JUMPI PUSH1 0x0 DUP1 REVERT JUMPDEST POP PUSH2 0x124 PUSH1 0x7 SLOAD DUP2 JUMP JUMPDEST PUSH1 0x40 MLOAD SWAP1 DUP2 MSTORE PUSH1 0x20 ADD JUMPDEST PUSH1 0x40 MLOAD DUP1 SWAP2 SUB SWAP1 RETURN JUMPDEST CALLVALUE DUP1 ISZERO PUSH2 0x143 JUMPI PUSH1 0x0 DUP1 REVERT JUMPDEST POP PUSH2 0x124 PUSH2 0x152 CALLDATASIZE PUSH1 0x4 PUSH2 0x109A JUMP JUMPDEST PUSH2 0x577 JUMP JUMPDEST CALLVALUE DUP1 ISZERO PUSH2 0x163 JUMPI PUSH1 0x0 DUP1 REVERT JUMPDEST POP PUSH2 0x124 PUSH1 0x2 SLOAD DUP2 JUMP JUMPDEST CALLVALUE DUP1 ISZERO PUSH2 0x179 JUMPI PUSH1 0x0 DUP1 REVERT JUMPDEST POP PUSH2 0x18D PUSH2 0x188 CALLDATASIZE PUSH1 0x4 PUSH2 0x10BC JUMP JUMPDEST PUSH2 0x5A8 JUMP JUMPDEST PUSH1 0x40 DUP1 MLOAD SWAP4 DUP5 MSTORE PUSH1 0x20 DUP5 ADD SWAP3 SWAP1 SWAP3 MSTORE SWAP1 DUP3 ADD MSTORE PUSH1 0x60 ADD PUSH2 0x12E JUMP JUMPDEST CALLVALUE DUP1 ISZERO PUSH2 0x1B4 JUMPI PUSH1 0x0 DUP1 REVERT JUMPDEST POP PUSH2 0x124 PUSH1 0x6 SLOAD DUP2 JUMP JUMPDEST CALLVALUE DUP1 ISZERO PUSH2 0x1CA JUMPI PUSH1 0x0 DUP1 REVERT JUMPDEST POP PUSH2 0x29C PUSH2 0x1D9 CALLDATASIZE PUSH1 0x4 PUSH2 0x10EC JUMP JUMPDEST PUSH1 0x40 DUP1 MLOAD PUSH2 0x100 DUP2 ADD DUP3 MSTORE PUSH1 0x0 DUP1 DUP3 MSTORE PUSH1 0x20 DUP3 ADD DUP2 SWAP1 MSTORE SWAP2 DUP2 ADD DUP3 SWAP1 MSTORE PUSH1 0x60 DUP2 ADD DUP3 SWAP1 MSTORE PUSH1 0x80 DUP2 ADD DUP3 SWAP1 MSTORE PUSH1 0xA0 DUP2 ADD DUP3 SWAP1 MSTORE PUSH1 0xC0 DUP2 ADD DUP3 SWAP1 MSTORE PUSH1 0xE0 DUP2 ADD SWAP2 SWAP1 SWAP2 MSTORE POP PUSH1 0x0 SWAP1 DUP2 MSTORE PUSH1 0x3 PUSH1 0x20 DUP2 DUP2 MSTORE PUSH1 0x40 SWAP3 DUP4 SWAP1 KECCAK256 DUP4 MLOAD PUSH2 0x100 DUP2 ADD DUP6 MSTORE DUP2 SLOAD DUP2 MSTORE PUSH1 0x1 DUP3 ADD SLOAD PUSH1 0x1 PUSH1 0x1 PUSH1 0xA0 SHL SUB SWAP1 DUP2 AND SWAP4 DUP3 ADD SWAP4 SWAP1 SWAP4 MSTORE PUSH1 0x2 DUP3 ADD SLOAD DUP4 AND SWAP5 DUP2 ADD SWAP5 SWAP1 SWAP5 MSTORE SWAP2 DUP3 ADD SLOAD PUSH1 0x60 DUP5 ADD MSTORE PUSH1 0x4 DUP3 ADD SLOAD PUSH1 0x80 DUP5 ADD MSTORE PUSH1 0x5 DUP3 ADD SLOAD SWAP1 DUP2 AND PUSH1 0xA0 DUP5 ADD MSTORE PUSH1 0x1 PUSH1 0xA0 SHL SWAP1 DIV PUSH1 0xFF AND ISZERO ISZERO PUSH1 0xC0 DUP4 ADD MSTORE PUSH1 0x6 ADD SLOAD PUSH1 0xE0 DUP3 ADD MSTORE SWAP1 JUMP JUMPDEST PUSH1 0x40 MLOAD PUSH2 0x12E SWAP2 SWAP1 PUSH1 0x0 PUSH2 0x100 DUP3 ADD SWAP1 POP DUP3 MLOAD DUP3 MSTORE PUSH1 0x20 DUP4 ADD MLOAD PUSH1 0x1 DUP1 PUSH1 0xA0 SHL SUB DUP1 DUP3 AND PUSH1 0x20 DUP6 ADD MSTORE DUP1 PUSH1 0x40 DUP7 ADD MLOAD AND PUSH1 0x40 DUP6 ADD MSTORE PUSH1 0x60 DUP6 ADD MLOAD PUSH1 0x60 DUP6 ADD MSTORE PUSH1 0x80 DUP6 ADD MLOAD PUSH1 0x80 DUP6 ADD MSTORE DUP1 PUSH1 0xA0 DUP7 ADD MLOAD AND PUSH1 0xA0 DUP6 ADD MSTORE POP POP PUSH1 0xC0 DUP4 ADD MLOAD ISZERO ISZERO PUSH1 0xC0 DUP4 ADD MSTORE PUSH1 0xE0 DUP4 ADD MLOAD PUSH1 0xE0 DUP4 ADD MSTORE SWAP3 SWAP2 POP POP JUMP JUMPDEST CALLVALUE DUP1 ISZERO PUSH2 0x31B JUMPI PUSH1 0x0 DUP1 REVERT JUMPDEST POP PUSH2 0x124 PUSH1 0x1 SLOAD DUP2 JUMP JUMPDEST CALLVALUE DUP1 ISZERO PUSH2 0x331 JUMPI PUSH1 0x0 DUP1 REVERT JUMPDEST POP PUSH2 0x33A PUSH2 0x6AA JUMP JUMPDEST STOP JUMPDEST CALLVALUE DUP1 ISZERO PUSH2 0x348 JUMPI PUSH1 0x0 DUP1 REVERT JUMPDEST POP PUSH2 0x38B PUSH2 0x357 CALLDATASIZE PUSH1 0x4 PUSH2 0x10EC JUMP JUMPDEST PUSH1 0x4 PUSH1 0x20 MSTORE PUSH1 0x0 SWAP1 DUP2 MSTORE PUSH1 0x40 SWAP1 KECCAK256 DUP1 SLOAD PUSH1 0x1 DUP3 ADD SLOAD PUSH1 0x2 DUP4 ADD SLOAD PUSH1 0x3 SWAP1 SWAP4 ADD SLOAD PUSH1 0x1 PUSH1 0x1 PUSH1 0xA0 SHL SUB SWAP1 SWAP3 AND SWAP3 SWAP1 SWAP2 PUSH1 0xFF AND DUP5 JUMP JUMPDEST PUSH1 0x40 DUP1 MLOAD PUSH1 0x1 PUSH1 0x1 PUSH1 0xA0 SHL SUB SWAP1 SWAP6 AND DUP6 MSTORE PUSH1 0x20 DUP6 ADD SWAP4 SWAP1 SWAP4 MSTORE SWAP2 DUP4 ADD MSTORE ISZERO ISZERO PUSH1 0x60 DUP3 ADD MSTORE PUSH1 0x80 ADD PUSH2 0x12E JUMP JUMPDEST CALLVALUE DUP1 ISZERO PUSH2 0x3C3 JUMPI PUSH1 0x0 DUP1 REVERT JUMPDEST POP PUSH2 0x42C PUSH2 0x3D2 CALLDATASIZE PUSH1 0x4 PUSH2 0x10EC JUMP JUMPDEST PUSH1 0x3 PUSH1 0x20 DUP2 SWAP1 MSTORE PUSH1 0x0 SWAP2 DUP3 MSTORE PUSH1 0x40 SWAP1 SWAP2 KECCAK256 DUP1 SLOAD PUSH1 0x1 DUP3 ADD SLOAD PUSH1 0x2 DUP4 ADD SLOAD SWAP4 DUP4 ADD SLOAD PUSH1 0x4 DUP5 ADD SLOAD PUSH1 0x5 DUP6 ADD SLOAD PUSH1 0x6 SWAP1 SWAP6 ADD SLOAD SWAP4 SWAP6 PUSH1 0x1 PUSH1 0x1 PUSH1 0xA0 SHL SUB SWAP4 DUP5 AND SWAP6 SWAP1 DUP5 AND SWAP5 SWAP3 SWAP4 SWAP2 SWAP3 SWAP2 DUP2 AND SWAP2 PUSH1 0x1 PUSH1 0xA0 SHL SWAP1 SWAP2 DIV PUSH1 0xFF AND SWAP1 DUP9 JUMP JUMPDEST PUSH1 0x40 DUP1 MLOAD SWAP9 DUP10 MSTORE PUSH1 0x1 PUSH1 0x1 PUSH1 0xA0 SHL SUB SWAP8 DUP9 AND PUSH1 0x20 DUP11 ADD MSTORE SWAP6 DUP8 AND SWAP6 DUP9 ADD SWAP6 SWAP1 SWAP6 MSTORE PUSH1 0x60 DUP8 ADD SWAP4 SWAP1 SWAP4 MSTORE PUSH1 0x80 DUP7 ADD SWAP2 SWAP1 SWAP2 MSTORE SWAP1 SWAP3 AND PUSH1 0xA0 DUP5 ADD MSTORE SWAP1 ISZERO ISZERO PUSH1 0xC0 DUP4 ADD MSTORE PUSH1 0xE0 DUP3 ADD MSTORE PUSH2 0x100 ADD PUSH2 0x12E JUMP JUMPDEST CALLVALUE DUP1 ISZERO PUSH2 0x487 JUMPI PUSH1 0x0 DUP1 REVERT JUMPDEST POP PUSH1 0x0 SLOAD PUSH2 0x49B SWAP1 PUSH1 0x1 PUSH1 0x1 PUSH1 0xA0 SHL SUB AND DUP2 JUMP JUMPDEST PUSH1 0x40 MLOAD PUSH1 0x1 PUSH1 0x1 PUSH1 0xA0 SHL SUB SWAP1 SWAP2 AND DUP2 MSTORE PUSH1 0x20 ADD PUSH2 0x12E JUMP JUMPDEST CALLVALUE DUP1 ISZERO PUSH2 0x4BF JUMPI PUSH1 0x0 DUP1 REVERT JUMPDEST POP PUSH2 0x124 PUSH2 0x4CE CALLDATASIZE PUSH1 0x4 PUSH2 0x10EC JUMP JUMPDEST PUSH2 0x7B2 JUMP JUMPDEST PUSH2 0x33A PUSH2 0x7D3 JUMP JUMPDEST CALLVALUE DUP1 ISZERO PUSH2 0x4E7 JUMPI PUSH1 0x0 DUP1 REVERT JUMPDEST POP PUSH2 0x4F0 PUSH2 0x992 JUMP JUMPDEST PUSH1 0x40 MLOAD PUSH2 0x12E SWAP2 SWAP1 PUSH2 0x1105 JUMP JUMPDEST CALLVALUE DUP1 ISZERO PUSH2 0x509 JUMPI PUSH1 0x0 DUP1 REVERT JUMPDEST POP PUSH2 0x124 PUSH1 0xA DUP2 JUMP JUMPDEST CALLVALUE DUP1 ISZERO PUSH2 0x51E JUMPI PUSH1 0x0 DUP1 REVERT JUMPDEST POP PUSH2 0x33A PUSH2 0x9EA JUMP JUMPDEST CALLVALUE DUP1 ISZERO PUSH2 0x533 JUMPI PUSH1 0x0 DUP1 REVERT JUMPDEST POP PUSH2 0x547 PUSH2 0x542 CALLDATASIZE PUSH1 0x4 PUSH2 0x10EC JUMP JUMPDEST PUSH2 0xA6B JUMP JUMPDEST PUSH1 0x40 MLOAD SWAP1 ISZERO ISZERO DUP2 MSTORE PUSH1 0x20 ADD PUSH2 0x12E JUMP JUMPDEST CALLVALUE DUP1 ISZERO PUSH2 0x563 JUMPI PUSH1 0x0 DUP1 REVERT JUMPDEST POP PUSH2 0x124 PUSH2 0x572 CALLDATASIZE PUSH1 0x4 PUSH2 0x10EC JUMP JUMPDEST PUSH2 0xAB7 JUMP JUMPDEST PUSH1 0x5 PUSH1 0x20 MSTORE DUP2 PUSH1 0x0 MSTORE PUSH1 0x40 PUSH1 0x0 KECCAK256 DUP2 DUP2 SLOAD DUP2 LT PUSH2 0x593 JUMPI PUSH1 0x0 DUP1 REVERT JUMPDEST SWAP1 PUSH1 0x0 MSTORE PUSH1 0x20 PUSH1 0x0 KECCAK256 ADD PUSH1 0x0 SWAP2 POP SWAP2 POP POP SLOAD DUP2 JUMP JUMPDEST PUSH1 0x0 DUP1 DUP1 PUSH1 0x1 JUMPDEST PUSH1 0x6 SLOAD DUP2 LT ISZERO PUSH2 0x6A2 JUMPI PUSH1 0x0 DUP2 DUP2 MSTORE PUSH1 0x3 PUSH1 0x20 MSTORE PUSH1 0x40 SWAP1 KECCAK256 PUSH1 0x1 ADD SLOAD PUSH1 0x1 PUSH1 0x1 PUSH1 0xA0 SHL SUB DUP7 DUP2 AND SWAP2 AND EQ DUP1 PUSH2 0x600 JUMPI POP PUSH1 0x0 DUP2 DUP2 MSTORE PUSH1 0x3 PUSH1 0x20 MSTORE PUSH1 0x40 SWAP1 KECCAK256 PUSH1 0x2 ADD SLOAD PUSH1 0x1 PUSH1 0x1 PUSH1 0xA0 SHL SUB DUP7 DUP2 AND SWAP2 AND EQ JUMPDEST ISZERO PUSH2 0x69A JUMPI DUP4 PUSH2 0x60F DUP2 PUSH2 0x115F JUMP JUMPDEST PUSH1 0x0 DUP4 DUP2 MSTORE PUSH1 0x3 PUSH1 0x20 MSTORE PUSH1 0x40 SWAP1 KECCAK256 PUSH1 0x5 ADD SLOAD SWAP1 SWAP6 POP PUSH1 0x1 PUSH1 0x1 PUSH1 0xA0 SHL SUB DUP1 DUP9 AND SWAP2 AND SUB SWAP1 POP PUSH2 0x69A JUMPI DUP3 PUSH2 0x642 DUP2 PUSH2 0x115F JUMP JUMPDEST PUSH1 0x0 DUP4 DUP2 MSTORE PUSH1 0x3 PUSH1 0x20 DUP2 SWAP1 MSTORE PUSH1 0x40 DUP3 KECCAK256 ADD SLOAD SWAP2 SWAP6 POP SWAP2 POP PUSH2 0x664 SWAP1 PUSH1 0x2 PUSH2 0x1178 JUMP JUMPDEST SWAP1 POP PUSH1 0x0 PUSH1 0x64 PUSH2 0x675 PUSH1 0xA DUP5 PUSH2 0x1178 JUMP JUMPDEST PUSH2 0x67F SWAP2 SWAP1 PUSH2 0x11A5 JUMP JUMPDEST SWAP1 POP PUSH2 0x68B DUP2 DUP4 PUSH2 0x11B9 JUMP JUMPDEST PUSH2 0x695 SWAP1 DUP6 PUSH2 0x11CC JUMP JUMPDEST SWAP4 POP POP POP JUMPDEST PUSH1 0x1 ADD PUSH2 0x5AF JUMP JUMPDEST POP SWAP2 SWAP4 SWAP1 SWAP3 POP JUMP JUMPDEST PUSH1 0x1 JUMPDEST PUSH1 0x7 SLOAD DUP2 LT ISZERO PUSH2 0x764 JUMPI PUSH1 0x0 DUP2 DUP2 MSTORE PUSH1 0x4 PUSH1 0x20 MSTORE PUSH1 0x40 SWAP1 KECCAK256 SLOAD PUSH1 0x1 PUSH1 0x1 PUSH1 0xA0 SHL SUB AND CALLER EQ DUP1 ISZERO PUSH2 0x6EE JUMPI POP PUSH1 0x0 DUP2 DUP2 MSTORE PUSH1 0x4 PUSH1 0x20 MSTORE PUSH1 0x40 SWAP1 KECCAK256 PUSH1 0x3 ADD SLOAD PUSH1 0xFF AND JUMPDEST ISZERO PUSH2 0x75C JUMPI PUSH1 0x0 DUP2 DUP2 MSTORE PUSH1 0x4 PUSH1 0x20 MSTORE PUSH1 0x40 DUP1 DUP3 KECCAK256 PUSH1 0x3 DUP2 ADD DUP1 SLOAD PUSH1 0xFF NOT AND SWAP1 SSTORE PUSH1 0x1 ADD SLOAD SWAP1 MLOAD CALLER SWAP3 DUP3 ISZERO PUSH2 0x8FC MUL SWAP3 SWAP2 SWAP1 DUP2 DUP2 DUP2 DUP6 DUP9 DUP9 CALL SWAP4 POP POP POP POP ISZERO DUP1 ISZERO PUSH2 0x73C JUMPI RETURNDATASIZE PUSH1 0x0 DUP1 RETURNDATACOPY RETURNDATASIZE PUSH1 0x0 REVERT JUMPDEST POP PUSH1 0x0 DUP2 DUP2 MSTORE PUSH1 0x4 PUSH1 0x20 MSTORE PUSH1 0x40 SWAP1 KECCAK256 PUSH1 0x1 ADD SLOAD PUSH2 0x759 SWAP1 DUP3 PUSH2 0xB2E JUMP JUMPDEST POP JUMP JUMPDEST PUSH1 0x1 ADD PUSH2 0x6AD JUMP JUMPDEST POP PUSH1 0x40 MLOAD PUSH3 0x461BCD PUSH1 0xE5 SHL DUP2 MSTORE PUSH1 0x20 PUSH1 0x4 DUP3 ADD MSTORE PUSH1 0x17 PUSH1 0x24 DUP3 ADD MSTORE PUSH32 0x4E6F206163746976652077616974696E6720666F756E64000000000000000000 PUSH1 0x44 DUP3 ADD MSTORE PUSH1 0x64 ADD JUMPDEST PUSH1 0x40 MLOAD DUP1 SWAP2 SUB SWAP1 REVERT JUMPDEST PUSH1 0x8 DUP2 DUP2 SLOAD DUP2 LT PUSH2 0x7C2 JUMPI PUSH1 0x0 DUP1 REVERT JUMPDEST PUSH1 0x0 SWAP2 DUP3 MSTORE PUSH1 0x20 SWAP1 SWAP2 KECCAK256 ADD SLOAD SWAP1 POP DUP2 JUMP JUMPDEST PUSH2 0x7DC CALLVALUE PUSH2 0xA6B JUMP JUMPDEST PUSH2 0x81D JUMPI PUSH1 0x40 MLOAD PUSH3 0x461BCD PUSH1 0xE5 SHL DUP2 MSTORE PUSH1 0x20 PUSH1 0x4 DUP3 ADD MSTORE PUSH1 0x12 PUSH1 0x24 DUP3 ADD MSTORE PUSH18 0x125B9D985B1A590818995D08185B5BDD5B9D PUSH1 0x72 SHL PUSH1 0x44 DUP3 ADD MSTORE PUSH1 0x64 ADD PUSH2 0x7A9 JUMP JUMPDEST PUSH1 0x0 CALLVALUE GT PUSH2 0x85D JUMPI PUSH1 0x40 MLOAD PUSH3 0x461BCD PUSH1 0xE5 SHL DUP2 MSTORE PUSH1 0x20 PUSH1 0x4 DUP3 ADD MSTORE PUSH1 0xD PUSH1 0x24 DUP3 ADD MSTORE PUSH13 0x9AEAE6E840E6CADCC8408AA89 PUSH1 0x9B SHL PUSH1 0x44 DUP3 ADD MSTORE PUSH1 0x64 ADD PUSH2 0x7A9 JUMP JUMPDEST PUSH1 0x0 PUSH2 0x868 CALLVALUE PUSH2 0xBEE JUMP JUMPDEST SWAP1 POP DUP1 ISZERO PUSH2 0x8AE JUMPI PUSH1 0x0 DUP2 DUP2 MSTORE PUSH1 0x4 PUSH1 0x20 MSTORE PUSH1 0x40 SWAP1 KECCAK256 DUP1 SLOAD PUSH2 0x894 SWAP1 PUSH1 0x1 PUSH1 0x1 PUSH1 0xA0 SHL SUB AND CALLER CALLVALUE PUSH2 0xC83 JUMP JUMPDEST PUSH1 0x3 DUP2 ADD DUP1 SLOAD PUSH1 0xFF NOT AND SWAP1 SSTORE PUSH2 0x8AA CALLVALUE DUP4 PUSH2 0xB2E JUMP JUMPDEST POP POP JUMP JUMPDEST PUSH1 0x7 DUP1 SLOAD PUSH1 0x0 SWAP2 DUP3 PUSH2 0x8BF DUP4 PUSH2 0x115F JUMP JUMPDEST SWAP1 SWAP2 SSTORE POP PUSH1 0x40 DUP1 MLOAD PUSH1 0x80 DUP2 ADD DUP3 MSTORE CALLER DUP1 DUP3 MSTORE CALLVALUE PUSH1 0x20 DUP1 DUP5 ADD DUP3 DUP2 MSTORE TIMESTAMP DUP6 DUP8 ADD SWAP1 DUP2 MSTORE PUSH1 0x1 PUSH1 0x60 DUP8 ADD DUP2 DUP2 MSTORE PUSH1 0x0 DUP11 DUP2 MSTORE PUSH1 0x4 DUP7 MSTORE DUP10 DUP2 KECCAK256 SWAP9 MLOAD DUP10 SLOAD PUSH1 0x1 PUSH1 0x1 PUSH1 0xA0 SHL SUB NOT AND PUSH1 0x1 PUSH1 0x1 PUSH1 0xA0 SHL SUB SWAP1 SWAP2 AND OR DUP10 SSTORE SWAP4 MLOAD DUP9 DUP4 ADD SSTORE SWAP2 MLOAD PUSH1 0x2 DUP9 ADD SSTORE SWAP1 MLOAD PUSH1 0x3 SWAP1 SWAP7 ADD DUP1 SLOAD PUSH1 0xFF NOT AND SWAP7 ISZERO ISZERO SWAP7 SWAP1 SWAP7 OR SWAP1 SWAP6 SSTORE DUP3 DUP2 MSTORE PUSH1 0x5 DUP3 MSTORE DUP6 DUP2 KECCAK256 DUP1 SLOAD SWAP6 DUP7 ADD DUP2 SSTORE DUP2 MSTORE DUP2 SWAP1 KECCAK256 SWAP1 SWAP4 ADD DUP6 SWAP1 SSTORE DUP4 MLOAD SWAP2 DUP3 MSTORE SWAP2 DUP2 ADD SWAP2 SWAP1 SWAP2 MSTORE SWAP2 SWAP3 POP DUP3 SWAP2 PUSH32 0x7252C9301281F4E684AB84D6AF32C78060B90E08A64DCCD727ED6DCAB4B2755F SWAP2 ADD PUSH1 0x40 MLOAD DUP1 SWAP2 SUB SWAP1 LOG2 POP POP JUMP JUMPDEST PUSH1 0x60 PUSH1 0x8 DUP1 SLOAD DUP1 PUSH1 0x20 MUL PUSH1 0x20 ADD PUSH1 0x40 MLOAD SWAP1 DUP2 ADD PUSH1 0x40 MSTORE DUP1 SWAP3 SWAP2 SWAP1 DUP2 DUP2 MSTORE PUSH1 0x20 ADD DUP3 DUP1 SLOAD DUP1 ISZERO PUSH2 0x9E0 JUMPI PUSH1 0x20 MUL DUP3 ADD SWAP2 SWAP1 PUSH1 0x0 MSTORE PUSH1 0x20 PUSH1 0x0 KECCAK256 SWAP1 JUMPDEST DUP2 SLOAD DUP2 MSTORE PUSH1 0x20 ADD SWAP1 PUSH1 0x1 ADD SWAP1 DUP1 DUP4 GT PUSH2 0x9CC JUMPI JUMPDEST POP POP POP POP POP SWAP1 POP SWAP1 JUMP JUMPDEST PUSH1 0x0 SLOAD PUSH1 0x1 PUSH1 0x1 PUSH1 0xA0 SHL SUB AND CALLER EQ PUSH2 0xA31 JUMPI PUSH1 0x40 MLOAD PUSH3 0x461BCD PUSH1 0xE5 SHL DUP2 MSTORE PUSH1 0x20 PUSH1 0x4 DUP3 ADD MSTORE PUSH1 0xA PUSH1 0x24 DUP3 ADD MSTORE PUSH10 0x27B7363C9037BBB732B9 PUSH1 0xB1 SHL PUSH1 0x44 DUP3 ADD MSTORE PUSH1 0x64 ADD PUSH2 0x7A9 JUMP JUMPDEST PUSH1 0x0 DUP1 SLOAD PUSH1 0x40 MLOAD PUSH1 0x1 PUSH1 0x1 PUSH1 0xA0 SHL SUB SWAP1 SWAP2 AND SWAP2 SELFBALANCE DUP1 ISZERO PUSH2 0x8FC MUL SWAP3 SWAP1 SWAP2 DUP2 DUP2 DUP2 DUP6 DUP9 DUP9 CALL SWAP4 POP POP POP POP ISZERO DUP1 ISZERO PUSH2 0x759 JUMPI RETURNDATASIZE PUSH1 0x0 DUP1 RETURNDATACOPY RETURNDATASIZE PUSH1 0x0 REVERT JUMPDEST PUSH1 0x0 DUP1 JUMPDEST PUSH1 0x8 SLOAD DUP2 LT ISZERO PUSH2 0xAAE JUMPI DUP3 PUSH1 0x8 DUP3 DUP2 SLOAD DUP2 LT PUSH2 0xA8D JUMPI PUSH2 0xA8D PUSH2 0x11DF JUMP JUMPDEST SWAP1 PUSH1 0x0 MSTORE PUSH1 0x20 PUSH1 0x0 KECCAK256 ADD SLOAD SUB PUSH2 0xAA6 JUMPI POP PUSH1 0x1 SWAP3 SWAP2 POP POP JUMP JUMPDEST PUSH1 0x1 ADD PUSH2 0xA6F JUMP JUMPDEST POP PUSH1 0x0 SWAP3 SWAP2 POP POP JUMP JUMPDEST PUSH1 0x0 DUP2 DUP2 MSTORE PUSH1 0x5 PUSH1 0x20 MSTORE PUSH1 0x40 DUP2 KECCAK256 DUP2 SWAP1 DUP2 JUMPDEST DUP2 SLOAD DUP2 LT ISZERO PUSH2 0xB25 JUMPI PUSH1 0x4 PUSH1 0x0 DUP4 DUP4 DUP2 SLOAD DUP2 LT PUSH2 0xAE8 JUMPI PUSH2 0xAE8 PUSH2 0x11DF JUMP JUMPDEST PUSH1 0x0 SWAP2 DUP3 MSTORE PUSH1 0x20 DUP1 DUP4 KECCAK256 SWAP1 SWAP2 ADD SLOAD DUP4 MSTORE DUP3 ADD SWAP3 SWAP1 SWAP3 MSTORE PUSH1 0x40 ADD SWAP1 KECCAK256 PUSH1 0x3 ADD SLOAD PUSH1 0xFF AND ISZERO PUSH2 0xB1D JUMPI DUP3 PUSH2 0xB19 DUP2 PUSH2 0x115F JUMP JUMPDEST SWAP4 POP POP JUMPDEST PUSH1 0x1 ADD PUSH2 0xAC9 JUMP JUMPDEST POP SWAP1 SWAP4 SWAP3 POP POP POP JUMP JUMPDEST PUSH1 0x0 DUP3 DUP2 MSTORE PUSH1 0x5 PUSH1 0x20 MSTORE PUSH1 0x40 DUP2 KECCAK256 SWAP1 JUMPDEST DUP2 SLOAD DUP2 LT ISZERO PUSH2 0xBE8 JUMPI DUP3 DUP3 DUP3 DUP2 SLOAD DUP2 LT PUSH2 0xB5A JUMPI PUSH2 0xB5A PUSH2 0x11DF JUMP JUMPDEST SWAP1 PUSH1 0x0 MSTORE PUSH1 0x20 PUSH1 0x0 KECCAK256 ADD SLOAD SUB PUSH2 0xBE0 JUMPI DUP2 SLOAD DUP3 SWAP1 PUSH2 0xB7A SWAP1 PUSH1 0x1 SWAP1 PUSH2 0x11B9 JUMP JUMPDEST DUP2 SLOAD DUP2 LT PUSH2 0xB8A JUMPI PUSH2 0xB8A PUSH2 0x11DF JUMP JUMPDEST SWAP1 PUSH1 0x0 MSTORE PUSH1 0x20 PUSH1 0x0 KECCAK256 ADD SLOAD DUP3 DUP3 DUP2 SLOAD DUP2 LT PUSH2 0xBA7 JUMPI PUSH2 0xBA7 PUSH2 0x11DF JUMP JUMPDEST SWAP1 PUSH1 0x0 MSTORE PUSH1 0x20 PUSH1 0x0 KECCAK256 ADD DUP2 SWAP1 SSTORE POP DUP2 DUP1 SLOAD DUP1 PUSH2 0xBC5 JUMPI PUSH2 0xBC5 PUSH2 0x11F5 JUMP JUMPDEST PUSH1 0x1 SWAP1 SUB DUP2 DUP2 SWAP1 PUSH1 0x0 MSTORE PUSH1 0x20 PUSH1 0x0 KECCAK256 ADD PUSH1 0x0 SWAP1 SSTORE SWAP1 SSTORE PUSH2 0xBE8 JUMP JUMPDEST PUSH1 0x1 ADD PUSH2 0xB3E JUMP JUMPDEST POP POP POP POP JUMP JUMPDEST PUSH1 0x0 DUP2 DUP2 MSTORE PUSH1 0x5 PUSH1 0x20 MSTORE PUSH1 0x40 DUP2 KECCAK256 DUP2 JUMPDEST DUP2 SLOAD DUP2 LT ISZERO PUSH2 0xC79 JUMPI PUSH1 0x0 DUP3 DUP3 DUP2 SLOAD DUP2 LT PUSH2 0xC1B JUMPI PUSH2 0xC1B PUSH2 0x11DF JUMP JUMPDEST PUSH1 0x0 SWAP2 DUP3 MSTORE PUSH1 0x20 DUP1 DUP4 KECCAK256 SWAP1 SWAP2 ADD SLOAD DUP1 DUP4 MSTORE PUSH1 0x4 SWAP1 SWAP2 MSTORE PUSH1 0x40 SWAP1 SWAP2 KECCAK256 PUSH1 0x3 ADD SLOAD SWAP1 SWAP2 POP PUSH1 0xFF AND DUP1 ISZERO PUSH2 0xC63 JUMPI POP PUSH1 0x0 DUP2 DUP2 MSTORE PUSH1 0x4 PUSH1 0x20 MSTORE PUSH1 0x40 SWAP1 KECCAK256 SLOAD PUSH1 0x1 PUSH1 0x1 PUSH1 0xA0 SHL SUB AND CALLER EQ ISZERO JUMPDEST ISZERO PUSH2 0xC70 JUMPI SWAP5 SWAP4 POP POP POP POP JUMP JUMPDEST POP PUSH1 0x1 ADD PUSH2 0xBFE JUMP JUMPDEST POP PUSH1 0x0 SWAP4 SWAP3 POP POP POP JUMP JUMPDEST PUSH1 0x2 DUP1 SLOAD SWAP1 PUSH1 0x0 PUSH2 0xC93 DUP4 PUSH2 0x115F JUMP JUMPDEST SWAP2 SWAP1 POP SSTORE POP PUSH1 0x0 PUSH2 0xCA4 DUP5 DUP5 PUSH2 0x100B JUMP JUMPDEST SWAP1 POP PUSH1 0x0 PUSH2 0xCB3 PUSH1 0x2 DUP4 PUSH2 0x120B JUMP JUMPDEST SWAP1 POP PUSH1 0x0 DUP2 ISZERO PUSH2 0xCC3 JUMPI DUP5 PUSH2 0xCC5 JUMP JUMPDEST DUP6 JUMPDEST PUSH1 0x6 DUP1 SLOAD SWAP2 SWAP3 POP PUSH1 0x0 SWAP2 SWAP1 DUP3 PUSH2 0xCDA DUP4 PUSH2 0x115F JUMP JUMPDEST SWAP2 SWAP1 POP SSTORE SWAP1 POP PUSH1 0x40 MLOAD DUP1 PUSH2 0x100 ADD PUSH1 0x40 MSTORE DUP1 DUP3 DUP2 MSTORE PUSH1 0x20 ADD DUP9 PUSH1 0x1 PUSH1 0x1 PUSH1 0xA0 SHL SUB AND DUP2 MSTORE PUSH1 0x20 ADD DUP8 PUSH1 0x1 PUSH1 0x1 PUSH1 0xA0 SHL SUB AND DUP2 MSTORE PUSH1 0x20 ADD DUP7 DUP2 MSTORE PUSH1 0x20 ADD TIMESTAMP DUP2 MSTORE PUSH1 0x20 ADD DUP4 PUSH1 0x1 PUSH1 0x1 PUSH1 0xA0 SHL SUB AND DUP2 MSTORE PUSH1 0x20 ADD PUSH1 0x1 ISZERO ISZERO DUP2 MSTORE PUSH1 0x20 ADD DUP6 DUP2 MSTORE POP PUSH1 0x3 PUSH1 0x0 DUP4 DUP2 MSTORE PUSH1 0x20 ADD SWAP1 DUP2 MSTORE PUSH1 0x20 ADD PUSH1 0x0 KECCAK256 PUSH1 0x0 DUP3 ADD MLOAD DUP2 PUSH1 0x0 ADD SSTORE PUSH1 0x20 DUP3 ADD MLOAD DUP2 PUSH1 0x1 ADD PUSH1 0x0 PUSH2 0x100 EXP DUP2 SLOAD DUP2 PUSH1 0x1 PUSH1 0x1 PUSH1 0xA0 SHL SUB MUL NOT AND SWAP1 DUP4 PUSH1 0x1 PUSH1 0x1 PUSH1 0xA0 SHL SUB AND MUL OR SWAP1 SSTORE POP PUSH1 0x40 DUP3 ADD MLOAD DUP2 PUSH1 0x2 ADD PUSH1 0x0 PUSH2 0x100 EXP DUP2 SLOAD DUP2 PUSH1 0x1 PUSH1 0x1 PUSH1 0xA0 SHL SUB MUL NOT AND SWAP1 DUP4 PUSH1 0x1 PUSH1 0x1 PUSH1 0xA0 SHL SUB AND MUL OR SWAP1 SSTORE POP PUSH1 0x60 DUP3 ADD MLOAD DUP2 PUSH1 0x3 ADD SSTORE PUSH1 0x80 DUP3 ADD MLOAD DUP2 PUSH1 0x4 ADD SSTORE PUSH1 0xA0 DUP3 ADD MLOAD DUP2 PUSH1 0x5 ADD PUSH1 0x0 PUSH2 0x100 EXP DUP2 SLOAD DUP2 PUSH1 0x1 PUSH1 0x1 PUSH1 0xA0 SHL SUB MUL NOT AND SWAP1 DUP4 PUSH1 0x1 PUSH1 0x1 PUSH1 0xA0 SHL SUB AND MUL OR SWAP1 SSTORE POP PUSH1 0xC0 DUP3 ADD MLOAD DUP2 PUSH1 0x5 ADD PUSH1 0x14 PUSH2 0x100 EXP DUP2 SLOAD DUP2 PUSH1 0xFF MUL NOT AND SWAP1 DUP4 ISZERO ISZERO MUL OR SWAP1 SSTORE POP PUSH1 0xE0 DUP3 ADD MLOAD DUP2 PUSH1 0x6 ADD SSTORE SWAP1 POP POP PUSH1 0x0 DUP6 PUSH1 0x2 PUSH2 0xE2C SWAP2 SWAP1 PUSH2 0x1178 JUMP JUMPDEST SWAP1 POP PUSH1 0x0 PUSH1 0x64 PUSH2 0xE3D PUSH1 0xA DUP5 PUSH2 0x1178 JUMP JUMPDEST PUSH2 0xE47 SWAP2 SWAP1 PUSH2 0x11A5 JUMP JUMPDEST SWAP1 POP PUSH1 0x0 PUSH2 0xE55 DUP3 DUP5 PUSH2 0x11B9 JUMP JUMPDEST PUSH1 0x40 MLOAD SWAP1 SWAP2 POP PUSH1 0x1 PUSH1 0x1 PUSH1 0xA0 SHL SUB DUP7 AND SWAP1 DUP3 ISZERO PUSH2 0x8FC MUL SWAP1 DUP4 SWAP1 PUSH1 0x0 DUP2 DUP2 DUP2 DUP6 DUP9 DUP9 CALL SWAP4 POP POP POP POP ISZERO DUP1 ISZERO PUSH2 0xE8E JUMPI RETURNDATASIZE PUSH1 0x0 DUP1 RETURNDATACOPY RETURNDATASIZE PUSH1 0x0 REVERT JUMPDEST POP PUSH1 0x0 DUP1 SLOAD PUSH1 0x40 MLOAD PUSH1 0x1 PUSH1 0x1 PUSH1 0xA0 SHL SUB SWAP1 SWAP2 AND SWAP2 DUP5 ISZERO PUSH2 0x8FC MUL SWAP2 DUP6 SWAP2 DUP2 DUP2 DUP2 DUP6 DUP9 DUP9 CALL SWAP4 POP POP POP POP ISZERO DUP1 ISZERO PUSH2 0xEC8 JUMPI RETURNDATASIZE PUSH1 0x0 DUP1 RETURNDATACOPY RETURNDATASIZE PUSH1 0x0 REVERT JUMPDEST POP PUSH1 0x1 DUP1 SLOAD SWAP1 PUSH1 0x0 PUSH2 0xED9 DUP4 PUSH2 0x115F JUMP JUMPDEST SWAP1 SWAP2 SSTORE POP POP PUSH1 0x40 DUP1 MLOAD PUSH1 0x1 PUSH1 0x1 PUSH1 0xA0 SHL SUB DUP1 DUP14 AND DUP3 MSTORE DUP12 AND PUSH1 0x20 DUP3 ADD MSTORE SWAP1 DUP2 ADD DUP10 SWAP1 MSTORE DUP5 SWAP1 PUSH32 0x32A4A869175589DB4F7700AC66E13712C68344029A4DC6411C67A3A89CC02088 SWAP1 PUSH1 0x60 ADD PUSH1 0x40 MLOAD DUP1 SWAP2 SUB SWAP1 LOG2 PUSH1 0x40 DUP1 MLOAD PUSH1 0x1 PUSH1 0x1 PUSH1 0xA0 SHL SUB DUP8 AND DUP2 MSTORE PUSH1 0x20 DUP2 ADD DUP4 SWAP1 MSTORE SWAP1 DUP2 ADD DUP9 SWAP1 MSTORE DUP5 SWAP1 PUSH32 0x82805C62658F0D4E2E9A11270A627F27493B4AE9968841F58BECEF279BD3F7C6 SWAP1 PUSH1 0x60 ADD PUSH1 0x40 MLOAD DUP1 SWAP2 SUB SWAP1 LOG2 PUSH1 0x40 DUP1 MLOAD PUSH1 0x1 PUSH1 0x1 PUSH1 0xA0 SHL SUB DUP8 AND DUP2 MSTORE PUSH1 0x20 DUP2 ADD DUP4 SWAP1 MSTORE PUSH32 0x47DB2ABCE6D5FBCD80FFD9B4BA74DCDE804A746EF732BC7F8A70FABFC912C590 SWAP2 ADD PUSH1 0x40 MLOAD DUP1 SWAP2 SUB SWAP1 LOG1 PUSH1 0x0 SLOAD PUSH1 0x40 DUP1 MLOAD PUSH1 0x1 PUSH1 0x1 PUSH1 0xA0 SHL SUB SWAP1 SWAP3 AND DUP3 MSTORE PUSH1 0x20 DUP3 ADD DUP5 SWAP1 MSTORE PUSH32 0x47DB2ABCE6D5FBCD80FFD9B4BA74DCDE804A746EF732BC7F8A70FABFC912C590 SWAP2 ADD PUSH1 0x40 MLOAD DUP1 SWAP2 SUB SWAP1 LOG1 POP POP POP POP POP POP POP POP POP POP JUMP JUMPDEST PUSH1 0x0 PREVRANDAO TIMESTAMP NUMBER DUP6 DUP6 PUSH1 0x2 SLOAD PUSH1 0x1 NUMBER PUSH2 0x1022 SWAP2 SWAP1 PUSH2 0x11B9 JUMP JUMPDEST BLOCKHASH GAS PUSH1 0x40 DUP1 MLOAD PUSH1 0x20 DUP2 ADD SWAP10 SWAP1 SWAP10 MSTORE DUP9 ADD SWAP7 SWAP1 SWAP7 MSTORE PUSH1 0x60 DUP1 DUP9 ADD SWAP6 SWAP1 SWAP6 MSTORE SWAP3 DUP5 SHL PUSH12 0xFFFFFFFFFFFFFFFFFFFFFFFF NOT SWAP1 DUP2 AND PUSH1 0x80 DUP9 ADD MSTORE SWAP2 SWAP1 SWAP4 SHL AND PUSH1 0x94 DUP6 ADD MSTORE PUSH1 0xA8 DUP5 ADD SWAP2 SWAP1 SWAP2 MSTORE PUSH1 0xC8 DUP4 ADD MSTORE PUSH1 0xE8 DUP3 ADD MSTORE PUSH2 0x108 ADD PUSH1 0x40 MLOAD PUSH1 0x20 DUP2 DUP4 SUB SUB DUP2 MSTORE SWAP1 PUSH1 0x40 MSTORE DUP1 MLOAD SWAP1 PUSH1 0x20 ADD KECCAK256 PUSH1 0x0 SHR SWAP1 POP JUMPDEST SWAP3 SWAP2 POP POP JUMP JUMPDEST PUSH1 0x0 DUP1 PUSH1 0x40 DUP4 DUP6 SUB SLT ISZERO PUSH2 0x10AD JUMPI PUSH1 0x0 DUP1 REVERT JUMPDEST POP POP DUP1 CALLDATALOAD SWAP3 PUSH1 0x20 SWAP1 SWAP2 ADD CALLDATALOAD SWAP2 POP JUMP JUMPDEST PUSH1 0x0 PUSH1 0x20 DUP3 DUP5 SUB SLT ISZERO PUSH2 0x10CE JUMPI PUSH1 0x0 DUP1 REVERT JUMPDEST DUP2 CALLDATALOAD PUSH1 0x1 PUSH1 0x1 PUSH1 0xA0 SHL SUB DUP2 AND DUP2 EQ PUSH2 0x10E5 JUMPI PUSH1 0x0 DUP1 REVERT JUMPDEST SWAP4 SWAP3 POP POP POP JUMP JUMPDEST PUSH1 0x0 PUSH1 0x20 DUP3 DUP5 SUB SLT ISZERO PUSH2 0x10FE JUMPI PUSH1 0x0 DUP1 REVERT JUMPDEST POP CALLDATALOAD SWAP2 SWAP1 POP JUMP JUMPDEST PUSH1 0x20 DUP1 DUP3 MSTORE DUP3 MLOAD DUP3 DUP3 ADD DUP2 SWAP1 MSTORE PUSH1 0x0 SWAP2 SWAP1 DUP5 DUP3 ADD SWAP1 PUSH1 0x40 DUP6 ADD SWAP1 DUP5 JUMPDEST DUP2 DUP2 LT ISZERO PUSH2 0x113D JUMPI DUP4 MLOAD DUP4 MSTORE SWAP3 DUP5 ADD SWAP3 SWAP2 DUP5 ADD SWAP2 PUSH1 0x1 ADD PUSH2 0x1121 JUMP JUMPDEST POP SWAP1 SWAP7 SWAP6 POP POP POP POP POP POP JUMP JUMPDEST PUSH4 0x4E487B71 PUSH1 0xE0 SHL PUSH1 0x0 MSTORE PUSH1 0x11 PUSH1 0x4 MSTORE PUSH1 0x24 PUSH1 0x0 REVERT JUMPDEST PUSH1 0x0 PUSH1 0x1 DUP3 ADD PUSH2 0x1171 JUMPI PUSH2 0x1171 PUSH2 0x1149 JUMP JUMPDEST POP PUSH1 0x1 ADD SWAP1 JUMP JUMPDEST DUP1 DUP3 MUL DUP2 ISZERO DUP3 DUP3 DIV DUP5 EQ OR PUSH2 0x1094 JUMPI PUSH2 0x1094 PUSH2 0x1149 JUMP JUMPDEST PUSH4 0x4E487B71 PUSH1 0xE0 SHL PUSH1 0x0 MSTORE PUSH1 0x12 PUSH1 0x4 MSTORE PUSH1 0x24 PUSH1 0x0 REVERT JUMPDEST PUSH1 0x0 DUP3 PUSH2 0x11B4 JUMPI PUSH2 0x11B4 PUSH2 0x118F JUMP JUMPDEST POP DIV SWAP1 JUMP JUMPDEST DUP2 DUP2 SUB DUP2 DUP2 GT ISZERO PUSH2 0x1094 JUMPI PUSH2 0x1094 PUSH2 0x1149 JUMP JUMPDEST DUP1 DUP3 ADD DUP1 DUP3 GT ISZERO PUSH2 0x1094 JUMPI PUSH2 0x1094 PUSH2 0x1149 JUMP JUMPDEST PUSH4 0x4E487B71 PUSH1 0xE0 SHL PUSH1 0x0 MSTORE PUSH1 0x32 PUSH1 0x4 MSTORE PUSH1 0x24 PUSH1 0x0 REVERT JUMPDEST PUSH4 0x4E487B71 PUSH1 0xE0 SHL PUSH1 0x0 MSTORE PUSH1 0x31 PUSH1 0x4 MSTORE PUSH1 0x24 PUSH1 0x0 REVERT JUMPDEST PUSH1 0x0 DUP3 PUSH2 0x121A JUMPI PUSH2 0x121A PUSH2 0x118F JUMP JUMPDEST POP MOD SWAP1 JUMP INVALID LOG2 PUSH5 0x6970667358 0x22 SLT KECCAK256 SWAP15 STATICCALL 0xBB 0xAD EXTCODESIZE CREATE2 BASEFEE 0xE7 0xE7 0xCA ADDRESS GASPRICE DUP4 0xDC PUSH28 0x3D73125C05A875C5D8F124D7127CB5B69964736F6C63430008160033 "},"methodIdentifiers":{"OWNER_FEE_PERCENT()":"a8a3221e","allowedBets(uint256)":"8f945146","cancelWaiting()":"5b34981a","duels(uint256)":"859a62d0","emergencyWithdraw()":"db2e21bc","getAllowedBets()":"a235c4ab","getDuel(uint256)":"565e614f","getPlayerStats(address)":"4fd66eae","getWaitingPlayersCount(uint256)":"f3f93b92","isValidBet(uint256)":"f19e774e","joinDuel()":"9bfc4f14","nextDuelId()":"549ec614","nextWaitingId()":"1db62761","owner()":"8da5cb5b","randomNonce()":"39988a55","totalDuels()":"57d628d7","waitingByBet(uint256,uint256)":"2dd5fd84","waitingPlayers(uint256)":"809a6c28"}},"storageLayout":{"storage":[{"astId":1435,"contract":"contracts/DuelGame.sol:DuelGame","label":"owner","offset":0,"slot":"0","type":"t_address"},{"astId":1437,"contract":"contracts/DuelGame.sol:DuelGame","label":"totalDuels","offset":0,"slot":"1","type":"t_uint256"},{"astId":1439,"contract":"contracts/DuelGame.sol:DuelGame","label":"randomNonce","offset":0,"slot":"2","type":"t_uint256"},{"astId":1473,"contract":"contracts/DuelGame.sol:DuelGame","label":"duels","offset":0,"slot":"3","type":"t_mapping(t_uint256,t_struct(Duel)1459_storage)"},{"astId":1478,"contract":"contracts/DuelGame.sol:DuelGame","label":"waitingPlayers","offset":0,"slot":"4","type":"t_mapping(t_uint256,t_struct(WaitingPlayer)1468_storage)"},{"astId":1483,"contract":"contracts/DuelGame.sol:DuelGame","label":"waitingByBet","offset":0,"slot":"5","type":"t_mapping(t_uint256,t_array(t_uint256)dyn_storage)"},{"astId":1486,"contract":"contracts/DuelGame.sol:DuelGame","label":"nextDuelId","offset":0,"slot":"6","type":"t_uint256"},{"astId":1489,"contract":"contracts/DuelGame.sol:DuelGame","label":"nextWaitingId","offset":0,"slot":"7","type":"t_uint256"},{"astId":1497,"contract":"contracts/DuelGame.sol:DuelGame","label":"allowedBets","offset":0,"slot":"8","type":"t_array(t_uint256)dyn_storage"}],"types":{"t_address":{"encoding":"inplace","label":"address","numberOfBytes":"20"},"t_array(t_uint256)dyn_storage":{"base":"t_uint256","encoding":"dynamic_array","label":"uint256[]","numberOfBytes":"32"},"t_bool":{"encoding":"inplace","label":"bool","numberOfBytes":"1"},"t_mapping(t_uint256,t_array(t_uint256)dyn_storage)":{"encoding":"mapping","key":"t_uint256","label":"mapping(uint256 => uint256[])","numberOfBytes":"32","value":"t_array(t_uint256)dyn_storage"},"t_mapping(t_uint256,t_struct(Duel)1459_storage)":{"encoding":"mapping","key":"t_uint256","label":"mapping(uint256 => struct DuelGame.Duel)","numberOfBytes":"32","value":"t_struct(Duel)1459_storage"},"t_mapping(t_uint256,t_struct(WaitingPlayer)1468_storage)":{"encoding":"mapping","key":"t_uint256","label":"mapping(uint256 => struct DuelGame.WaitingPlayer)","numberOfBytes":"32","value":"t_struct(WaitingPlayer)1468_storage"},"t_struct(Duel)1459_storage":{"encoding":"inplace","label":"struct DuelGame.Duel","members":[{"astId":1444,"contract":"contracts/DuelGame.sol:DuelGame","label":"id","offset":0,"slot":"0","type":"t_uint256"},{"astId":1446,"contract":"contracts/DuelGame.sol:DuelGame","label":"player1","offset":0,"slot":"1","type":"t_address"},{"astId":1448,"contract":"contracts/DuelGame.sol:DuelGame","label":"player2","offset":0,"slot":"2","type":"t_address"},{"astId":1450,"contract":"contracts/DuelGame.sol:DuelGame","label":"betAmount","offset":0,"slot":"3","type":"t_uint256"},{"astId":1452,"contract":"contracts/DuelGame.sol:DuelGame","label":"timestamp","offset":0,"slot":"4","type":"t_uint256"},{"astId":1454,"contract":"contracts/DuelGame.sol:DuelGame","label":"winner","offset":0,"slot":"5","type":"t_address"},{"astId":1456,"contract":"contracts/DuelGame.sol:DuelGame","label":"completed","offset":20,"slot":"5","type":"t_bool"},{"astId":1458,"contract":"contracts/DuelGame.sol:DuelGame","label":"randomSeed","offset":0,"slot":"6","type":"t_uint256"}],"numberOfBytes":"224"},"t_struct(WaitingPlayer)1468_storage":{"encoding":"inplace","label":"struct DuelGame.WaitingPlayer","members":[{"astId":1461,"contract":"contracts/DuelGame.sol:DuelGame","label":"player","offset":0,"slot":"0","type":"t_address"},{"astId":1463,"contract":"contracts/DuelGame.sol:DuelGame","label":"betAmount","offset":0,"slot":"1","type":"t_uint256"},{"astId":1465,"contract":"contracts/DuelGame.sol:DuelGame","label":"joinTime","offset":0,"slot":"2","type":"t_uint256"},{"astId":1467,"contract":"contracts/DuelGame.sol:DuelGame","label":"active","offset":0,"slot":"3","type":"t_bool"}],"numberOfBytes":"128"},"t_uint256":{"encoding":"inplace","label":"uint256","numberOfBytes":"32"}}}}}}