{
  "_format": "hh-sol-artifact-1",
  "contractName": "DuelGame",
  "sourceName": "contracts/DuelGame.sol",
  "abi": [
    {
      "inputs": [],
      "stateMutability": "nonpayable",
      "type": "constructor"
    },
    {
      "anonymous": false,
      "inputs": [
        {
          "indexed": true,
          "internalType": "uint256",
          "name": "duelId",
          "type": "uint256"
        },
        {
          "indexed": false,
          "internalType": "address",
          "name": "winner",
          "type": "address"
        },
        {
          "indexed": false,
          "internalType": "uint256",
          "name": "prize",
          "type": "uint256"
        },
        {
          "indexed": false,
          "internalType": "uint256",
          "name": "randomSeed",
          "type": "uint256"
        }
      ],
      "name": "DuelCompleted",
      "type": "event"
    },
    {
      "anonymous": false,
      "inputs": [
        {
          "indexed": true,
          "internalType": "uint256",
          "name": "duelId",
          "type": "uint256"
        },
        {
          "indexed": false,
          "internalType": "address",
          "name": "player1",
          "type": "address"
        },
        {
          "indexed": false,
          "internalType": "address",
          "name": "player2",
          "type": "address"
        },
        {
          "indexed": false,
          "internalType": "uint256",
          "name": "betAmount",
          "type": "uint256"
        }
      ],
      "name": "DuelStarted",
      "type": "event"
    },
    {
      "anonymous": false,
      "inputs": [
        {
          "indexed": false,
          "internalType": "address",
          "name": "to",
          "type": "address"
        },
        {
          "indexed": false,
          "internalType": "uint256",
          "name": "amount",
          "type": "uint256"
        }
      ],
      "name": "PaymentSent",
      "type": "event"
    },
    {
      "anonymous": false,
      "inputs": [
        {
          "indexed": true,
          "internalType": "uint256",
          "name": "waitingId",
          "type": "uint256"
        },
        {
          "indexed": false,
          "internalType": "address",
          "name": "player",
          "type": "address"
        },
        {
          "indexed": false,
          "internalType": "uint256",
          "name": "betAmount",
          "type": "uint256"
        }
      ],
      "name": "PlayerWaiting",
      "type": "event"
    },
    {
      "inputs": [],
      "name": "OWNER_FEE_PERCENT",
      "outputs": [
        {
          "internalType": "uint256",
          "name": "",
          "type": "uint256"
        }
      ],
      "stateMutability": "view",
      "type": "function"
    },
    {
      "inputs": [
        {
          "internalType": "uint256",
          "name": "",
          "type": "uint256"
        }
      ],
      "name": "allowedBets",
      "outputs": [
        {
          "internalType": "uint256",
          "name": "",
          "type": "uint256"
        }
      ],
      "stateMutability": "view",
      "type": "function"
    },
    {
      "inputs": [],
      "name": "cancelWaiting",
      "outputs": [],
      "stateMutability": "nonpayable",
      "type": "function"
    },
    {
      "inputs": [
        {
          "internalType": "uint256",
          "name": "",
          "type": "uint256"
        }
      ],
      "name": "duels",
      "outputs": [
        {
          "internalType": "uint256",
          "name": "id",
          "type": "uint256"
        },
        {
          "internalType": "address",
          "name": "player1",
          "type": "address"
        },
        {
          "internalType": "address",
          "name": "player2",
          "type": "address"
        },
        {
          "internalType": "uint256",
          "name": "betAmount",
          "type": "uint256"
        },
        {
          "internalType": "uint256",
          "name": "timestamp",
          "type": "uint256"
        },
        {
          "internalType": "address",
          "name": "winner",
          "type": "address"
        },
        {
          "internalType": "bool",
          "name": "completed",
          "type": "bool"
        },
        {
          "internalType": "uint256",
          "name": "randomSeed",
          "type": "uint256"
        }
      ],
      "stateMutability": "view",
      "type": "function"
    },
    {
      "inputs": [],
      "name": "emergencyWithdraw",
      "outputs": [],
      "stateMutability": "nonpayable",
      "type": "function"
    },
    {
      "inputs": [],
      "name": "getAllowedBets",
      "outputs": [
        {
          "internalType": "uint256[]",
          "name": "",
          "type": "uint256[]"
        }
      ],
      "stateMutability": "view",
      "type": "function"
    },
    {
      "inputs": [
        {
          "internalType": "uint256",
          "name": "duelId",
          "type": "uint256"
        }
      ],
      "name": "getDuel",
      "outputs": [
        {
          "components": [
            {
              "internalType": "uint256",
              "name": "id",
              "type": "uint256"
            },
            {
              "internalType": "address",
              "name": "player1",
              "type": "address"
            },
            {
              "internalType": "address",
              "name": "player2",
              "type": "address"
            },
            {
              "internalType": "uint256",
              "name": "betAmount",
              "type": "uint256"
            },
            {
              "internalType": "uint256",
              "name": "timestamp",
              "type": "uint256"
            },
            {
              "internalType": "address",
              "name": "winner",
              "type": "address"
            },
            {
              "internalType": "bool",
              "name": "completed",
              "type": "bool"
            },
            {
              "internalType": "uint256",
              "name": "randomSeed",
              "type": "uint256"
            }
          ],
          "internalType": "struct DuelGame.Duel",
          "name": "",
          "type": "tuple"
        }
      ],
      "stateMutability": "view",
      "type": "function"
    },
    {
      "inputs": [
        {
          "internalType": "address",
          "name": "player",
          "type": "address"
        }
      ],
      "name": "getPlayerStats",
      "outputs": [
        {
          "internalType": "uint256",
          "name": "totalGames",
          "type": "uint256"
        },
        {
          "internalType": "uint256",
          "name": "wins",
          "type": "uint256"
        },
        {
          "internalType": "uint256",
          "name": "totalWinnings",
          "type": "uint256"
        }
      ],
      "stateMutability": "view",
      "type": "function"
    },
    {
      "inputs": [
        {
          "internalType": "uint256",
          "name": "betAmount",
          "type": "uint256"
        }
      ],
      "name": "getWaitingPlayersCount",
      "outputs": [
        {
          "internalType": "uint256",
          "name": "",
          "type": "uint256"
        }
      ],
      "stateMutability": "view",
      "type": "function"
    },
    {
      "inputs": [
        {
          "internalType": "uint256",
          "name": "amount",
          "type": "uint256"
        }
      ],
      "name": "isValidBet",
      "outputs": [
        {
          "internalType": "bool",
          "name": "",
          "type": "bool"
        }
      ],
      "stateMutability": "view",
      "type": "function"
    },
    {
      "inputs": [],
      "name": "joinDuel",
      "outputs": [],
      "stateMutability": "payable",
      "type": "function"
    },
    {
      "inputs": [],
      "name": "nextDuelId",
      "outputs": [
        {
          "internalType": "uint256",
          "name": "",
          "type": "uint256"
        }
      ],
      "stateMutability": "view",
      "type": "function"
    },
    {
      "inputs": [],
      "name": "nextWaitingId",
      "outputs": [
        {
          "internalType": "uint256",
          "name": "",
          "type": "uint256"
        }
      ],
      "stateMutability": "view",
      "type": "function"
    },
    {
      "inputs": [],
      "name": "owner",
      "outputs": [
        {
          "internalType": "address",
          "name": "",
          "type": "address"
        }
      ],
      "stateMutability": "view",
      "type": "function"
    },
    {
      "inputs": [],
      "name": "randomNonce",
      "outputs": [
        {
          "internalType": "uint256",
          "name": "",
          "type": "uint256"
        }
      ],
      "stateMutability": "view",
      "type": "function"
    },
    {
      "inputs": [],
      "name": "totalDuels",
      "outputs": [
        {
          "internalType": "uint256",
          "name": "",
          "type": "uint256"
        }
      ],
      "stateMutability": "view",
      "type": "function"
    },
    {
      "inputs": [
        {
          "internalType": "uint256",
          "name": "",
          "type": "uint256"
        },
        {
          "internalType": "uint256",
          "name": "",
          "type": "uint256"
        }
      ],
      "name": "waitingByBet",
      "outputs": [
        {
          "internalType": "uint256",
          "name": "",
          "type": "uint256"
        }
      ],
      "stateMutability": "view",
      "type": "function"
    },
    {
      "inputs": [
        {
          "internalType": "uint256",
          "name": "",
          "type": "uint256"
        }
      ],
      "name": "waitingPlayers",
      "outputs": [
        {
          "internalType": "address",
          "name": "player",
          "type": "address"
        },
        {
          "internalType": "uint256",
          "name": "betAmount",
          "type": "uint256"
        },
        {
          "internalType": "uint256",
          "name": "joinTime",
          "type": "uint256"
        },
        {
          "internalType": "bool",
          "name": "active",
          "type": "bool"
        }
      ],
      "stateMutability": "view",
      "type": "function"
    }
  ],
  "bytecode": "0x600160068190556007556101006040526509184e72a0006080908152655af3107a400060a05266038d7ea4c6800060c052662386f26fc1000060e052610049906008906004610072565b5034801561005657600080fd5b50600080546001600160a01b03191633179055426002556100dd565b8280548282559060005260206000209081019282156100b8579160200282015b828111156100b8578251829066ffffffffffffff16905591602001919060010190610092565b506100c49291506100c8565b5090565b5b808211156100c457600081556001016100c9565b611291806100ec6000396000f3fe6080604052600436106101095760003560e01c8063859a62d011610095578063a235c4ab11610064578063a235c4ab146104db578063a8a3221e146104fd578063db2e21bc14610512578063f19e774e14610527578063f3f93b921461055757600080fd5b8063859a62d0146103b75780638da5cb5b1461047b5780638f945146146104b35780639bfc4f14146104d357600080fd5b8063549ec614116100dc578063549ec614146101a8578063565e614f146101be57806357d628d71461030f5780635b34981a14610325578063809a6c281461033c57600080fd5b80631db627611461010e5780632dd5fd841461013757806339988a55146101575780634fd66eae1461016d575b600080fd5b34801561011a57600080fd5b5061012460075481565b6040519081526020015b60405180910390f35b34801561014357600080fd5b506101246101523660046110d6565b610577565b34801561016357600080fd5b5061012460025481565b34801561017957600080fd5b5061018d6101883660046110f8565b6105a8565b6040805193845260208401929092529082015260600161012e565b3480156101b457600080fd5b5061012460065481565b3480156101ca57600080fd5b5061029c6101d9366004611128565b6040805161010081018252600080825260208201819052918101829052606081018290526080810182905260a0810182905260c0810182905260e0810191909152506000908152600360208181526040928390208351610100810185528154815260018201546001600160a01b0390811693820193909352600282015483169481019490945291820154606084015260048201546080840152600582015490811660a0840152600160a01b900460ff16151560c08301526006015460e082015290565b60405161012e919060006101008201905082518252602083015160018060a01b03808216602085015280604086015116604085015260608501516060850152608085015160808501528060a08601511660a0850152505060c0830151151560c083015260e083015160e083015292915050565b34801561031b57600080fd5b5061012460015481565b34801561033157600080fd5b5061033a6106b4565b005b34801561034857600080fd5b5061038b610357366004611128565b60046020526000908152604090208054600182015460028301546003909301546001600160a01b0390921692909160ff1684565b604080516001600160a01b0390951685526020850193909352918301521515606082015260800161012e565b3480156103c357600080fd5b5061042c6103d2366004611128565b6003602081905260009182526040909120805460018201546002830154938301546004840154600585015460069095015493956001600160a01b0393841695908416949293919291811691600160a01b90910460ff169088565b604080519889526001600160a01b0397881660208a0152958716958801959095526060870193909352608086019190915290921660a084015290151560c083015260e08201526101000161012e565b34801561048757600080fd5b5060005461049b906001600160a01b031681565b6040516001600160a01b03909116815260200161012e565b3480156104bf57600080fd5b506101246104ce366004611128565b6107c6565b61033a6107e7565b3480156104e757600080fd5b506104f06109a6565b60405161012e9190611141565b34801561050957600080fd5b50610124600a81565b34801561051e57600080fd5b5061033a6109fe565b34801561053357600080fd5b50610547610542366004611128565b610a7f565b604051901515815260200161012e565b34801561056357600080fd5b50610124610572366004611128565b610ad5565b6005602052816000526040600020818154811061059357600080fd5b90600052602060002001600091509150505481565b6000808060015b6006548110156106ac576000818152600360205260409020600101546001600160a01b038681169116148061060057506000818152600360205260409020600201546001600160a01b038681169116145b1561069a578361060f8161119b565b6000838152600360205260409020600501549095506001600160a01b03808816911603905061069a57826106428161119b565b60008381526003602081905260408220015491955091506106649060026111b4565b905060006064610675600a846111b4565b61067f91906111e1565b905061068b81836111f5565b6106959085611208565b935050505b806106a48161119b565b9150506105af565b509193909250565b60015b600754811015610778576000818152600460205260409020546001600160a01b0316331480156106f8575060008181526004602052604090206003015460ff165b156107665760008181526004602052604080822060038101805460ff19169055600101549051339282156108fc02929190818181858888f19350505050158015610746573d6000803e3d6000fd5b506000818152600460205260409020600101546107639082610b56565b50565b806107708161119b565b9150506106b7565b5060405162461bcd60e51b815260206004820152601760248201527f4e6f206163746976652077616974696e6720666f756e6400000000000000000060448201526064015b60405180910390fd5b600881815481106107d657600080fd5b600091825260209091200154905081565b6107f034610a7f565b6108315760405162461bcd60e51b8152602060048201526012602482015271125b9d985b1a590818995d08185b5bdd5b9d60721b60448201526064016107bd565b600034116108715760405162461bcd60e51b815260206004820152600d60248201526c09aeae6e840e6cadcc8408aa89609b1b60448201526064016107bd565b600061087c34610c20565b905080156108c257600081815260046020526040902080546108a8906001600160a01b03163334610cbf565b60038101805460ff191690556108be3483610b56565b5050565b60078054600091826108d38361119b565b9091555060408051608081018252338082523460208084018281524285870190815260016060870181815260008a815260048652898120985189546001600160a01b0319166001600160a01b039091161789559351888301559151600288015590516003909601805460ff1916961515969096179095558281526005825285812080549586018155815281902090930185905583519182529181019190915291925082917f7252c9301281f4e684ab84d6af32c78060b90e08a64dccd727ed6dcab4b2755f910160405180910390a25050565b606060088054806020026020016040519081016040528092919081815260200182805480156109f457602002820191906000526020600020905b8154815260200190600101908083116109e0575b5050505050905090565b6000546001600160a01b03163314610a455760405162461bcd60e51b815260206004820152600a60248201526927b7363c9037bbb732b960b11b60448201526064016107bd565b600080546040516001600160a01b03909116914780156108fc02929091818181858888f19350505050158015610763573d6000803e3d6000fd5b6000805b600854811015610acc578260088281548110610aa157610aa161121b565b906000526020600020015403610aba5750600192915050565b80610ac48161119b565b915050610a83565b50600092915050565b60008181526005602052604081208190815b8154811015610b4d5760046000838381548110610b0657610b0661121b565b6000918252602080832090910154835282019290925260400190206003015460ff1615610b3b5782610b378161119b565b9350505b80610b458161119b565b915050610ae7565b50909392505050565b6000828152600560205260408120905b8154811015610c1a5782828281548110610b8257610b8261121b565b906000526020600020015403610c085781548290610ba2906001906111f5565b81548110610bb257610bb261121b565b9060005260206000200154828281548110610bcf57610bcf61121b565b906000526020600020018190555081805480610bed57610bed611231565b60019003818190600052602060002001600090559055610c1a565b80610c128161119b565b915050610b66565b50505050565b6000818152600560205260408120815b8154811015610cb5576000828281548110610c4d57610c4d61121b565b6000918252602080832090910154808352600490915260409091206003015490915060ff168015610c9557506000818152600460205260409020546001600160a01b03163314155b15610ca257949350505050565b5080610cad8161119b565b915050610c30565b5060009392505050565b60028054906000610ccf8361119b565b91905055506000610ce08484611047565b90506000610cef600283611247565b905060008115610cff5784610d01565b855b600680549192506000919082610d168361119b565b919050559050604051806101000160405280828152602001886001600160a01b03168152602001876001600160a01b03168152602001868152602001428152602001836001600160a01b0316815260200160011515815260200185815250600360008381526020019081526020016000206000820151816000015560208201518160010160006101000a8154816001600160a01b0302191690836001600160a01b0316021790555060408201518160020160006101000a8154816001600160a01b0302191690836001600160a01b03160217905550606082015181600301556080820151816004015560a08201518160050160006101000a8154816001600160a01b0302191690836001600160a01b0316021790555060c08201518160050160146101000a81548160ff02191690831515021790555060e082015181600601559050506000856002610e6891906111b4565b905060006064610e79600a846111b4565b610e8391906111e1565b90506000610e9182846111f5565b6040519091506001600160a01b0386169082156108fc029083906000818181858888f19350505050158015610eca573d6000803e3d6000fd5b50600080546040516001600160a01b039091169184156108fc02918591818181858888f19350505050158015610f04573d6000803e3d6000fd5b5060018054906000610f158361119b565b9091555050604080516001600160a01b03808d1682528b16602082015290810189905284907f32a4a869175589db4f7700ac66e13712c68344029a4dc6411c67a3a89cc020889060600160405180910390a2604080516001600160a01b03871681526020810183905290810188905284907f82805c62658f0d4e2e9a11270a627f27493b4ae9968841f58becef279bd3f7c69060600160405180910390a2604080516001600160a01b0387168152602081018390527f47db2abce6d5fbcd80ffd9b4ba74dcde804a746ef732bc7f8a70fabfc912c590910160405180910390a1600054604080516001600160a01b039092168252602082018490527f47db2abce6d5fbcd80ffd9b4ba74dcde804a746ef732bc7f8a70fabfc912c590910160405180910390a150505050505050505050565b6000444243858560025460014361105e91906111f5565b405a60408051602081019990995288019690965260608088019590955292841b6bffffffffffffffffffffffff1990811660808801529190931b16609485015260a884019190915260c883015260e8820152610108016040516020818303038152906040528051906020012060001c90505b92915050565b600080604083850312156110e957600080fd5b50508035926020909101359150565b60006020828403121561110a57600080fd5b81356001600160a01b038116811461112157600080fd5b9392505050565b60006020828403121561113a57600080fd5b5035919050565b6020808252825182820181905260009190848201906040850190845b818110156111795783518352928401929184019160010161115d565b50909695505050505050565b634e487b7160e01b600052601160045260246000fd5b6000600182016111ad576111ad611185565b5060010190565b80820281158282048414176110d0576110d0611185565b634e487b7160e01b600052601260045260246000fd5b6000826111f0576111f06111cb565b500490565b818103818111156110d0576110d0611185565b808201808211156110d0576110d0611185565b634e487b7160e01b600052603260045260246000fd5b634e487b7160e01b600052603160045260246000fd5b600082611256576112566111cb565b50069056fea2646970667358221220c2390d00ba46cc4d6c737276543644a03f839f975ea3af1a21a0b3fa9e81d5b864736f6c63430008130033",
  "linkReferences": {},
  "deployedLinkReferences": {}
}