{
  "_format": "hh-sol-artifact-1",
  "contractName": "GameHubV2",
  "sourceName": "contracts/GameHubV2.sol",
  "abi": [
    {
      "inputs": [],
      "stateMutability": "nonpayable",
      "type": "constructor"
    },
    {
      "inputs": [
        {
          "internalType": "address",
          "name": "target",
          "type": "address"
        }
      ],
      "name": "AddressEmptyCode",
      "type": "error"
    },
    {
      "inputs": [
        {
          "internalType": "address",
          "name": "implementation",
          "type": "address"
        }
      ],
      "name": "ERC1967InvalidImplementation",
      "type": "error"
    },
    {
      "inputs": [],
      "name": "ERC1967NonPayable",
      "type": "error"
    },
    {
      "inputs": [],
      "name": "FailedCall",
      "type": "error"
    },
    {
      "inputs": [],
      "name": "InvalidInitialization",
      "type": "error"
    },
    {
      "inputs": [],
      "name": "NotInitializing",
      "type": "error"
    },
    {
      "inputs": [
        {
          "internalType": "address",
          "name": "owner",
          "type": "address"
        }
      ],
      "name": "OwnableInvalidOwner",
      "type": "error"
    },
    {
      "inputs": [
        {
          "internalType": "address",
          "name": "account",
          "type": "address"
        }
      ],
      "name": "OwnableUnauthorizedAccount",
      "type": "error"
    },
    {
      "inputs": [],
      "name": "UUPSUnauthorizedCallContext",
      "type": "error"
    },
    {
      "inputs": [
        {
          "internalType": "bytes32",
          "name": "slot",
          "type": "bytes32"
        }
      ],
      "name": "UUPSUnsupportedProxiableUUID",
      "type": "error"
    },
    {
      "anonymous": false,
      "inputs": [
        {
          "indexed": true,
          "internalType": "uint256",
          "name": "battleId",
          "type": "uint256"
        },
        {
          "indexed": false,
          "internalType": "address",
          "name": "winner",
          "type": "address"
        },
        {
          "indexed": false,
          "internalType": "uint256",
          "name": "prize",
          "type": "uint256"
        },
        {
          "indexed": false,
          "internalType": "uint256",
          "name": "randomSeed",
          "type": "uint256"
        }
      ],
      "name": "BattleRoyaleCompleted",
      "type": "event"
    },
    {
      "anonymous": false,
      "inputs": [
        {
          "indexed": true,
          "internalType": "uint256",
          "name": "battleId",
          "type": "uint256"
        },
        {
          "indexed": false,
          "internalType": "enum GameHubV2.GameMode",
          "name": "mode",
          "type": "uint8"
        },
        {
          "indexed": false,
          "internalType": "uint256",
          "name": "playersCount",
          "type": "uint256"
        },
        {
          "indexed": false,
          "internalType": "uint256",
          "name": "betAmount",
          "type": "uint256"
        }
      ],
      "name": "BattleRoyaleStarted",
      "type": "event"
    },
    {
      "anonymous": false,
      "inputs": [
        {
          "indexed": true,
          "internalType": "uint256",
          "name": "duelId",
          "type": "uint256"
        },
        {
          "indexed": false,
          "internalType": "address",
          "name": "winner",
          "type": "address"
        },
        {
          "indexed": false,
          "internalType": "uint256",
          "name": "prize",
          "type": "uint256"
        },
        {
          "indexed": false,
          "internalType": "uint256",
          "name": "randomSeed",
          "type": "uint256"
        }
      ],
      "name": "DuelCompleted",
      "type": "event"
    },
    {
      "anonymous": false,
      "inputs": [
        {
          "indexed": true,
          "internalType": "uint256",
          "name": "duelId",
          "type": "uint256"
        },
        {
          "indexed": false,
          "internalType": "address",
          "name": "player1",
          "type": "address"
        },
        {
          "indexed": false,
          "internalType": "address",
          "name": "player2",
          "type": "address"
        },
        {
          "indexed": false,
          "internalType": "uint256",
          "name": "betAmount",
          "type": "uint256"
        }
      ],
      "name": "DuelStarted",
      "type": "event"
    },
    {
      "anonymous": false,
      "inputs": [
        {
          "indexed": false,
          "internalType": "uint64",
          "name": "version",
          "type": "uint64"
        }
      ],
      "name": "Initialized",
      "type": "event"
    },
    {
      "anonymous": false,
      "inputs": [
        {
          "indexed": true,
          "internalType": "address",
          "name": "previousOwner",
          "type": "address"
        },
        {
          "indexed": true,
          "internalType": "address",
          "name": "newOwner",
          "type": "address"
        }
      ],
      "name": "OwnershipTransferred",
      "type": "event"
    },
    {
      "anonymous": false,
      "inputs": [
        {
          "indexed": false,
          "internalType": "address",
          "name": "to",
          "type": "address"
        },
        {
          "indexed": false,
          "internalType": "uint256",
          "name": "amount",
          "type": "uint256"
        }
      ],
      "name": "PaymentSent",
      "type": "event"
    },
    {
      "anonymous": false,
      "inputs": [
        {
          "indexed": true,
          "internalType": "uint256",
          "name": "waitingId",
          "type": "uint256"
        },
        {
          "indexed": false,
          "internalType": "address",
          "name": "player",
          "type": "address"
        },
        {
          "indexed": false,
          "internalType": "uint256",
          "name": "betAmount",
          "type": "uint256"
        },
        {
          "indexed": false,
          "internalType": "enum GameHubV2.GameMode",
          "name": "mode",
          "type": "uint8"
        }
      ],
      "name": "PlayerWaiting",
      "type": "event"
    },
    {
      "anonymous": false,
      "inputs": [
        {
          "indexed": true,
          "internalType": "address",
          "name": "implementation",
          "type": "address"
        }
      ],
      "name": "Upgraded",
      "type": "event"
    },
    {
      "inputs": [],
      "name": "OWNER_FEE_PERCENT",
      "outputs": [
        {
          "internalType": "uint256",
          "name": "",
          "type": "uint256"
        }
      ],
      "stateMutability": "view",
      "type": "function"
    },
    {
      "inputs": [],
      "name": "UPGRADE_INTERFACE_VERSION",
      "outputs": [
        {
          "internalType": "string",
          "name": "",
          "type": "string"
        }
      ],
      "stateMutability": "view",
      "type": "function"
    },
    {
      "inputs": [
        {
          "internalType": "uint256",
          "name": "",
          "type": "uint256"
        }
      ],
      "name": "allowedBets",
      "outputs": [
        {
          "internalType": "uint256",
          "name": "",
          "type": "uint256"
        }
      ],
      "stateMutability": "view",
      "type": "function"
    },
    {
      "inputs": [
        {
          "internalType": "uint256",
          "name": "",
          "type": "uint256"
        }
      ],
      "name": "battleRoyales",
      "outputs": [
        {
          "internalType": "uint256",
          "name": "id",
          "type": "uint256"
        },
        {
          "internalType": "enum GameHubV2.GameMode",
          "name": "mode",
          "type": "uint8"
        },
        {
          "internalType": "uint256",
          "name": "betAmount",
          "type": "uint256"
        },
        {
          "internalType": "uint256",
          "name": "startTime",
          "type": "uint256"
        },
        {
          "internalType": "address",
          "name": "winner",
          "type": "address"
        },
        {
          "internalType": "bool",
          "name": "completed",
          "type": "bool"
        },
        {
          "internalType": "uint256",
          "name": "randomSeed",
          "type": "uint256"
        },
        {
          "internalType": "uint256",
          "name": "requiredPlayers",
          "type": "uint256"
        }
      ],
      "stateMutability": "view",
      "type": "function"
    },
    {
      "inputs": [],
      "name": "cancelWaiting",
      "outputs": [],
      "stateMutability": "nonpayable",
      "type": "function"
    },
    {
      "inputs": [
        {
          "internalType": "uint256",
          "name": "",
          "type": "uint256"
        }
      ],
      "name": "duels",
      "outputs": [
        {
          "internalType": "uint256",
          "name": "id",
          "type": "uint256"
        },
        {
          "internalType": "address",
          "name": "player1",
          "type": "address"
        },
        {
          "internalType": "address",
          "name": "player2",
          "type": "address"
        },
        {
          "internalType": "uint256",
          "name": "betAmount",
          "type": "uint256"
        },
        {
          "internalType": "uint256",
          "name": "timestamp",
          "type": "uint256"
        },
        {
          "internalType": "address",
          "name": "winner",
          "type": "address"
        },
        {
          "internalType": "bool",
          "name": "completed",
          "type": "bool"
        },
        {
          "internalType": "uint256",
          "name": "randomSeed",
          "type": "uint256"
        }
      ],
      "stateMutability": "view",
      "type": "function"
    },
    {
      "inputs": [],
      "name": "emergencyWithdraw",
      "outputs": [],
      "stateMutability": "nonpayable",
      "type": "function"
    },
    {
      "inputs": [],
      "name": "getAllowedBets",
      "outputs": [
        {
          "internalType": "uint256[]",
          "name": "",
          "type": "uint256[]"
        }
      ],
      "stateMutability": "view",
      "type": "function"
    },
    {
      "inputs": [
        {
          "internalType": "uint256",
          "name": "battleId",
          "type": "uint256"
        }
      ],
      "name": "getBattleRoyale",
      "outputs": [
        {
          "components": [
            {
              "internalType": "uint256",
              "name": "id",
              "type": "uint256"
            },
            {
              "internalType": "enum GameHubV2.GameMode",
              "name": "mode",
              "type": "uint8"
            },
            {
              "internalType": "address[]",
              "name": "players",
              "type": "address[]"
            },
            {
              "internalType": "uint256",
              "name": "betAmount",
              "type": "uint256"
            },
            {
              "internalType": "uint256",
              "name": "startTime",
              "type": "uint256"
            },
            {
              "internalType": "address",
              "name": "winner",
              "type": "address"
            },
            {
              "internalType": "bool",
              "name": "completed",
              "type": "bool"
            },
            {
              "internalType": "uint256",
              "name": "randomSeed",
              "type": "uint256"
            },
            {
              "internalType": "uint256",
              "name": "requiredPlayers",
              "type": "uint256"
            }
          ],
          "internalType": "struct GameHubV2.BattleRoyale",
          "name": "",
          "type": "tuple"
        }
      ],
      "stateMutability": "view",
      "type": "function"
    },
    {
      "inputs": [
        {
          "internalType": "uint256",
          "name": "duelId",
          "type": "uint256"
        }
      ],
      "name": "getDuel",
      "outputs": [
        {
          "components": [
            {
              "internalType": "uint256",
              "name": "id",
              "type": "uint256"
            },
            {
              "internalType": "address",
              "name": "player1",
              "type": "address"
            },
            {
              "internalType": "address",
              "name": "player2",
              "type": "address"
            },
            {
              "internalType": "uint256",
              "name": "betAmount",
              "type": "uint256"
            },
            {
              "internalType": "uint256",
              "name": "timestamp",
              "type": "uint256"
            },
            {
              "internalType": "address",
              "name": "winner",
              "type": "address"
            },
            {
              "internalType": "bool",
              "name": "completed",
              "type": "bool"
            },
            {
              "internalType": "uint256",
              "name": "randomSeed",
              "type": "uint256"
            }
          ],
          "internalType": "struct GameHubV2.Duel",
          "name": "",
          "type": "tuple"
        }
      ],
      "stateMutability": "view",
      "type": "function"
    },
    {
      "inputs": [
        {
          "internalType": "enum GameHubV2.GameMode",
          "name": "mode",
          "type": "uint8"
        }
      ],
      "name": "getMultiplier",
      "outputs": [
        {
          "internalType": "uint256",
          "name": "",
          "type": "uint256"
        }
      ],
      "stateMutability": "pure",
      "type": "function"
    },
    {
      "inputs": [
        {
          "internalType": "address",
          "name": "player",
          "type": "address"
        }
      ],
      "name": "getPlayerStats",
      "outputs": [
        {
          "internalType": "uint256",
          "name": "totalGames",
          "type": "uint256"
        },
        {
          "internalType": "uint256",
          "name": "wins",
          "type": "uint256"
        },
        {
          "internalType": "uint256",
          "name": "totalWinnings",
          "type": "uint256"
        }
      ],
      "stateMutability": "view",
      "type": "function"
    },
    {
      "inputs": [
        {
          "internalType": "enum GameHubV2.GameMode",
          "name": "mode",
          "type": "uint8"
        }
      ],
      "name": "getRequiredPlayers",
      "outputs": [
        {
          "internalType": "uint256",
          "name": "",
          "type": "uint256"
        }
      ],
      "stateMutability": "pure",
      "type": "function"
    },
    {
      "inputs": [
        {
          "internalType": "enum GameHubV2.GameMode",
          "name": "mode",
          "type": "uint8"
        },
        {
          "internalType": "uint256",
          "name": "betAmount",
          "type": "uint256"
        }
      ],
      "name": "getWaitingPlayersCount",
      "outputs": [
        {
          "internalType": "uint256",
          "name": "",
          "type": "uint256"
        }
      ],
      "stateMutability": "view",
      "type": "function"
    },
    {
      "inputs": [],
      "name": "initialize",
      "outputs": [],
      "stateMutability": "nonpayable",
      "type": "function"
    },
    {
      "inputs": [
        {
          "internalType": "uint256",
          "name": "amount",
          "type": "uint256"
        }
      ],
      "name": "isValidBet",
      "outputs": [
        {
          "internalType": "bool",
          "name": "",
          "type": "bool"
        }
      ],
      "stateMutability": "view",
      "type": "function"
    },
    {
      "inputs": [
        {
          "internalType": "enum GameHubV2.GameMode",
          "name": "mode",
          "type": "uint8"
        }
      ],
      "name": "joinGame",
      "outputs": [],
      "stateMutability": "payable",
      "type": "function"
    },
    {
      "inputs": [],
      "name": "nextBattleRoyaleId",
      "outputs": [
        {
          "internalType": "uint256",
          "name": "",
          "type": "uint256"
        }
      ],
      "stateMutability": "view",
      "type": "function"
    },
    {
      "inputs": [],
      "name": "nextDuelId",
      "outputs": [
        {
          "internalType": "uint256",
          "name": "",
          "type": "uint256"
        }
      ],
      "stateMutability": "view",
      "type": "function"
    },
    {
      "inputs": [],
      "name": "nextWaitingId",
      "outputs": [
        {
          "internalType": "uint256",
          "name": "",
          "type": "uint256"
        }
      ],
      "stateMutability": "view",
      "type": "function"
    },
    {
      "inputs": [],
      "name": "owner",
      "outputs": [
        {
          "internalType": "address",
          "name": "",
          "type": "address"
        }
      ],
      "stateMutability": "view",
      "type": "function"
    },
    {
      "inputs": [],
      "name": "proxiableUUID",
      "outputs": [
        {
          "internalType": "bytes32",
          "name": "",
          "type": "bytes32"
        }
      ],
      "stateMutability": "view",
      "type": "function"
    },
    {
      "inputs": [],
      "name": "randomNonce",
      "outputs": [
        {
          "internalType": "uint256",
          "name": "",
          "type": "uint256"
        }
      ],
      "stateMutability": "view",
      "type": "function"
    },
    {
      "inputs": [],
      "name": "renounceOwnership",
      "outputs": [],
      "stateMutability": "nonpayable",
      "type": "function"
    },
    {
      "inputs": [],
      "name": "totalBattleRoyales",
      "outputs": [
        {
          "internalType": "uint256",
          "name": "",
          "type": "uint256"
        }
      ],
      "stateMutability": "view",
      "type": "function"
    },
    {
      "inputs": [],
      "name": "totalDuels",
      "outputs": [
        {
          "internalType": "uint256",
          "name": "",
          "type": "uint256"
        }
      ],
      "stateMutability": "view",
      "type": "function"
    },
    {
      "inputs": [
        {
          "internalType": "address",
          "name": "newOwner",
          "type": "address"
        }
      ],
      "name": "transferOwnership",
      "outputs": [],
      "stateMutability": "nonpayable",
      "type": "function"
    },
    {
      "inputs": [
        {
          "internalType": "address",
          "name": "newImplementation",
          "type": "address"
        },
        {
          "internalType": "bytes",
          "name": "data",
          "type": "bytes"
        }
      ],
      "name": "upgradeToAndCall",
      "outputs": [],
      "stateMutability": "payable",
      "type": "function"
    },
    {
      "inputs": [
        {
          "internalType": "enum GameHubV2.GameMode",
          "name": "",
          "type": "uint8"
        },
        {
          "internalType": "uint256",
          "name": "",
          "type": "uint256"
        },
        {
          "internalType": "uint256",
          "name": "",
          "type": "uint256"
        }
      ],
      "name": "waitingByModeAndBet",
      "outputs": [
        {
          "internalType": "uint256",
          "name": "",
          "type": "uint256"
        }
      ],
      "stateMutability": "view",
      "type": "function"
    },
    {
      "inputs": [
        {
          "internalType": "uint256",
          "name": "",
          "type": "uint256"
        }
      ],
      "name": "waitingPlayers",
      "outputs": [
        {
          "internalType": "address",
          "name": "player",
          "type": "address"
        },
        {
          "internalType": "uint256",
          "name": "betAmount",
          "type": "uint256"
        },
        {
          "internalType": "enum GameHubV2.GameMode",
          "name": "mode",
          "type": "uint8"
        },
        {
          "internalType": "uint256",
          "name": "joinTime",
          "type": "uint256"
        },
        {
          "internalType": "bool",
          "name": "active",
          "type": "bool"
        }
      ],
      "stateMutability": "view",
      "type": "function"
    }
  ],
  "bytecode": "0x60a0604052306080523480156200001557600080fd5b506200002062000026565b620000da565b7ff0c57e16840df040f15088dc2f81fe391c3923bec73e23a9662efc9c229c6a00805468010000000000000000900460ff1615620000775760405163f92ee8a960e01b815260040160405180910390fd5b80546001600160401b0390811614620000d75780546001600160401b0319166001600160401b0390811782556040519081527fc7f505b2f371ae2175ee4913f4499e1f2633a7b5936321eed1cdaeb6115181d29060200160405180910390a15b50565b608051612b3d62000104600039600081816112d70152818161130001526114460152612b3d6000f3fe6080604052600436106101cd5760003560e01c8063809a6c28116100f7578063a8a3221e11610095578063eea9413c11610064578063eea9413c1461075a578063f19e774e14610787578063f2fde38b146107b7578063f8725424146107d757600080fd5b8063a8a3221e146106df578063ad3cb1cc146106f4578063d0ae92fb14610732578063db2e21bc1461074557600080fd5b80638da5cb5b116100d15780638da5cb5b1461065a5780638f94514614610687578063a235c4ab146106a7578063a31b8bfd146106c957600080fd5b8063809a6c28146105175780638129fc1c14610581578063859a62d01461059657600080fd5b80634f1ef2861161016f578063565e614f1161013e578063565e614f1461038657806357d628d7146104d75780635b34981a146104ed578063715018a61461050257600080fd5b80634f1ef2861461030b5780634fd66eae1461032057806352d1902d1461035b578063549ec6141461037057600080fd5b80631db62761116101ab5780631db62761146102a95780631eccb38b146102bf57806339988a55146102d557806343963a91146102eb57600080fd5b80630b072b8d146101d25780630c02b1ed14610205578063125907fc14610289575b600080fd5b3480156101de57600080fd5b506101f26101ed366004612598565b6107f7565b6040519081526020015b60405180910390f35b34801561021157600080fd5b506102756102203660046125b3565b60046020819052600091825260409091208054600182015460038301549383015460058401546006850154600790950154939560ff93841695909492936001600160a01b03831693600160a01b909304169188565b6040516101fc989796959493929190612604565b34801561029557600080fd5b506101f26102a4366004612653565b610888565b3480156102b557600080fd5b506101f260095481565b3480156102cb57600080fd5b506101f260085481565b3480156102e157600080fd5b506101f260025481565b3480156102f757600080fd5b506101f2610306366004612598565b6108c6565b61031e6103193660046126b3565b61094c565b005b34801561032c57600080fd5b5061034061033b366004612775565b61096b565b604080519384526020840192909252908201526060016101fc565b34801561036757600080fd5b506101f2610b72565b34801561037c57600080fd5b506101f260075481565b34801561039257600080fd5b506104646103a13660046125b3565b6040805161010081018252600080825260208201819052918101829052606081018290526080810182905260a0810182905260c0810182905260e0810191909152506000908152600360208181526040928390208351610100810185528154815260018201546001600160a01b0390811693820193909352600282015483169481019490945291820154606084015260048201546080840152600582015490811660a0840152600160a01b900460ff16151560c08301526006015460e082015290565b6040516101fc919060006101008201905082518252602083015160018060a01b03808216602085015280604086015116604085015260608501516060850152608085015160808501528060a08601511660a0850152505060c0830151151560c083015260e083015160e083015292915050565b3480156104e357600080fd5b506101f260005481565b3480156104f957600080fd5b5061031e610b8f565b34801561050e57600080fd5b5061031e610ca2565b34801561052357600080fd5b506105706105323660046125b3565b600560205260009081526040902080546001820154600283015460038401546004909401546001600160a01b0390931693919260ff91821692911685565b6040516101fc959493929190612790565b34801561058d57600080fd5b5061031e610cb6565b3480156105a257600080fd5b5061060b6105b13660046125b3565b6003602081905260009182526040909120805460018201546002830154938301546004840154600585015460069095015493956001600160a01b0393841695908416949293919291811691600160a01b90910460ff169088565b604080519889526001600160a01b0397881660208a0152958716958801959095526060870193909352608086019190915290921660a084015290151560c083015260e0820152610100016101fc565b34801561066657600080fd5b5061066f610e16565b6040516001600160a01b0390911681526020016101fc565b34801561069357600080fd5b506101f26106a23660046125b3565b610e44565b3480156106b357600080fd5b506106bc610e65565b6040516101fc91906127cc565b3480156106d557600080fd5b506101f260015481565b3480156106eb57600080fd5b506101f2600a81565b34801561070057600080fd5b50610725604051806040016040528060058152602001640352e302e360dc1b81525081565b6040516101fc9190612834565b61031e610740366004612598565b610ebd565b34801561075157600080fd5b5061031e610fe3565b34801561076657600080fd5b5061077a6107753660046125b3565b61102b565b6040516101fc91906128ac565b34801561079357600080fd5b506107a76107a23660046125b3565b61118f565b60405190151581526020016101fc565b3480156107c357600080fd5b5061031e6107d2366004612775565b6111db565b3480156107e357600080fd5b506101f26107f2366004612947565b611216565b60008082600381111561080c5761080c6125cc565b03610819575060b4919050565b600182600381111561082d5761082d6125cc565b0361083b57506101c2919050565b600282600381111561084f5761084f6125cc565b0361085d5750612328919050565b6003826003811115610871576108716125cc565b03610880575062015f90919050565b506000919050565b600660205282600052604060002060205281600052604060002081815481106108b057600080fd5b9060005260206000200160009250925050505481565b6000808260038111156108db576108db6125cc565b036108e857506002919050565b60018260038111156108fc576108fc6125cc565b0361090957506005919050565b600282600381111561091d5761091d6125cc565b0361092a57506064919050565b600382600381111561093e5761093e6125cc565b0361088057506103e8919050565b6109546112cc565b61095d82611371565b6109678282611379565b5050565b6000808060015b600754811015610a65576000818152600360205260409020600101546001600160a01b03868116911614806109c357506000818152600360205260409020600201546001600160a01b038681169116145b15610a5d57836109d281612987565b6000838152600360205260409020600501549095506001600160a01b038088169116039050610a5d5782610a0581612987565b6000838152600360208190526040822001549195509150610a279060026129a0565b905060006064610a38600a846129a0565b610a4291906129cd565b9050610a4e81836129e1565b610a5890856129f4565b935050505b600101610972565b5060015b600854811015610b6a57600081815260046020526040812090805b6002830154811015610ada57876001600160a01b0316836002018281548110610aaf57610aaf612a07565b6000918252602090912001546001600160a01b031603610ad25760019150610ada565b600101610a84565b508015610b605785610aeb81612987565b60058401549097506001600160a01b03808a169116039050610b605784610b1181612987565b955050600082600701548360030154610b2a91906129a0565b905060006064610b3b600a846129a0565b610b4591906129cd565b9050610b5181836129e1565b610b5b90876129f4565b955050505b5050600101610a69565b509193909250565b6000610b7c61143b565b50600080516020612ae883398151915290565b60015b600954811015610c54576000818152600560205260409020546001600160a01b031633148015610bd3575060008181526005602052604090206004015460ff165b15610c4c5760008181526005602052604080822060048101805460ff19169055600101549051339282156108fc02929190818181858888f19350505050158015610c21573d6000803e3d6000fd5b5060008181526005602052604090206002810154600190910154610c499160ff169083611484565b50565b600101610b92565b5060405162461bcd60e51b815260206004820152601760248201527f4e6f206163746976652077616974696e6720666f756e6400000000000000000060448201526064015b60405180910390fd5b610caa61157b565b610cb460006115ad565b565b6000610cc061161e565b805490915060ff600160401b820416159067ffffffffffffffff16600081158015610ce85750825b905060008267ffffffffffffffff166001148015610d055750303b155b905081158015610d13575080155b15610d315760405163f92ee8a960e01b815260040160405180910390fd5b845467ffffffffffffffff191660011785558315610d5b57845460ff60401b1916600160401b1785555b610d6433611647565b610d6c611658565b60016007819055600881905560095542600255604080516080810182526509184e72a0008152655af3107a4000602082015266038d7ea4c6800091810191909152662386f26fc100006060820152610dc890600a9060046124a6565b508315610e0f57845460ff60401b19168555604051600181527fc7f505b2f371ae2175ee4913f4499e1f2633a7b5936321eed1cdaeb6115181d29060200160405180910390a15b5050505050565b7f9016d09d72d40fdae2fd8ceac6b6234c7706214fd39c1cd1e609a0528c199300546001600160a01b031690565b600a8181548110610e5457600080fd5b600091825260209091200154905081565b6060600a805480602002602001604051908101604052809291908181526020018280548015610eb357602002820191906000526020600020905b815481526020019060010190808311610e9f575b5050505050905090565b610ec63461118f565b610f075760405162461bcd60e51b8152602060048201526012602482015271125b9d985b1a590818995d08185b5bdd5b9d60721b6044820152606401610c99565b60003411610f475760405162461bcd60e51b815260206004820152600d60248201526c09aeae6e840e6cadcc8408aa89609b1b6044820152606401610c99565b6000816003811115610f5b57610f5b6125cc565b141580610f7957506000816003811115610f7757610f776125cc565b145b610fb95760405162461bcd60e51b8152602060048201526011602482015270496e76616c69642067616d65206d6f646560781b6044820152606401610c99565b6000816003811115610fcd57610fcd6125cc565b03610fda57610c49611660565b610c49816116bc565b610feb61157b565b610ff3610e16565b6001600160a01b03166108fc479081150290604051600060405180830381858888f19350505050158015610c49573d6000803e3d6000fd5b61108660408051610120810190915260008082526020820190815260200160608152602001600081526020016000815260200160006001600160a01b0316815260200160001515815260200160008152602001600081525090565b60008281526004602090815260409182902082516101208101909352805483526001810154909183019060ff1660038111156110c4576110c46125cc565b60038111156110d5576110d56125cc565b81526020016002820180548060200260200160405190810160405280929190818152602001828054801561113257602002820191906000526020600020905b81546001600160a01b03168152600190910190602001808311611114575b5050509183525050600382015460208201526004820154604082015260058201546001600160a01b0381166060830152600160a01b900460ff1615156080820152600682015460a082015260079091015460c09091015292915050565b6000805b600a548110156111d25782600a82815481106111b1576111b1612a07565b9060005260206000200154036111ca5750600192915050565b600101611193565b50600092915050565b6111e361157b565b6001600160a01b03811661120d57604051631e4fbdf760e01b815260006004820152602401610c99565b610c49816115ad565b6000808060068186600381111561122f5761122f6125cc565b6003811115611240576112406125cc565b81526020019081526020016000206000858152602001908152602001600020905060005b81548110156112c0576005600083838154811061128357611283612a07565b6000918252602080832090910154835282019290925260400190206004015460ff16156112b857826112b481612987565b9350505b600101611264565b50909150505b92915050565b306001600160a01b037f000000000000000000000000000000000000000000000000000000000000000016148061135357507f00000000000000000000000000000000000000000000000000000000000000006001600160a01b0316611347600080516020612ae8833981519152546001600160a01b031690565b6001600160a01b031614155b15610cb45760405163703e46dd60e11b815260040160405180910390fd5b610c4961157b565b816001600160a01b03166352d1902d6040518163ffffffff1660e01b8152600401602060405180830381865afa9250505080156113d3575060408051601f3d908101601f191682019092526113d091810190612a1d565b60015b6113fb57604051634c9c8ce360e01b81526001600160a01b0383166004820152602401610c99565b600080516020612ae8833981519152811461142c57604051632a87526960e21b815260048101829052602401610c99565b61143683836116fc565b505050565b306001600160a01b037f00000000000000000000000000000000000000000000000000000000000000001614610cb45760405163703e46dd60e11b815260040160405180910390fd5b60006006600085600381111561149c5761149c6125cc565b60038111156114ad576114ad6125cc565b81526020019081526020016000206000848152602001908152602001600020905060005b8154811015610e0f57828282815481106114ed576114ed612a07565b906000526020600020015403611573578154829061150d906001906129e1565b8154811061151d5761151d612a07565b906000526020600020015482828154811061153a5761153a612a07565b90600052602060002001819055508180548061155857611558612a36565b60019003818190600052602060002001600090559055610e0f565b6001016114d1565b33611584610e16565b6001600160a01b031614610cb45760405163118cdaa760e01b8152336004820152602401610c99565b7f9016d09d72d40fdae2fd8ceac6b6234c7706214fd39c1cd1e609a0528c19930080546001600160a01b031981166001600160a01b03848116918217845560405192169182907f8be0079c531659141344cd1fd0a4f28419497f9722a3daafe3b4186f6b6457e090600090a3505050565b6000807ff0c57e16840df040f15088dc2f81fe391c3923bec73e23a9662efc9c229c6a006112c6565b61164f611752565b610c4981611777565b610cb4611752565b600061166d60003461177f565b905080156116b15760008181526005602052604090208054611699906001600160a01b03163334611855565b60048101805460ff1916905561096760003484611484565b610c49600034611bc1565b60006116c7826108c6565b905060006116d58334611216565b9050816116e38260016129f4565b106116f2576114368334611d44565b6114368334611bc1565b6117058261228d565b6040516001600160a01b038316907fbc7cd75a20ee27fd9adebab32041f755214dbc6bffa90cc0225b39da2e5c2d3b90600090a280511561174a5761143682826122f2565b610967612368565b61175a612387565b610cb457604051631afcd79f60e31b815260040160405180910390fd5b6111e3611752565b60008060066000856003811115611798576117986125cc565b60038111156117a9576117a96125cc565b81526020019081526020016000206000848152602001908152602001600020905060005b815481101561184a5760008282815481106117ea576117ea612a07565b6000918252602080832090910154808352600590915260409091206004015490915060ff16801561183257506000818152600560205260409020546001600160a01b03163314155b156118415792506112c6915050565b506001016117cd565b506000949350505050565b6002805490600061186583612987565b919050555060006118746123a1565b90506000611883600283612a4c565b9050600081156118935784611895565b855b6007805491925060009190826118aa83612987565b919050559050604051806101000160405280828152602001886001600160a01b03168152602001876001600160a01b03168152602001868152602001428152602001836001600160a01b0316815260200160011515815260200185815250600360008381526020019081526020016000206000820151816000015560208201518160010160006101000a8154816001600160a01b0302191690836001600160a01b0316021790555060408201518160020160006101000a8154816001600160a01b0302191690836001600160a01b03160217905550606082015181600301556080820151816004015560a08201518160050160006101000a8154816001600160a01b0302191690836001600160a01b0316021790555060c08201518160050160146101000a81548160ff02191690831515021790555060e0820151816006015590505060008560026119fc91906129a0565b905060006064611a0d600a846129a0565b611a1791906129cd565b90506000611a2582846129e1565b6040519091506001600160a01b0386169082156108fc029083906000818181858888f19350505050158015611a5e573d6000803e3d6000fd5b50611a67610e16565b6001600160a01b03166108fc839081150290604051600060405180830381858888f19350505050158015611a9f573d6000803e3d6000fd5b50600080549080611aaf83612987565b9091555050604080516001600160a01b03808d1682528b16602082015290810189905284907f32a4a869175589db4f7700ac66e13712c68344029a4dc6411c67a3a89cc020889060600160405180910390a2604080516001600160a01b03871681526020810183905290810188905284907f82805c62658f0d4e2e9a11270a627f27493b4ae9968841f58becef279bd3f7c69060600160405180910390a2604080516001600160a01b038716815260208101839052600080516020612ac8833981519152910160405180910390a1600080516020612ac8833981519152611b94610e16565b604080516001600160a01b039092168252602082018590520160405180910390a150505050505050505050565b6009805460009182611bd283612987565b9190505590506040518060a00160405280336001600160a01b03168152602001838152602001846003811115611c0a57611c0a6125cc565b81524260208083019190915260016040928301819052600085815260058352839020845181546001600160a01b0319166001600160a01b0390911617815591840151828201559183015160028201805492939192909160ff1990911690836003811115611c7957611c796125cc565b02179055506060820151816003015560808201518160040160006101000a81548160ff02191690831515021790555090505060066000846003811115611cc157611cc16125cc565b6003811115611cd257611cd26125cc565b815260208082019290925260409081016000908120858252835281812080546001810182559082529290209091018290555181907f48162bedb16d05a3275c2737a223bed7a2d83f402091162c85fa9dc10f6951ed90611d3790339086908890612a60565b60405180910390a2505050565b6000611d4f836108c6565b9050600060066000856003811115611d6957611d696125cc565b6003811115611d7a57611d7a6125cc565b81526020019081526020016000206000848152602001908152602001600020905060008267ffffffffffffffff811115611db657611db661269d565b604051908082528060200260200182016040528015611ddf578160200160208202803683370190505b5090506000338282611df081612987565b935081518110611e0257611e02612a07565b60200260200101906001600160a01b031690816001600160a01b03168152505060005b835481108015611e3457508482105b15611ef0576000848281548110611e4d57611e4d612a07565b6000918252602080832090910154808352600590915260409091206004015490915060ff1615611edd576000818152600560205260409020546001600160a01b03168484611e9a81612987565b955081518110611eac57611eac612a07565b6001600160a01b039092166020928302919091018201526000828152600590915260409020600401805460ff191690555b5080611ee881612987565b915050611e25565b5060066000876003811115611f0757611f076125cc565b6003811115611f1857611f186125cc565b815260200190815260200160002060008681526020019081526020016000206000611f4391906124fc565b60028054906000611f5383612987565b91905055506000611f626123a1565b90506000611f708683612a4c565b90506000848281518110611f8657611f86612a07565b60200260200101519050600060086000815480929190611fa590612987565b9190505590506040518061012001604052808281526020018b6003811115611fcf57611fcf6125cc565b8152602080820189905260408083018d90524260608401526001600160a01b0386166080840152600160a0840181905260c0840189905260e09093018c9052600085815260048352208351815590830151818301805492939192909160ff1990911690836003811115612044576120446125cc565b02179055506040820151805161206491600284019160209091019061251a565b50606082015160038201556080820151600482015560a082015160058201805460c08501511515600160a01b026001600160a81b03199091166001600160a01b039093169290921791909117905560e082015160068201556101009091015160079091015560006120d5898b6129a0565b9050600060646120e6600a846129a0565b6120f091906129cd565b905060006120fe82846129e1565b6040519091506001600160a01b0386169082156108fc029083906000818181858888f19350505050158015612137573d6000803e3d6000fd5b50612140610e16565b6001600160a01b03166108fc839081150290604051600060405180830381858888f19350505050158015612178573d6000803e3d6000fd5b506001805490600061218983612987565b9190505550837f084dcac16026e0dbb3c93bde7147c1aa2f00adce854bf7cb741a44ba47c5d8338e8d8f6040516121c293929190612a8c565b60405180910390a2604080516001600160a01b03871681526020810183905290810188905284907fd8ab9be402bed58d1a51595a9324a9844053d58dbf66a86d4e191a638a65be109060600160405180910390a2604080516001600160a01b038716815260208101839052600080516020612ac8833981519152910160405180910390a1600080516020612ac883398151915261225d610e16565b604080516001600160a01b039092168252602082018590520160405180910390a150505050505050505050505050565b806001600160a01b03163b6000036122c357604051634c9c8ce360e01b81526001600160a01b0382166004820152602401610c99565b600080516020612ae883398151915280546001600160a01b0319166001600160a01b0392909216919091179055565b6060600080846001600160a01b03168460405161230f9190612aab565b600060405180830381855af49150503d806000811461234a576040519150601f19603f3d011682016040523d82523d6000602084013e61234f565b606091505b509150915061235f85838361241f565b95945050505050565b3415610cb45760405163b398979f60e01b815260040160405180910390fd5b600061239161161e565b54600160401b900460ff16919050565b6000444243336002546001436123b791906129e1565b405a6040805160208101989098528701959095526060808701949094526bffffffffffffffffffffffff199290931b919091166080850152609484015260b483015260d482015260f4016040516020818303038152906040528051906020012060001c905090565b6060826124345761242f8261247e565b612477565b815115801561244b57506001600160a01b0384163b155b1561247457604051639996b31560e01b81526001600160a01b0385166004820152602401610c99565b50805b9392505050565b80511561248d57805160208201fd5b60405163d6bda27560e01b815260040160405180910390fd5b8280548282559060005260206000209081019282156124ec579160200282015b828111156124ec578251829066ffffffffffffff169055916020019190600101906124c6565b506124f892915061256f565b5090565b5080546000825590600052602060002090810190610c49919061256f565b8280548282559060005260206000209081019282156124ec579160200282015b828111156124ec57825182546001600160a01b0319166001600160a01b0390911617825560209092019160019091019061253a565b5b808211156124f85760008155600101612570565b80356004811061259357600080fd5b919050565b6000602082840312156125aa57600080fd5b61247782612584565b6000602082840312156125c557600080fd5b5035919050565b634e487b7160e01b600052602160045260246000fd5b6004811061260057634e487b7160e01b600052602160045260246000fd5b9052565b8881526101008101612619602083018a6125e2565b604082019790975260608101959095526001600160a01b0393909316608085015290151560a084015260c083015260e09091015292915050565b60008060006060848603121561266857600080fd5b61267184612584565b95602085013595506040909401359392505050565b80356001600160a01b038116811461259357600080fd5b634e487b7160e01b600052604160045260246000fd5b600080604083850312156126c657600080fd5b6126cf83612686565b9150602083013567ffffffffffffffff808211156126ec57600080fd5b818501915085601f83011261270057600080fd5b8135818111156127125761271261269d565b604051601f8201601f19908116603f0116810190838211818310171561273a5761273a61269d565b8160405282815288602084870101111561275357600080fd5b8260208601602083013760006020848301015280955050505050509250929050565b60006020828403121561278757600080fd5b61247782612686565b6001600160a01b03861681526020810185905260a081016127b460408301866125e2565b83606083015282151560808301529695505050505050565b6020808252825182820181905260009190848201906040850190845b81811015612804578351835292840192918401916001016127e8565b50909695505050505050565b60005b8381101561282b578181015183820152602001612813565b50506000910152565b6020815260008251806020840152612853816040850160208701612810565b601f01601f19169190910160400192915050565b60008151808452602080850194506020840160005b838110156128a15781516001600160a01b03168752958201959082019060010161287c565b509495945050505050565b6020815281516020820152600060208301516128cb60408401826125e2565b5060408301516101208060608501526128e8610140850183612867565b915060608501516080850152608085015160a085015260a085015161291860c08601826001600160a01b03169052565b5060c085015180151560e08601525060e085015161010085810191909152909401519390920192909252919050565b6000806040838503121561295a57600080fd5b61296383612584565b946020939093013593505050565b634e487b7160e01b600052601160045260246000fd5b60006001820161299957612999612971565b5060010190565b80820281158282048414176112c6576112c6612971565b634e487b7160e01b600052601260045260246000fd5b6000826129dc576129dc6129b7565b500490565b818103818111156112c6576112c6612971565b808201808211156112c6576112c6612971565b634e487b7160e01b600052603260045260246000fd5b600060208284031215612a2f57600080fd5b5051919050565b634e487b7160e01b600052603160045260246000fd5b600082612a5b57612a5b6129b7565b500690565b6001600160a01b03841681526020810183905260608101612a8460408301846125e2565b949350505050565b60608101612a9a82866125e2565b602082019390935260400152919050565b60008251612abd818460208701612810565b919091019291505056fe47db2abce6d5fbcd80ffd9b4ba74dcde804a746ef732bc7f8a70fabfc912c590360894a13ba1a3210667c828492db98dca3e2076cc3735a920a3ca505d382bbca2646970667358221220c2c2946940e10388c16133469b0e11f4681ad92e4b758473d39b58b44660a75a64736f6c63430008160033",
  "linkReferences": {},
  "deployedLinkReferences": {}
}